S01200005377697463684F6E4F66662E73333798
S21400000000000120F5C7000021C8000021C800003C
S21400001021C8000021C8000021C80000CD2600002D
S214000020CD260000CD260000CD26000021F80000D9
S21400003021C80000CD26000081F80000E5F8000089
S214000040118900001151020021C8000021C80000DB
S214000050D54B02007D5102001D51020035510200B1
S2140000601551020021C800000977000021C80000D1
S21400007021C8000021C8000021C8000021C80000D7
S21400008021C8000021C800003177000021C8000008
S21400009021C8000021C8000021C8000021C80000B7
S2140000A021C8000021C8000021C80000A12C0000C3
S2140000B08151020019510200213E020075F700002E
S2140000C0C1510200598800002111020021C8000019
S2140000D021C8000021C8000021C8000021C8000077
S2140000E021C8000021C8000021C8000021C8000067
S2140000F021C8000021C80000CD26000010B5054C20
S214000100237833B9044B13B10448AFF300800123BE
S214000110237010BD20060020000000000C8D020099
S21400012008B5034B1BB103490348AFF3008008BD75
S21400013000000000240600200C8D0200154B002B4A
S21400014008BF134B9D46A3F5803A00218B460F4609
S2140001501348144A121A25F0C5FA0F4B002B00D08C
S21400016098470E4B002B00D0984700200021040033
S2140001700D000D48002802D00C48AFF3008025F093
S21400018005FA200029000AF0ADFD25F0EBF900BFC6
S2140001900000080000000120000000000000000031
S2140001A020060020907800200000000000000000DC
S2140001B080B584B002AF03463960FB71FA793B68BC
S2140001C000931346044A082104480CF0AFFD00BF14
S2140001D00837BD4680BD00BF640600203C060020F0
S2140001E080B586B000AFF8600B467A60FB72FA7A8C
S2140001F07B68F96812480CF0DFFD0346FB75FB7D53
S214000200022B01D1012316E0FB7D002B12D1FB68E7
S21400021093F830301A460A4B1344002283F84820DD
S214000220FB6893F83030064A1433002142F8231056
S214000230012300E0002318461837BD4680BD00BFE6
S2140002403C06002080B500AF02480CF07DFD00BFE4
S21400025080BD00BF3C06002080B582B000AF78604D
S214000260796803480CF0D2FD00BF0837BD4680BD54
S2140002703C06002080B584B000AF78600B46FB706B
S2140002807B68BB60BB68FA781A700023FB600AE0E4
S214000290FB681B01BA6813440433184600F071F972
S2140002A0FB680133FB60FB78FA689A42F0DBBB68B8
S2140002B018461037BD4680BD80B586B002AFF860E0
S2140002C0B9607A6000230193002300937B680022C4
S2140002D0B968F86800F086F8034618461037BD4639
S2140002E080BD000080B584B000AF786039607B6860
S2140002F0BB600023FB606BE0BA68FB681B0113441D
S21400030004331B78032B5BD801A252F823F000BFFE
S214000310210300004103000077030000C103000032
S214000320BA68FB681B01134410331B68B968FA6887
S21400033012010A440C32126839681046984744E0A5
S2140003403B681B799AB2B968FB681B010B440633FD
S2140003501B889A4236D1BA68FB681B0113441033D7
S2140003601B68B968FA6812010A440C3212683968C8
S2140003701046984726E03B681B799AB2B968FB6836
S2140003801B010B4406331B889A421DD13B685A79E1
S214000390B968FB681B010B4408331B789A4213D1DB
S2140003A0BA68FB681B01134410331B68B968FA6807
S2140003B012010A440C32126839681046984703E066
S2140003C000BF02E000BF00E000BFFB680133FB6037
S2140003D0BB681B781A46FB6893428DDB00BF10375C
S2140003E0BD4680BD80B58AB000AFF860B9603B609E
S2140003F01346FB71F86800F0DDF803461A46FB6802
S2140004001B789A4201D1002366E0FB793B743B8E51
S2140004107B8297F834303B75BB68BB613B68FB61F9
S21400042007F11003184600F0EAF8034683F00103CC
S214000430DBB2002B01D000234EE007F11003194673
S214000440F86800F04DF80346002B01D0002343E087
S214000450FB683B6200237B6237E03A6A7B6A1B01DB
S214000460134404331B78032B2CD13A6A7B6A1B0196
S21400047013440433FA791A703A6A7B6A1B011344F0
S21400048010333A681A603A6A7B6A1B0113440C33CD
S214000490BA681A603B8E002B12D03A6A7B6A1B0140
S2140004A0134406333A8E1A8097F83430002B07D060
S2140004B03A6A7B6A1B011344083397F834201A7093
S2140004C0012309E07B6A01337B623B6A1B781A468C
S2140004D07B6A9342C1DB002318462837BD4680BDA1
S2140004E080B485B000AF786039607B68BB6000235D
S2140004F0FB733AE0FB7BBA681B01134404331A789B
S2140005003B681B789A422DD1FB7BBA681B011344CB
S21400051006331A883B685B889A4223D1FB7BBA680D
S2140005201B01134408331A783B681B799A4219D189
S214000530FB7BBA681B01134410331A683B68DB6800
S2140005409A420FD1FB7BBA681B0113440C331A681E
S2140005503B689B689A4205D1FB7B1B01BA68134433
S214000560043308E0FB7B0133FB73BB681B78FA7B24
S2140005709A42BFD3002318461437BD465DF8047B65
S214000580704780B483B000AF78607B6803221A702F
S2140005907B6800225A807B6800221A717B680022E2
S2140005A0DA607B6800229A6000BF0C37BD465DF8B3
S2140005B0047B704780B485B000AF78600023FB737F
S2140005C07B68BB600023BB730DE0BB7BBA681B0176
S2140005D0134404331B78032B02D0FB7B0133FB73DD
S2140005E0BB7B0133BB73BB681B78BA7B9A42ECD3E8
S2140005F0FB7B18461437BD465DF8047B704780B415
S21400060083B000AF78607B68DB68002B13D07B6814
S2140006101B78012B03D17B685B88002B0BD07B6893
S2140006201B78022B09D17B681B79002B03D07B68D3
S2140006305B88002B01D1002300E0012318460C370D
S214000640BD465DF8047B704780B400AF034B1B6A61
S2140006501846BD465DF8047B704700BFCC590200C3
S21400066080B400AF044B1B6A1B0CDBB21846BD46B9
S2140006705DF8047B704700BFCC59020080B400AF21
S214000680044B1B6A1B0ADBB21846BD465DF8047BAA
S214000690704700BFCC59020080B400AF034B1B6A02
S2140006A0DBB21846BD465DF8047B7047CC590200A5
S2140006B080B586B000AF3B600346FB710B46BB714E
S2140006C013467B710AF07CFA0346184601F02EF8B2
S2140006D00346FB750AF068FA38613B695B681B786D
S2140006E0FB737B6A002B0BD0BB7997F82820194642
S2140006F0786A24F08DFF0346002B01D001233CE0EE
S214000700FB7B03F00403002B07D0FB7D032B04D0F8
S214000710FB7D042B01D000232FE0FB7D002B15D0A2
S214000720FA79FB7D9A4211D13B68002B0ED0BB793B
S21400073097F820201946386824F06AFF0346002BF5
S21400074002D1BB79202B01D1012316E0FB7D002BC3
S21400075004D1BB79202B01D101230EE0FB7D042BB5
S2140007600AD1BB79722B07D17B79042B04D1FB7994
S214000770002B01D1012300E0002318461837BD46A0
S21400078080BD80B58CB000AF03460A46FB711346A9
S214000790BB710AF0F7F9F86265233B72FB793B738D
S2140007A0BB797B73FB6A9B6807F108010022184639
S2140007B00CF032FB00BF3037BD4680BD80B584B03C
S2140007C000AF78600F480FF0F3F80F4B1B68194620
S2140007D00E4809F0E1FDF860FB68002B0AD0F968C6
S2140007E00B480FF0C1F840220A4900200FF0B0F87D
S2140007F0002303E07B68054A1A6001231846103779
S214000800BD4680BD1859020018000020AC06002026
S214000810345902006459020080B586B000AF786093
S21400082039600023FB7500233B6118E07B6818687D
S2140008307B689A683B69DB001344194600F01AF897
S2140008400346FB733A683B691344FA7B1A70FB7BDA
S214000850002B01D00123FB753B6901333B617B68AC
S2140008605B683A699A42E1D3FB7D18461837BD4665
S21400087080BD000080B586B000AF786039607B68C8
S214000880002B14BF01230023DBB263220F49184656
S2140008900FF05EF83B68196807F10C0307F11002C9
S2140008A0786809F0DBFC78617B69002B01D00223B5
S2140008B007E03B685A68FB689A4201D0032300E0D1
S2140008C0002318461837BD4680BD00BF6459020095
S2140008D080B500AFB0220021024824F003FF00BF1D
S2140008E080BD00BF3C07002080B582B000AF7860B6
S2140008F00A4800F089F8034683F00103DBB2002BB8
S21400090001D0002306E0054A7B685360044806F0E1
S21400091013FD044B18460837BD4680BD3C07002033
S214000920480700204C07002080B582B000AF7860F2
S2140009300B46FB707B68074A934206D1FB78194644
S214000940054806F047FD012300E000231846083757
S214000950BD4680BD4C0700204807002080B584B007
S21400096000AFF860B9601346FB71124B1B78012B81
S2140009701BD1114806F000FD0F4806F03FFD034668
S2140009801A46BB681A70FB79002B09D0FB680A4A26
S2140009901A60BB681B780433DAB2BB681A7002E0D0
S2140009A0FB68064A1A60012300E000231846103749
S2140009B0BD4680BD3C070020480700204C070020AD
S2140009C080B582B000AF7860084B5B68002B03D020
S2140009D0064B5B68786898477B689B78012B01D14B
S2140009E000F006F800BF0837BD4680BD3C07002073
S2140009F080B500AF034B00225A60024800F018F89A
S214000A0000BF80BD3C07002080B483B000AF786094
S214000A107B681B78002B04D17B6801221A700123A7
S214000A2000E0002318460C37BD465DF8047B70478F
S214000A3080B483B000AF78607B6800221A7000BF75
S214000A400C37BD465DF8047B7047000080B584B067
S214000A5000AFB9607B600346FB731346BB730F4B56
S214000A6000221A7001210E480AF046FA0B490D487A
S214000A700BF09CFDFB7BBA6819460A4800F014F898
S214000A80BB7B7A681946074800F030F80021044816
S214000A900AF032FA00BF1037BD4680BD1C000020A9
S214000AA0003204000000014080B584B000AFF8605A
S214000AB00B467A60FB72F87A0123042279680BF001
S214000AC033FCFB689B6F23F4F852FB689A67FB7A4B
S214000AD07968184600F02CF80246FB689B6F1A43AC
S214000AE0FB689A6700BF1037BD4680BD80B584B0EE
S214000AF000AFF8600B467A60FB72F87A002301229A
S214000B0079680BF011FCFB689B6F23F01F02FB68F3
S214000B109A67FB7A7968184600F0D0F80246FB68B8
S214000B209B6F1A43FB689A6700BF1037BD4680BDAF
S214000B3080B483B000AF03463960FB71FB79052BA8
S214000B4000F2B48001A252F823F000BF650B00004B
S214000B50AB0B0000E70B00002F0C0000AD0C0000F4
S214000B60530C00003B68002B01D100239FE03B683C
S214000B70012B02D14FF4807399E03B68022B02D11F
S214000B804FF4007393E03B68032B02D14FF440739D
S214000B908DE03B68042B02D14FF4806387E03B680E
S214000BA0052B7AD14FF4A06381E03B680B2B02D172
S214000BB04FF4C0637BE03B680C2B02D14FF4E0633C
S214000BC075E03B680D2B02D14FF400636FE03B6885
S214000BD00E2B02D14FF4106369E03B680F2B5ED1F9
S214000BE04FF4206363E03B68062B02D14FF430637A
S214000BF05DE03B68072B02D14FF4406357E03B684B
S214000C00082B02D14FF4506351E03B68092B02D108
S214000C104FF460634BE03B680A2B02D14FF47063DD
S214000C2045E03B680B2B3CD14FF480533FE03B68DC
S214000C300D2B02D14FF4A85339E03B680E2B02D19E
S214000C404FF4B05333E03B680F2B2CD14FF4B8531E
S214000C502DE03B68002B02D14FF4C05327E03B68E1
S214000C60012B02D14FF4C85321E03B68022B02D17E
S214000C704FF4D0531BE03B68032B02D14FF4D853FC
S214000C8015E03B68042B02D14FF4E0530FE03B68BD
S214000C90052B0AD14FF4E85309E000BF06E000BF79
S214000CA004E000BF02E000BF00E000BF00231846DB
S214000CB00C37BD465DF8047B704700BF80B483B038
S214000CC000AF03463960FB71FB79052B00F29B8071
S214000CD001A252F823F000BFF10C00002D0D000019
S214000CE05F0D00009B0D0000070E0000B90D000010
S214000CF03B68002B01D11F2386E03B68012B01D106
S214000D00002381E03B68022B01D101237CE03B6895
S214000D10032B01D1022377E03B68042B01D1032388
S214000D2072E03B68052B65D104236DE03B680B2B16
S214000D3001D1052368E03B680C2B01D1062363E054
S214000D403B680D2B01D107235EE03B680E2B01D1DB
S214000D50082359E03B680F2B4ED1092354E03B682B
S214000D60062B01D10A234FE03B68072B01D10B234A
S214000D704AE03B68082B01D10C2345E03B68092B71
S214000D8001D10D2340E03B680A2B01D10E233BE046
S214000D903B680B2B32D10F2336E03B680D2B01D17D
S214000DA0142331E03B680E2B01D115232CE03B6861
S214000DB00F2B25D1162327E03B68002B01D11723E4
S214000DC022E03B68012B01D118231DE03B68022B73
S214000DD001D1192318E03B68032B01D11A2313E035
S214000DE03B68042B01D11B230EE03B68052B09D181
S214000DF01C2309E000BF06E000BF04E000BF02E0DD
S214000E0000BF00E000BF002318460C37BD465DF863
S214000E10047B704780B483B000AF78603960064AC0
S214000E207B681360054A3B68136000BF0C37BD46FD
S214000E305DF8047B704700BF0C08002010080020F7
S214000E4080B582B000AF03460A46FB711346BB71FD
S214000E50224B1B7ABA799A4202D8BB79002B01D171
S214000E60002336E009F0ACFE0346184600F05EFCB0
S214000E700346002B12D1FB7983F00103DBB2002B73
S214000E800AD0164BD968BA791346DB009B1A9B002A
S214000E901C3B0B4404331CE0114B1AE0FB7983F037
S214000EA00103DBB2002B0AD00C4BD968BA79134683
S214000EB0DB009B1A9B001C3B0B440C3309E0074BE2
S214000EC0D968BA791346DB009B1A9B001C3B0B447F
S214000ED0143318460837BD4680BD00BFEC07002017
S214000EE00408002080B5BAB000AFF8607A603B60B6
S214000EF00B46FB727B685B689B78002B02D17B6895
S214000F0000229A70204A3B68136007F10B0107F134
S214000F100C037A68184605F005FE7B685B681B784C
S214000F2087F8C830194BBB617B681B783B77F9683C
S214000F30FB7A1A4607F114030A33184624F0C7FB57
S214000F40FB7A7B77002387F8C930002387F8CB30FD
S214000F507B685B7843F00103DBB287F8CA307B68B6
S214000F605B68DB7887F8CC3001233B75084B1B6841
S214000F7007F11401002218460BF04EFF03461846F0
S214000F80E837BD4680BD00BFDC620020A11100002E
S214000F900C08002080B5BAB000AFF8607A603B60FD
S214000FA00B46FB72214A3B6813607B68002B01D11D
S214000FB0012336E007F10B0107F10C037A681846A7
S214000FC005F0B0FD7B685B681B7887F8C830184B67
S214000FD0BB617B681B783B77F968FB7A1A4607F19A
S214000FE014030A33184624F072FBFB7A7B7700233F
S214000FF087F8C930002387F8CB307B685B7887F8A2
S214001000CA307B685B68DB7887F8CC3001233B7599
S214001010084B1B6807F11401002218460BF0FCFE73
S21400102003461846E837BD4680BD00BFE062002094
S214001030ED1100000C08002080B586B000AFF86007
S2140010400B467A60FB727B681B783B747B68DB7AA6
S2140010507B747B681B7ABB74FB7C6FF30603FB74A4
S2140010607B7D6FF306037B757B7D6FF3C7137B7504
S214001070FA7A07F11003F968184606F0F1FD00BF8A
S2140010801837BD4680BD000080B483B000AF7860DE
S2140010903960254B254A5A603B68234A1A607B68AC
S2140010A09A78224B1A707B68DB78C3F30603D9B2B2
S2140010B01E4A537861F3060353707B68DB7803F0AF
S2140010C07F03DBB2002B14BF01230023DBB21A46DA
S2140010D0164B9A707B685A78144BDA70124B25229E
S2140010E01A707B681B7803F00203002B06D00E4BA9
S2140010F01B7843F00203DAB20B4B1A707B685B79FD
S214001100C3F30603DBB21A46074B9A70064B00225F
S2140011105A70054B5B687A685278DA7000BF0C37F5
S214001120BD465DF8047B7047140800201C080020AC
S21400113080B584B000AF78600023FB73786800F059
S2140011401BF80346002B0AD17B685B7923F07F03EC
S214001150DBB2002B03D1074B1B78012B01D10123F7
S214001160FB73044B00221A70FB7B18461037BD46F3
S21400117080BD00BFEC07002080B483B000AF78606D
S2140011807B681B7803F00C03002B01D0012300E0E2
S214001190002318460C37BD465DF8047B70470000F8
S2140011A080B584B000AF03463960FB7100233B7303
S2140011B0FB797B730123BB730A4B1B68002B05D09E
S2140011C0084B1B6807F10C0210469847064B1B6835
S2140011D0002B02D0044B1B68984700BF1037BD4653
S2140011E080BD00BFDC6200201008002080B582B001
S2140011F000AF03463960FB71094B1B68002B04D017
S214001200074B1B68FA7910469847064B1B68002B5D
S21400121002D0044B1B68984700BF0837BD4680BD08
S214001220E06200201008002080B483B000AF0346C0
S214001230FB71FA79034B1A7000BF0C37BD465DF898
S214001240047B7047EC07002080B483B000AF786062
S214001250044A7B68136000BF0C37BD465DF8047B0C
S214001260704700BF3408002080B5C2B000AFF860F9
S214001270084611463A1D13600346FB720B46BB72C6
S2140012803B1D1B68002B0AD03B1D1B681B7A002BDE
S21400129005D0FB68002B02D0FB7A002B01D100237F
S2140012A008E1874AD7F810311360864A3B1D1B6851
S2140012B01360854AFB681360844AFB7A1370FB7AD6
S2140012C01946F868FFF730FB034683F00103DBB2EC
S2140012D0002B01D00023EDE07D4ABB7A13707D4BD6
S2140012E01B689B699A787C4B1A707B4B1B7803F0C3
S2140012F00703DBB2002B05D0754B1B78002B01D003
S214001300012300E0002303F00103DBB21A466F4915
S2140013106D48FFF723FB034683F00103DBB2002B87
S21400132001D00023C6E007F1E8031D21184607F0A8
S21400133059FA002387F80631002387F80531002381
S21400134087F8073149E03B1D1B685A6897F8073154
S2140013509B001344DB78012B13D03B1D1B685A6897
S21400136097F807319B001344DB78022B09D03B1D0E
S2140013701B685A6897F807319B001344DB78032BE9
S21400138005D197F80631013387F806311CE03B1D7E
S2140013901B685A6897F807319B001344DB78002BCC
S2140013A012D197F80531013387F805313B1D1B68CC
S2140013B05A6897F807319B0013441A7807F1E80338
S2140013C01146184607F0F6F997F80631012B0CD8A7
S2140013D097F80731013387F807313B1D1B681B7AE6
S2140013E097F807219A42AED300E000BF3B4B00229D
S2140013F01A703B4B00221A7007F114030A33AA2214
S2140014000021184624F06EF9FA7A07F114030A331D
S214001410F968184624F05BF9324BBB61FB7A7B77A0
S21400142097F80631012B24D9022387F8C930FF2309
S21400143087F8C83000233B77264B1B689B699B7850
S214001440184600F073F9034687F8CA30244B022288
S2140014501A7004233B751F4B1B681B6807F11401A9
S214001460002218460BF0D8FC0346002B21D00023A0
S21400147020E097F80531012B18D903233B7507F1B7
S214001480E80107F11403B4331D22184624F01FF9AF
S214001490104B1B681B6807F11401002218460BF05E
S2140014A0BBFC0346002B04D0002303E0002000F022
S2140014B029F80123184607F58477BD4680BD00BF8E
S2140014C0E4620020280800202008002024080020CD
S2140014D02E080020340800202F0800202D080020A9
S2140014E030080020E914000080B582B000AF034643
S2140014F03960FB71002000F005F800BF0837BD46D4
S21400150080BD000080B586B000AF78600023FB7514
S214001510594B1B78002B1ED0584B1B681A7A564B1B
S2140015201B789A4202D10123FB7501E00023FB756C
S2140015307B681A78524B1A70514AFB7D93707B6811
S2140015405A784F4B5A704F4B1B68002B03D04D4BAD
S2140015501B684B489847494B1B681A7A464B1B78C2
S2140015609A4240F28580454B1B685B783B73464B3E
S2140015701B787B73404B1B78002B0AD1424B1B78A1
S21400158003F00203002B04D07B7B43F00403DBB2A2
S2140015907B733A4B1B689B78BB73384B1B685A6847
S2140015A0354B1B789B0013443B613B691A78344BE0
S2140015B01A70364B1B7803F00703DBB2002B0CD0F7
S2140015C0334B1B78002B08D03B695B7823F07F03F6
S2140015D0DBB2002B01D1012300E0002303F001035E
S2140015E0DBB21A462B492C48FFF7B8F9034683F0BE
S2140015F00103DBB2002B11D0214B00221A70204BC6
S21400160002225A701E4B01229A701E4B1B68002B3A
S2140016102BD01C4B1B681A48984726E01E4B1868B0
S2140016201C4B197807F10C021C4BFFF75BFC0346BA
S214001630BB75BB7D002B11D0114B00221A70104BCE
S21400164002225A700E4B01229A700E4B1B68002B1A
S2140016500DD00C4B1B680A48984708E0064B1B78D1
S2140016600133DAB2044B1A7002E000BF00E000BF9C
S2140016701837BD4680BD00BF2D0800202808002072
S21400168038080020E4620020300800202F080020E0
S2140016902E08002024080020200800200515000041
S2140016A080B500AF034B01221A700020FFF72AFF17
S2140016B000BF80BD2C08002080B483B000AF7860E7
S2140016C03960064A7B681360054A3B68136000BFB2
S2140016D00C37BD465DF8047B704700BF4C08002001
S2140016E05008002080B582B000AF786039600B4AA1
S2140016F07B6813600A4A3B6813600A4B1B681A78BB
S214001700094B1A70084B1B78184600F0D5F8FFF7FF
S214001710DFF8012318460837BD4680BD3C08002088
S2140017205408002050080020E862002080B483B0EF
S21400173000AF0346FB71FB7903F00403DBB2002B1A
S21400174001D0032316E0FB7903F00203DBB2002B83
S21400175001D002230EE0FB7903F00103DBB2002B7D
S21400176001D0012306E097F90730002B01DA0423A5
S21400177000E0002318460C37BD465DF8047B704732
S21400178080B400AF034B00221A7000BFBD465DF860
S214001790047B7047E862002080B582B000AF034645
S2140017A0FB71094AFB791370FB79184600F084F840
S2140017B0064B1B68002B02D0044B1B68984701237E
S2140017C018460837BD4680BDE86200205408002051
S2140017D0F0B58BB004AF786039603B6804337B614A
S2140017E03B6893F8A430FB743B68A833FB60FB6847
S2140017F0D87A7B691C787B695D78194B1B681E69F3
S214001800174B1B681B7D164A52681549097A0291C8
S2140018100192009333462A462146FEF749FF0346C7
S214001820002B19D0FB681B7803F00C03002B03D0A9
S2140018300C4B00221A7002E00A4B01221A70FB7C45
S214001840FA6819467869FFF7F7FB074B1B68002B09
S21400185002D0054B1B68984700BF1C37BD46F0BD3D
S2140018603C0800204808002054080020F0B587B047
S21400187004AF0346FB710B46BB7113467B710D4BE1
S2140018801B681E690B4B1B681B7D0A4A5268094978
S214001890097ABD79FC7978790291019200933346F2
S2140018A02A462146FEF704FF034618460C37BD4677
S2140018B0F0BD00BF3C08002080B582B000AF0346F4
S2140018C0FB71FB79002B08D009F07AF9034618461D
S2140018D0FFF72CFF0346002B08D10B4B1A680A4B68
S2140018E0043392E8030083E8030008E0064B1A6816
S2140018F0054B0433083292E8030083E8030000BF78
S2140019000837BD4680BD00BF3C08002080B483B0C9
S21400191000AF03463960FB7197F90730002B0BDAEE
S2140019203B68DAB20C49FB7903F00F03043B520123
S214001930D2B20B441A7609E03B68DAB2074997F947
S21400194007305201D2B20B4483F8002300BF0C3795
S214001950BD465DF8047B704700ED00E000E100E066
S21400196080B400AFBFF34F8F054BDB6803F4E06233
S2140019700349044B1343CB60BFF34F8F00BFFDE713
S21400198000ED00E00400FA0580B485B000AF786092
S21400199039607B6803F10473DA003B6813449B00EC
S2140019A0FB60FB681B6818461437BD465DF8047B71
S2140019B0704780B485B000AF786039607B6803F10B
S2140019C0C063FB60FB683A681A6000BF1437BD4608
S2140019D05DF8047B704780B485B000AF78603960EE
S2140019E07B6803F18063FB60FB683A681A6000BF9F
S2140019F01437BD465DF8047B7047000080B483B0A2
S214001A0000AF7860044A7B68C2F8243400BF0C3705
S214001A10BD465DF8047B704700A0004080B400AF70
S214001A20034BD3F81C341846BD465DF8047B70475C
S214001A3000A0004080B582B000AF03463960FB715D
S214001A40FB79002B0DD0FB79012B0AD0FB79022BFA
S214001A5007D0FB79032B04D0FB79042B01D0FB794C
S214001A60052BFA7913465B0013441B011C3303F164
S214001A70804303F5204339681846FFF785FF034681
S214001A8018460837BD4680BD80B582B000AF034615
S214001A903960FB71FB79002B0DD0FB79012B0AD046
S214001AA0FB79022B07D0FB79032B04D0FB79042BA0
S214001AB001D0FB79052BFA7913465B0013441B0112
S214001AC00C3303F1804303F5204301213A6801FA01
S214001AD002F211461846FFF77EFF00BF0837BD46E4
S214001AE080BD80B582B000AF03463960FB71FB79DC
S214001AF0002B0DD0FB79012B0AD0FB79022B07D0E7
S214001B00FB79032B04D0FB79042B01D0FB79052B42
S214001B10FA7913465B0013441B010C3303F1804330
S214001B2003F5204301213A6801FA02F211461846ED
S214001B30FFF73FFF00BF0837BD4680BD80B400AF4B
S214001B40034B01221A6100BFBD465DF8047B704757
S214001B5000300E4080B582B000AF03460A46FB71E7
S214001B601346BB71BB79002B04D0FB79184607F0EF
S214001B7035FB03E0FB79184607F01EFB00BF08376D
S214001B80BD4680BD80B483B000AF0346FB71FB79D1
S214001B90062B0BD8FA790A4913465B001344DB0080
S214001BA00B441B78002B01D0012300E0002303F038
S214001BB00103DBB218460C37BD465DF8047B704760
S214001BC0C05A020080B582B000AF0346FB71FB79B5
S214001BD01846FFF7D7FF0346002B01D0012306E087
S214001BE040F23912044900200DF0B2FE00231846D8
S214001BF00837BD4680BD00BF585A020080B582B087
S214001C0000AF0346FB71FB791846FFF7DBFF034680
S214001C10002B09D0FA79074913465B001344DB0012
S214001C200B4408331B7800E0002318460837BD46EF
S214001C3080BD00BFC05A020080B582B000AF034628
S214001C40FB71FB791846FFF7BDFF0346002B09D052
S214001C50FA79074913465B001344DB000B440C3348
S214001C601B6800E0002318460837BD4680BD00BF4D
S214001C70C05A020080B483B000AF0346FB71FB7904
S214001C80062B0BD8FA790A4913465B001344DB008F
S214001C900B441B78002B01D0012300E0002303F047
S214001CA00103DBB218460C37BD465DF8047B70476F
S214001CB0685B020080B582B000AF0346FB71FB791B
S214001CC01846FFF7D7FF0346002B01D0012306E096
S214001CD04FF4B172044900200DF03AFE0023184676
S214001CE00837BD4680BD00BF585A020080B582B096
S214001CF000AF0346FB71FB791846FFF7DBFF034690
S214001D00002B09D0FA79074913465B001344DB0021
S214001D100B4408331B7800E0002318460837BD46FE
S214001D2080BD00BF685B020080B582B000AF03468E
S214001D30FB71FB791846FFF7BDFF0346002B09D061
S214001D40FA79074913465B001344DB000B440C3357
S214001D501B6800E0002318460837BD4680BD00BF5C
S214001D60685B020080B582B000AF0346FB71FB796A
S214001D701846FFF79FFF0346002B09D0FA7907495C
S214001D8013465B001344DB000B4410331B6800E073
S214001D90012318460837BD4680BD00BF685B0200B9
S214001DA080B582B000AF0346FB71FB791846FFF79B
S214001DB081FF0346002B0CD0FA79084913465B00D6
S214001DC01344DB000B4414331B78002B01D0012393
S214001DD000E0002318460837BD4680BD685B020059
S214001DE080B582B000AF03460A46FB711346BB714E
S214001DF0FB790E4AD35C012B14D10D4B1A68FB7984
S214001E000C4951F82330D31AB3F5967F0AD3FB79E1
S214001E10064A0221D154BB790333DBB201211846AE
S214001E20FFF798FE00BF0837BD4680BD9808002023
S214001E3094080020A008002080B584B000AF786029
S214001E400123FB73204B1B680A331F4A1360402193
S214001E500020FFF7C5FF45210120FFF7C1FF4A21FB
S214001E600220FFF7BDFF4F210320FFF7B9FF5421E3
S214001E700420FFF7B5FF59210520FFF7B1FF002327
S214001E80BB730AE0BB7B114AD35C002B02D0002355
S214001E90FB7305E0BB7B0133BB73BB7B052BF1D922
S214001EA0FB7B002B05D1084B1B6847F23052934250
S214001EB005D907480AF0F8FE064B00221A7000BF44
S214001EC01037BD4680BD00BF94080020980800204B
S214001ED0580800209008002080B582B000AF034666
S214001EE0FB710B46BB7113467B71BB79012B38D156
S214001EF0FB79274AD35C002B44D17B79002B12D088
S214001F00244B1B78DBB283F00103DBB2002B1DD021
S214001F10214B00221A600A2120480AF069FE1D4B58
S214001F2001221A7012E01D480AF0DBFE034683F019
S214001F300103DBB2002B09D0174B00221A600A21DE
S214001F4016480AF025FE134B01221A70FB79104A38
S214001F500121D154FB79104A1268114941F8232017
S214001F6010E0FB790A4AD35C002B0BD0FB79084AB9
S214001F700021D154084B1A68FB79094951F82330DF
S214001F80D31A00E0002318460837BD4680BD00BFC0
S214001F909808002090080020940800205808002088
S214001FA0A008002080B582B000AF0346FB71FB7925
S214001FB00A2B17D00A2B06DC072B0FD0092B21D0B3
S214001FC0062B07D022E0CD2B14D0CE2B16D00B2B11
S214001FD00CD01BE0002000F03EFA17E0012000F0D5
S214001FE03AFA13E0022000F036FA0FE0032000F081
S214001FF032FA0BE0042000F02EFA07E0052000F08D
S2140020002AFA03E0062000F09BFA00BF00BF08375C
S214002010BD4680BD80B586B000AF0346B9607A6025
S214002020FB7300237B61FB7B052B39D801A252F89A
S21400203023F000BF4D2000005B2000006920000058
S21400204077200000A120000085200000BB68032B3D
S2140020502DD14FF080737B6129E0BB680D2B28D112
S2140020604FF000737B6124E0BB680A2B23D14FF04E
S21400207080537B611FE0BB680E2B1ED14FF480138C
S2140020807B611AE0BB68022B03D14FF480337B617F
S21400209015E0BB68072B12D14FF400337B610EE0CE
S2140020A04FF41F72154900200DF052FC08E000BFE7
S2140020B006E000BF04E000BF02E000BF00E000BF93
S2140020C07B69002B14D000233B617B68012B01D178
S2140020D07B693B61396978690AF068F9084B9B6946
S2140020E023F03003064A43F020039361012300E007
S2140020F0002318461837BD4680BD00BF585A020058
S21400210000300E4080B586B000AF0346FB71FB7909
S2140021101846FFF7AFFD0346002B1CD0FB79184688
S214002120FFF7E4FD0346FB75FB791846FFF7FCFD59
S2140021303861FB791846FFF715FEF860FB68012B3F
S21400214014BF01230023DBB2BB60F87DBB6803220B
S21400215039690AF0E9F800BF1837BD4680BD0000AF
S21400216080B582B000AF0346FB71FB791846FFF7D7
S21400217029FD0346002B09D0FA79074913465B0070
S2140021801344DB000B4410331B6800E001231846A1
S2140021900837BD4680BD00BFC05A020080B582B079
S2140021A000AF0346FB71FB791846FFF70BFD0346AD
S2140021B0002B09D0FA79074913465B001344DB006D
S2140021C00B4414331B6800E0002318460837BD464E
S2140021D080BD00BFC05A020080B586B000AF03467F
S2140021E00A46FB711346BB71FB791846FFF7CAFC1B
S2140021F00346002B23D0FB791846FFF7FFFC034667
S214002200BB75FB791846FFF717FD3861FB79184652
S214002210FFF7A6FFF8600123FB75FB68012B14BFD0
S21400222001230023DBB2BB60BB79002B01D0042363
S214002230FB75FA7DB87DBB6839690AF075F800BF92
S2140022401837BD4680BD80B586B000AF03460A4647
S214002250FB711346BB71FB791846FFF793FC0346E8
S214002260002B26D0FB791846FFF7C8FC0346FB7503
S214002270FB791846FFF7E0FC3861FB791846FFF754
S2140022806FFFF860BB79002B02D1FB68012B05D0ED
S214002290BB79012B08D1FB68002B05D1FB7D396982
S2140022A01846FFF71EFC04E0FB7D39691846FFF769
S2140022B0EBFB00BF1837BD4680BD80B582B000AFCF
S2140022C00346FB71FB79012B10D0022B07D10023AC
S2140022D000224FF46171642000F026FC07E0002322
S2140022E000220021002000F01FFC00E000BF00BF1D
S2140022F00837BD4680BD000080B582B000AF0346FB
S214002300FB71FB791846FFF7D5FC0346002B09D076
S214002310FA79074913465B001344DB000B44153378
S2140023201B7800E0402318460837BD4680BD00BF36
S214002330685B020080B588B002AF0346FB71FB798C
S2140023401846FFF797FC0346002B48D0264B1B7811
S21400235083F00103DBB2002B14D0244A0121244869
S214002360FDF73EFF05F07FF905211220FFF7CEFAB4
S21400237005210A20FFF7CAFA1E4B00221A701A4BD4
S21400238001221A70FB791846FFF7B0FC0346FB756E
S214002390FB791846FFF7C8FC3861FB791846FFF74B
S2140023A0E1FCF860FB791846FFF7FAFC0346002BC1
S2140023B005D0FB7DFA6839691846FFF72BFEF87DD5
S2140023C0012301930123009301233A69396909F037
S2140023D05FFF3B69DBB20849184605F055F900BFB8
S2140023E01837BD4680BD00BFC0080020391E00005B
S2140023F05808002090080020A51F000080B586B071
S21400240000AF0346FB71FB791846FFF733FC034623
S214002410002B1BD0FB791846FFF768FC0346FB75BC
S214002420FB791846FFF780FC3861FB791846FFF702
S21400243099FCF860FB7D39691846FFF7FBFAB8602F
S214002440BA68FB689A4201D1012300E000231846CF
S2140024501837BD4680BD80B582B000AF0346FB711D
S214002460FB7900220121184600F004F800BF083767
S214002470BD4680BD80B584B000AF0346FB710B46F9
S214002480BB7113467B71FB791846FFF789FC034640
S214002490002B02D02948FFF7B1FAFB791846FFF760
S2140024A0ADFF0346012B06D1BA79FB790121184608
S2140024B0FFF712FD3EE0FB791846FFF71DFF0346C7
S2140024C0FB737B79002B08D0FB7B0233DBB2BA7937
S2140024D011461846FFF73EFB2CE0BA79FB7900213F
S2140024E01846FFF7F9FCB860BB6841F288329342A1
S2140024F008D9FB7B0433DBB2BA7911461846FFF7DE
S21400250029FB17E0BB68142B14D9BB68B3F5967F7C
S21400251008D2FB7B0233DBB2BA7911461846FFF7C6
S21400252019FB07E0FB7B0133DBB2BA79114618468C
S214002530FFF710FB00BF1037BD4680BD0000131329
S21400254080B582B000AF0346FB71FB790022012103
S214002550184600F005F800BF0837BD4680BD0000ED
S21400256080B582B000AF0346FB710B46BB711346C5
S2140025707B71BB79002B09D0FB791846FFF710FC5E
S2140025800346002B02D02048FFF738FAFB7918469E
S214002590FFF734FF0346012B15D11C4B1B7883F045
S2140025A00103DBB2002B2BD0FB791846FFF7A4FE05
S2140025B003461A46BB7919461046FFF7CBFA134B6B
S2140025C001221A701CE07B79002B0AD0FB79184692
S2140025D0FFF792FE03461A46BB7919461046FFF7E8
S2140025E0B9FAFB791846FFF787FE03460133DBB2DC
S2140025F0BA7911461846FFF7ADFA044B00221A7056
S21400260000BF0837BD4680BD00001313C108002078
S21400261080B582B000AF0121244808F06DFC244B41
S21400262000221A600023FB710FE0FB791846FFF7C3
S21400263069FDFB791F4A0021D154FB791E4A00210F
S21400264042F82310FB790133FB71FB79062BECD99A
S214002650FFF774FAFFF7E2F903461B0C1B04174A50
S2140026601360164B1B681846FFF7C8F900233B603B
S21400267008E03B68DBB201211846FFF7ADFD3B687A
S21400268001333B603B68062BF3D901230422052166
S214002690002009F049FE0123002200210020FEF759
S2140026A0D5F9002318460837BD4680BD003508001A
S2140026B09408002098080020A0080020BC080020ED
S2140026C080B500AFFFF74CF900BF80BD80B582B083
S2140026D000AF01210120FFF7B6FD00210220FFF721
S2140026E0B2FD00237B6002E07B6801337B607B6881
S2140026F00A4A9342F8DD00210120FFF7A4FD0121DC
S2140027000220FFF7A0FD00233B6002E03B68013398
S2140027103B603B68014A9342F8DDDAE73F420F0030
S21400272080B584B000AF0346FB71FB79642B00F2E2
S214002730DC8001A252F823F0CD280000D728000044
S214002740E1280000E1280000EB280000CD2800006A
S214002750D7280000CD280000CD280000EB28000078
S214002760EB280000EB280000EB280000EB28000018
S214002770EB280000EB280000EB280000EB28000008
S214002780EB280000EB280000EB280000EB280000F8
S214002790EB280000EB280000EB280000EB280000E8
S2140027A0EB280000EB280000EB280000EB280000D8
S2140027B0EB280000EB280000E1280000E1280000DC
S2140027C0EB280000EB280000EB280000EB280000B8
S2140027D0EB280000EB280000EB280000EB280000A8
S2140027E0EB280000EB280000EB280000EB28000098
S2140027F0EB280000EB280000EB280000EB28000088
S214002800EB280000EB280000EB280000EB28000077
S214002810EB280000EB280000EB280000EB28000067
S214002820EB280000EB280000EB280000EB28000057
S214002830EB280000EB280000CD280000CD28000083
S214002840D7280000D7280000CD280000CD2800009B
S214002850CD280000EB280000EB280000EB28000045
S214002860EB280000EB280000EB280000EB28000017
S214002870EB280000EB280000EB280000EB28000007
S214002880EB280000EB280000EB280000EB280000F7
S214002890EB280000EB280000EB280000EB280000E7
S2140028A0EB280000EB280000EB280000EB280000D7
S2140028B0EB280000EB280000E1280000E1280000DB
S2140028C0CD280000CD280000CD2800000123FB7392
S2140028D00023BB7310E00023FB730123BB730BE0E4
S2140028E00023FB730023BB7306E0FB7919460B48F5
S2140028F00DF03AF800230CE0FB7B04220E210120A9
S21400290009F012FDBB7B04220F21012009F00CFD0B
S214002910012318461037BD4680BD00BF105C02007C
S21400292080B584B000AF0346FB710123FB60FB79E2
S2140029301846FFF7F5FEF860FB6818461037BD46E8
S21400294080BD000080B483B000AF0346FB71FB7906
S21400295003F01F02074997F907305B09012000FAC8
S21400296002F241F8232000BF0C37BD465DF8047B19
S214002970704700BF00E100E080B483B000AF0346BC
S2140029803960FB7197F90730002B0BDA3B68DAB237
S2140029900C49FB7903F00F03043B5201D2B20B44FF
S2140029A01A7609E03B68DAB2074997F90730520110
S2140029B0D2B20B4483F8002300BF0C37BD465DF847
S2140029C0047B704700ED00E000E100E080B483B0D7
S2140029D000AF786039607B683A689A6200BF0C374F
S2140029E0BD465DF8047B704780B483B000AF786066
S2140029F039607B68DA6A3B681A437B68DA6200BF34
S214002A000C37BD465DF8047B704780B483B000AFDA
S214002A1078607B681B6A18460C37BD465DF8047BF9
S214002A207047000080B586B000AF0346FB71374B99
S214002A301B7883F00103DBB2002B62D0FB79012107
S214002A401846FFF7C9FB0121314808F007F90A21AB
S214002A50304808F01FFE04212F4808F041FC0121F1
S214002A602E4808F049FA01212B4808F045FA0821BB
S214002A702B48FFF7B9FF07211B20FFF77DFF1B2020
S214002A80FFF760FFFB791846FFF788FB7861244B59
S214002A901B6C234A23F001031364214B5B6C23F069
S214002AA01F021F497B6913434B64FB791846FFF7E7
S214002AB057FB0346002B0CBF01230023DBB21A464C
S214002AC0184B1A6000233B7200237B720023BB72F4
S214002AD00023FB72134B1B68DBB23B73114B1B6866
S214002AE0DBB27B730023BB730023FB7300233B74B2
S214002AF007F1080319460A4804F06EFE034B01224C
S214002B001A7000BF1837BD4680BD00BFC20800203F
S214002B10C408002002001A00600614000025080001
S214002B2000600440DC08002080B58CB000AFF86080
S214002B30B9607A60FB704D4B1B7883F00103DBB203
S214002B40002B06D094224A4900200CF001FF0023F7
S214002B5088E0FB68032B10D8464B1B6C454A23F0D5
S214002B60010313640021434804F020FE424B002278
S214002B701A70424808F095F873E0FA68BB68134488
S214002B80FA2202FB03F33E4AA2FB03239B097B6265
S214002B90BB68FA2202FB03F3394AA2FB03239B0914
S214002BA03B62002387F82F300123BB627B68002B33
S214002BB004D0012387F82F307B68BB627B6AB3F5AD
S214002BC0803F03D2BB6AB3F5803F06D3BD222849B7
S214002BD000200CF0BDFE002344E07A6A0021254860
S214002BE004F0BAFD7A6A3B6AD31A1A4601212148D4
S214002BF004F0B2FDBA6A00211E4804F057FE012216
S214002C0001211C4804F052FE1A4B1C225A60012374
S214002C103B7500237B750123BB750023FB75194BA1
S214002C201B68DBB23B76174B1B68DBB27B76032355
S214002C30BB760323FB7697F82F303B770D4B1B6C48
S214002C400C4A43F00103136407F1140319460948BC
S214002C5004F0C2FD084AFB7813700021074808F00C
S214002C600FF8012318463037BD4680BDC208002045
S214002C704C5C020000600440C3080020C40800202A
S214002C80D34D6210DC08002080B400AF034B1B78E5
S214002C901846BD465DF8047B704700BFC308002099
S214002CA080B500AF0E48FFF7B0FE034603F00803FA
S214002CB0002B13D008210A48FFF788FE084B1B6C30
S214002CC0074A23F0010313640021054804F06EFD53
S214002CD0044B00221A70044807F0F3FF00BF80BDC3
S214002CE000600440C3080020C408002080B582B0FD
S214002CF000AF134A00211348FDF772FA034683F02B
S214002D000103DBB2002B01D0002314E00023FB718B
S214002D100DE0FB790C4A002142F83310FB790A4A91
S214002D20DB00134400225A60FB790133FB71FB7908
S214002D30022BEED9012318460837BD4680BD00BFDA
S214002D40052F0000EC620020E008002080B58EB061
S214002D5000AFF860B9601346FB71FB68002B02D029
S214002D60BB68002B01D10023C4E0BB68FB62FA6A93
S214002D7007F120031068186092889A8007F12003F4
S214002D801846FEF7F9F90346002B01D00123B1E0FF
S214002D900023FB610023FB7607F11B0307F11C02EF
S214002DA00021012001F05EF8FB7E002B01D10123FB
S214002DB0A0E0FB7E012B13D197F82220FB691B783D
S214002DC09A420DD197F82330C3F30603DAB2FB69B3
S214002DD05B78C3F30603DBB29A4201D1012389E094
S214002DE0002387F83730002387F83630FB79002B2E
S214002DF03BD0424809F075FF0346002B35D0002330
S214002E0087F835302DE097F835303D4A52F83330A4
S214002E10FA689A4220D197F83530394ADB001344D5
S214002E205B68BB62BA6A07F1140310681860928880
S214002E309A807B7EC3F30603DAB297F82530C3F395
S214002E400603DBB29A4207D1012387F8363097F89B
S214002E50353087F8373008E097F83530013387F893
S214002E60353097F83530022BCDD997F83630002B11
S214002E7003D0224809F0EDFE3BE0002387F834300B
S214002E80002387F83730002387F8333013E097F8AD
S214002E9033301B4A52F83330002B07D1012387F812
S214002EA0343097F8333087F8373008E097F8333007
S214002EB0013387F8333097F83330022BE7D997F889
S214002EC0343083F00103DBB2002B01D0002311E085
S214002ED0FA210A4809F05CFE97F83730FA68084984
S214002EE041F8332097F83730054ADB001344BA68B8
S214002EF05A60012318463837BD4680BDEC62002074
S214002F00E008002090B58BB000AF78607B68524A2E
S214002F10934240F09D800023FB610023FB7607F17F
S214002F201B0307F11C020021012000F09BFF002379
S214002F3087F8273086E097F82730484A52F833302B
S214002F40002B6DD097F82730444ADB0013445B68AB
S214002F50002B14BF01230023DBB2BD2240491846D4
S214002F600CF0F6FC97F827303C4ADB0013445B680D
S214002F703B623A6A07F114031068186092889A80D8
S214002F80002387F8263046E0BA7DF96997F82630A0
S214002F909B000B441B789A420ED1FB7DC3F30603BD
S214002FA0DAB2F96997F826309B000B445B78C3F3D6
S214002FB00603DBB29A4229D0FA6997F826309B00BE
S214002FC013443B617B7EC3F30603DBB2BB7325234E
S214002FD03B733B7D03F00203002B04D03B7B43F0A6
S214002FE00203DBB23B7300237B7397F827301B4A40
S214002FF052F8334097F82730184ADB0013445B68D2
S2140030001A4607F10C0393E80300A04797F826300A
S214003010013387F82630FB7E97F826209A42B3D3F2
S21400302097F827300D4A002142F8331097F82730DA
S2140030300A4ADB00134400225A6097F8273001330F
S21400304087F8273097F82730022B7FF674AF00E01A
S21400305000BF2C37BD4690BDEC620020E008002083
S214003060B85C020080B5B4B000AFF860B960134633
S214003070FB7107F120030833C7F8CC30BB685B78D8
S214003080013B0A2B00F2DB8001A252F823F000BFBE
S21400309023310000BD3000003F3200004731000001
S2140030A0773100003F3200003F3200003F32000020
S2140030B03F3200003F320000E1310000F868FEF7C2
S2140030C037F80346002B01D00223B9E0A0220021E6
S2140030D0D7F8CC0022F006FBFB685B79C3F3060347
S2140030E0DBB21846B96807F11B03D7F8CC2001F00D
S2140030F005FE07F11C031946F868FDF7C5FFF97EC3
S214003100FA690023D7F8CC00FDF744FF034687F89A
S214003110CB3097F8CB30002B01D0022390E0FF2372
S2140031208EE0FB685B79C3F30603DBB21846FB79D7
S2140031301A46B96801F0A8FC0346002B01D1022309
S2140031407EE0FF237CE0FB79022B01D8022377E0A8
S214003150BB689878FB685B79C3F30603DBB2194655
S214003160FB79BA6800F0F4FF0346002B01D1022376
S21400317066E0FF2364E0F868FDF7DAFF034683F0B5
S2140031800103DBB2002B29D0A0220021D7F8CC0007
S21400319022F0A8FA07F114031946F868FDF774FF41
S2140031A0D7F8CC3085221A70D7F8CC3006225A7061
S2140031B0FB685B79C3F30603DBB2184600F0EDFE4E
S2140031C003461A46D7F8CC309A707A690023032152
S2140031D0D7F8CC00FDF7DEFEFF2331E002232FE018
S2140031E0F868FDF7A5FF034683F00103DBB2002B6A
S2140031F023D0A0220021D7F8CC0022F073FA07F1E2
S21400320010031946F868FDF73FFFD7F8CC30852243
S2140032101A70D7F8CC300C225A7000F017FC034610
S2140032201A46D7F8CC309A703A6900230321D7F8AB
S214003230CC00FDF7AFFEFF2302E0022300E00023F0
S2140032401846D037BD4680BD80B5ACB000AF3B1D3C
S2140032500833C7F8AC30A0220021D7F8AC0022F023
S21400326041FAD7F8AC30002B01D100233AE03B46B8
S21400327019461E48FDF708FFD7F8AC3059221A70D9
S214003280D7F8AC3004225A70194B1B78022B01D1A8
S214003290802200E00022D7F8AC309A70D7F8AC3025
S2140032A09B7843F00103DAB2D7F8AC309A70114B32
S2140032B018780E4B5B79C3F30603DBB21946D7F8D2
S2140032C0AC3003331A4600F0F1FA3A680A4B0A218A
S2140032D0D7F8AC00FDF75EFE0346002B01D00023B6
S2140032E000E001231846B037BD4680BDFC0800202C
S2140032F0FA080020F80800201133000080B582B0DC
S21400330000AF7860FFF7A0FF00BF0837BD4680BD5E
S21400331090B583B000AF0346FB71114B1B78022BB0
S21400332017D1104B1C78631CDAB20E4B1A700E4B7A
S2140033301B78184600F0A0FA03469C4209D20B4AB6
S21400334000210B48FCF74CFF0A21094809F020FC35
S21400335002E0034B00221A700C37BD4690BD00BF3A
S214003360FA080020F8080020F9080020FD320000C6
S2140033700409002080B5B2B000AFF860B96013460B
S214003380FB7107F114030833C7F8C430F868FDF77B
S214003390CFFE0346002B01D00223FCE0BB685B781F
S2140033A0032B49D0052B00F08B80012B40F0EF80DB
S2140033B0A0220021D7F8C40022F094F9FB79032B51
S2140033C001D00223E7E0D7F8C43059221A70D7F8A4
S2140033D0C43002225A70BB689B7887F8C13097F8D1
S2140033E0C120D7F8C4309A70D7F8C430181D97F8A3
S2140033F0C110FB685B79C3F30603DBB21A4600F024
S214003400E3F9034687F8C230D7F8C43097F8C220ED
S214003410DA7007F1BC031946F868FDF735FE97F831
S214003420C2300433D9B2D7F8BC200023D7F8C40082
S214003430FDF7B0FDFF23AEE0594B1B78002B01D003
S2140034400223A8E0BB689B7803F04003002B0ED055
S214003450534B02221A70534B01221A70FB685B7999
S214003460C3F30603DBB21A464F4B1A700EE04C4B02
S21400347001221A70BB68DA784A4B1A70FB685B79CF
S214003480C3F30603DBB21A46474B1A70444B1B784D
S214003490002B13D00622F968444822F018F9FFF7EB
S2140034A0D3FE034683F00103DBB2002B04D03C4B73
S2140034B000221A7002236EE0FF236CE002236AE00B
S2140034C0A0220021D7F8C40022F00CF9BB68DB78F4
S2140034D087F8C130FB685B79C3F30603DBB21A4694
S2140034E007F1C1031946104600F052FC97F8C120B8
S2140034F0FB685B79C3F30603DBB21946104600F09F
S2140035006DFA034687F8C33097F8C330002B01D115
S214003510022340E007F1BC031946F868FDF7B4FD46
S214003520D7F8C43059221A70D7F8C43006225A7019
S21400353097F8C120D7F8C4309A70D7F8C43097F8F7
S214003540C320DA70D7F8C430181D97F8C110FB688E
S2140035505B79C3F30603DBB21A4600F0EDF90346C7
S21400356083F00103DBB2002B01D0022313E097F8AF
S214003570C3300433D9B2D7F8BC200023D7F8C40030
S214003580FDF708FD0346002B03D0022303E00023CB
S21400359001E000BFFF231846C837BD4680BD00BF08
S2140035A0FA080020F8080020F9080020FC0800208F
S2140035B080B5B2B000AFF860B9601346FB7107F192
S2140035C018030833C7F8C430BB685B78013B042B8C
S2140035D000F2988001A252F823F000BF4B3600009C
S2140035E0F1350000053700006F360000A1360000F8
S2140035F0F868FDF79DFD0346002B01D0022382E00C
S214003600A0220021D7F8C40022F06CF8FB685B7992
S214003610C3F30603DBB21846B96807F11303D7F8FD
S214003620C42001F06BFB07F114031946F868FDF798
S2140036302BFDF97C7A690023D7F8C400FDF7AAFCB5
S214003640034687F8C330FF235DE0FB685B79C3F36E
S2140036500603DBB21846FB791A46B96801F014FA7D
S2140036600346012B01D002234DE0FF234BE0FB79FC
S214003670022B02D1BB6800229A70BB689878FB6860
S2140036805B79C3F30603DBB21946FB79BA6800F030
S2140036905FFD0346002B01D1022334E0FF2332E016
S2140036A0F868FDF745FD0346002B01D002232AE00B
S2140036B0A0220021D7F8C40022F014F807F1140362
S2140036C01946F868FDF7E0FCD7F8C4308E221A7069
S2140036D0D7F8C43006225A70FB685B79C3F306033A
S2140036E0DBB2184600F059FC03461A46D7F8C43039
S2140036F09A707A6900230321D7F8C400FDF74AFCC4
S214003700FF2300E000231846C837BD4680BD00BF33
S21400371090B585B000AF0023FB73154A3B1D07CA62
S21400372003C31A70134B01221A703C220021124860
S21400373021F0D8FF0023FB7312E0FB7B342202FB50
S21400374003F30D4A9C183B1D184622F007F8024664
S2140037503B1D1946204621F0BAFFFB7B0133FB7365
S214003760FB7B002BE9D000BF1437BD4690BD00BFE1
S2140037702C5D0200380000203C09002080B483B095
S21400378000AF78600B46FB701346BB70BB78002B0F
S21400379012D1BB780B4A342101FB03F313442C33BC
S2140037A07A681A60BB78074A342101FB03F3134496
S2140037B03033FA781A7000E000BF0C37BD465DF86B
S2140037C0047B70473C09002090B589B000AF786054
S2140037D00B46FB701346BB700023FB76244B07F1A9
S2140037E00C040FCB07C423807B68002B02D0BB7869
S2140037F0002B01D0FB7E37E0FA78BB781D490633F4
S214003800DB000B441B7A01339A4202DCFB78002B68
S21400381003D107F10C03FB611AE0FB78012B07D1FB
S214003820BB78342202FB03F3124A1344FB610FE019
S214003830BB78104A0633DB0013445968FA781346FF
S214003840DB009B1ADA00D31A623B0B440733FB619A
S214003850F86921F083FF0346FB76FB7E1A46F9697A
S214003860786821F034FFFB7E18462437BD4690BDAD
S214003870385D02003C09002080B483B000AF0346E8
S214003880FB71FB79002B01D0002307E0FB79064A89
S2140038900633DB0013441B7A0133DBB218460C37C1
S2140038A0BD465DF8047B70473C09002080B582B0B9
S2140038B000AF03463A60FB710B46BB71FA1DBB793D
S2140038C01146184600F064FAFA793B681A70FB79DC
S2140038D0012B06D13B6800229A703B680122DA7001
S2140038E023E0BB79134A0633DB0013445A68FB799E
S2140038F019460B46DB005B1AD900CB1A623B134411
S2140039001A783B689A70BB790A4A0633DB00134480
S2140039105A68FB7919460B46DB005B1AD900CB1AAE
S214003920623B13445A783B68DA7000BF0837BD46DE
S21400393080BD00BF3C09002080B582B000AF786033
S2140039400B46FB701346BB70BB78002B01D00023E0
S2140039503EE0FB78012B16D1BB781F4A342101FBD1
S21400396003F313442C331868BB781B4A342101FB3D
S21400397003F3134430331B785B001A46014678681D
S21400398021F0A5FE23E0BB78134A0633DB00134480
S2140039905968FA781346DB009B1ADA00D31A623BA2
S2140039A00B44D81CBB780C4A0633DB00134459681A
S2140039B0FA781346DB009B1ADA00D31A623B0B44F4
S2140039C09B785B001A460146786821F080FE01234A
S2140039D018460837BD4680BD3C09002080B485B037
S2140039E000AF03460A46FB711346BB710023FB7308
S2140039F0BB79002B01D000231FE0FB79012B0AD1F5
S214003A00BB79114A342101FB03F3134430331B788E
S214003A105B00FB7310E0BB790B4A0633DB001344F4
S214003A205968FA791346DB009B1ADA00D31A623B10
S214003A300B449B785B00FB73FB7B18461437BD4634
S214003A405DF8047B704700BF3C09002080B400AFDF
S214003A50034B1B781846BD465DF8047B704700BFD5
S214003A603800002080B483B000AF78600B46FB704F
S214003A700B4AFB7893700A4B25225A707B685B686A
S214003A80074A53607B681A7A054B1A72044B002269
S214003A901A70034B18460C37BD465DF8047B70471A
S214003AA08409002080B485B000AFB881B9601346A1
S214003AB0FB7102E0FB79013BFB713A7BFB7903F17A
S214003AC00043013B5B00B9680B441B789A4203D065
S214003AD0FB79013B002BEDDC3A7BFB7903F10043DD
S214003AE0013B5B00B9680B441B789A4201D1012365
S214003AF000E0002318461437BD465DF8047B704787
S214003B0080B586B000AFB88139817A600023FB7536
S214003B100023FB7546E0397B7B681868FA7D134600
S214003B20DB009B1ADA00D31A03441B78994236D17D
S214003B30797B7B681868FA7D1346DB009B1ADA00EF
S214003B40D31A03445B78994229D10023BB7519E048
S214003B507B681968FA7D1346DB009B1ADA00D31AD5
S214003B60CA18BB7D5B001344033301221946B868AC
S214003B70FFF798FF0346002B01D0FB7D18E0BB7DC6
S214003B800133BB757B681968FA7D1346DB009B1A08
S214003B90DA00D31A0B449B78BA7D9A42D8D3FB7DC1
S214003BA00133FB757B681B79FA7D9A42B3D3FF23FA
S214003BB018461837BD4680BD80B588B000AFF8609F
S214003BC0B9601346FB710023FB770023FB750023C7
S214003BD0BB61694B00225A60674B00221A72664A24
S214003BE0FB791370FB79002B01D00023C0E0FB7932
S214003BF0624A342101FB03F313442C331868FB7923
S214003C005E4A342101FB03F3134430331978BB6852
S214003C101A785B781B021A43002362F30F030A46E6
S214003C2001461846FFF73EFF0346002B1BD0544BB9
S214003C30544A0021012000F015F90346BB75BB7DF0
S214003C40002B06D04C4B00225A604B4B00221A72B7
S214003C5009E04D4B01221A70474B1B78194646481F
S214003C60FFF700FFB861FB790633DB00434A1344D5
S214003C70181DBA68FB681178527812020A430021B0
S214003C8062F30F011A785B781B021A43002362F373
S214003C900F0302461846FFF733FF0346FB75FB7D0E
S214003CA0FF2B58D0344B5B68002B11D0324B1B7A5D
S214003CB0FB77314B5968304B1B7A9B001A463348CA
S214003CC021F005FD2C4B00225A602B4B00221A7265
S214003CD0FB7D0233D8B2F979294B2A4A00F0C2F8A4
S214003CE00346BB75BB7D002B10D0FB7F002B06D098
S214003CF0214B264A5A60204AFB7F13722BE01E4B4C
S214003D0000225A601C4B00221A7224E0FB7F002B14
S214003D1015D0FB7F9B001D4A9818174B5968164B09
S214003D201B7A9B001A4621F0D2FC134B174A5A60A6
S214003D30114B1A7AFB7F1344DAB20F4B1A72FB7DD3
S214003D400233DAB2104B1A700B4B1B7819460A482E
S214003D50FFF788FEB861BB69002B08D0FB791B0112
S214003D60DAB2094B1B781344DAB2BB691A70BB6926
S214003D7018462037BD4680BD780900203C09002043
S214003D80800900207C0900203800002090090020CF
S214003D9080B483B000AF03463960FB713B681B7884
S214003DA0002B0BD03B681B781946FB79084A063374
S214003DB0DB0013441B7A0133994202DD3B68012283
S214003DC01A7000BF0C37BD465DF8047B704700BF15
S214003DD03C09002080B584B000AF0346FB710B465B
S214003DE0BB7113467B710523BB607B79FB731DE0BB
S214003DF0BA79FB79F97B1A4413469B0013440B44AB
S214003E009B00174A9818BA79FB79F97B01311A4456
S214003E1013469B0013440B449B00114A1344042290
S214003E20194621F054FCFB7B0133FB73FA7BBB681D
S214003E30013B9A42DCD3BA79FB79B96801391A4456
S214003E4013469B0013440B449B00054A134404226C
S214003E500021184621F046FC00BF1037BD4680BD45
S214003E60B809002080B586B000AFBA607B60034614
S214003E70FB730B46BB73BB7B012B01D9062352E0B9
S214003E80BB68002B01D103234DE07B68002B01D1DA
S214003E90032348E0FB7BBA7B1146184600F04AF83D
S214003EA0034683F00103DBB2002B01D007233AE080
S214003EB007F10F0207F10E031146184600F0D4FE74
S214003EC0BB7B1A46FB7B013B1A4413469B001344FC
S214003ED09B00174A1A44BB681A607B6805221A7052
S214003EE00023FB7515E0BB7B1A46FB7B013BF97D87
S214003EF00F481A4413469B0013440B4410F8233013
S214003F00002B03D17B68FA7D1A7005E0FB7D013338
S214003F10FB75FB7D042BE6D97B681B78002B01D153
S214003F20022300E0002318461837BD4680BD00BFB8
S214003F30B809002080B582B000AF03460A46FB7180
S214003F401346BB71FB79002B09D0BB791846FFF7E7
S214003F5093FC03461A46FB79013B9A4201DC002398
S214003F6000E0012318460837BD4680BD80B483B004
S214003F7000AF03460A46FB711346BB71FB79012B63
S214003F8004D1BB79002B01D0002300E0052318469E
S214003F900C37BD465DF8047B704780B582B000AF35
S214003FA00346FB71FB791846FFF766FC0346184686
S214003FB00837BD4680BD0000F0B583B000AF3A605C
S214003FC01A460346FB710B46BB7113467B71FA1DFE
S214003FD0BB1D1146184600F047FE5B4B00221A70C8
S214003FE09FE0BB791C46FB79013B574A1278104686
S214003FF05649E21813469B001344034411F8232045
S2140040003B681B789A4233D1BB791C46FB79013B4F
S2140040104D4A127810464D49E21813469B00134449
S21400402003449B000B445B78C3F30603DAB23B6899
S2140040305B78C3F30603DBB29A4219D1BB791C4600
S214004040FB79013B404A127810464049E218134675
S2140040509B00134403449B000B445B78C3F3C013DC
S214004060DAB23B685B78C3F3C013DBB29A4210D077
S214004070BB791C46FB79013B334A1278104633491C
S214004080E21813469B001344034411F82330002B18
S21400409041D1BB791846FB79013B2B4A1278114671
S2140040A0C21813469B0013440B449B00274A134434
S2140040B002223968184621F00AFBBB791D46FB79B7
S2140040C0013B214A1278144678792049EA181346AB
S2140040D09B00134423449B000B4402469A7006F050
S2140040E06FFD03461A46BB791E46FB795C1E164BCF
S2140040F01B781D461046FDF719FB03461846134964
S214004100321913469B0013442B449B000B44024673
S214004110DA70012313E00C4B1B780133DAB20A4B3A
S2140041201A70FB79BA7911461846FFF71FFF034647
S2140041301A46054B1B789A423FF653AF00231846A3
S2140041400C37BD46F0BD00BF25630020B80900202F
S21400415080B58AB000AF3A601A460346FB710B463C
S214004160BB7113467B713B683B62BB79012B05D85C
S214004170FB79012B04D1BB79002B01D000239CE0F6
S214004180BB791846FFF778FB0346FB77FB79002BD5
S2140041905CD0FB79FA7F9A4258D3FA1DBB1D1146B4
S2140041A0184600F061FD7B79032B07D07B79042B42
S2140041B03AD13B6A03331B78002B35D1002387F8AE
S2140041C027302CE03B6A1B78852B10D1BB791A462A
S2140041D0FB79013B97F827103A481A4413469B0090
S2140041E013440B449B0003449B78012B12D0BB79ED
S2140041F01A46FB79013B97F827101A4413469B0092
S21400420013440B449B002F4A1344042200211846F3
S21400421021F068FA97F82730013387F8273097F8A7
S2140042202730042BCED90EE07A7907F10C00002354
S214004230396800F0B6FC3B6A1878B979FA7907F164
S2140042400C0300F041F800F0BDFB35E0FB79002BD5
S21400425030D17A7907F10C000023396800F0A1FC10
S2140042600023BB7120E0BB791846FFF705FB034629
S214004270FB77012387F826300DE03B6A1878B9797A
S21400428007F10C0397F8262000F01EF897F8263062
S214004290013387F8263097F82620FB7F9A42ECD920
S2140042A0BB790133DBB2BB71BB79002BDBD000F0EE
S2140042B089FB01E0002300E0012318462837BD46AD
S2140042C080BD00BFB809002080B584B000AF3B6059
S2140042D00346FB710B46BB7113467B713B681B792B
S2140042E0002B02D03B681B7900E00123BB73002340
S2140042F0FB735EE08B4B00221A7053E0BA797B7931
S214004300013B88490978084687491A4413469B00AA
S214004310134403449B000B449B78002B3CD13B6822
S2140043201B79002B03D13B681B7B002B14D0BA797A
S2140043307B79013B7B49097808467B491A4413463A
S2140043409B001344034411F823203B681968FB7B49
S2140043500B441B789A421FD1BA797B79013B71498D
S21400436009781A4413469B0013440B449B006E4A7C
S214004370134404220021184621F0B4F93B681B7947
S214004380002B09D07B79013BD8B2664B1A78BB79F3
S2140043901946FFF71FFD09E0624B1B780133DAB2BE
S2140043A0604B1A705F4B1B78042BA7D9FB7B01333D
S2140043B0FB73FA7BBB7B9A429CD3FB79852B00F080
S2140043C0AD803B681B7B002B02D03B681B7B00E06C
S2140043D00123BB730023FB739AE0524B00221A7032
S2140043E08EE0BA797B79013B4E49097808464E49FA
S2140043F01A4413469B00134403449B000B449B78CB
S214004400012B77D13B681B79002B03D13B681B7BC4
S214004410002B4FD0BA797B79013B42490978084690
S21400442041491A4413469B001344034411F82320C1
S2140044303B689968FB7B5B000B441B789A4259D11A
S214004440BA797B79013B37490978084636491A44D8
S21400445013469B00134403449B000B445B78C3F352
S2140044600603DAB23B689968FB7B5B000B445B781B
S214004470C3F30603DBB29A423CD1BA797B79013B9F
S21400448028490978084628491A4413469B001344CD
S21400449003449B000B445B78C3F3C013DAB23B685B
S2140044A09968FB7B5B000B445B78C3F3C013DBB2FD
S2140044B09A421FD1BA797B79013B1A4909781A4486
S2140044C013469B0013440B449B00174A13440422D4
S2140044D00021184621F006F93B681B7B002B09D00B
S2140044E07B79013BD8B20F4B1A78BB791946FFF798
S2140044F071FC0AE00B4B1B780133DAB2094B1A70D9
S214004500084B1B78042B7FF66CAFFB7B0133FB73E9
S214004510FA7BBB7B9A42FFF460AF00E000BF103727
S214004520BD4680BD25630020B8090020F0B58FB0D9
S21400453000AF0346FB71954B1B68002B14BF01238D
S2140045400023DBB24FF4C272914918460BF000FA12
S214004550FB79002B40F00E818C4B186807F11C028B
S2140045600F238C4905F00EFE38633B6B002B0CBF07
S21400457001230023DBB24FF4C572854918460BF0C1
S214004580E7F907F11C03FB62002387F83730EBE0FE
S214004590002387F83630DDE0002387F83530CFE09B
S2140045A097F8361097F8370097F8353097F8366052
S2140045B097F8375097F83540FA6A3A601A4652002C
S2140045C01A4403461B011B1A1A440B461B015B1AAE
S2140045D013443A68134418786F49721913469B00BF
S2140045E013442344024601F8232097F8361097F820
S2140045F0370097F8353097F8366097F8375097F8C1
S2140046003540FA6A3A601A4652001A4403461B01BD
S2140046101B1A1A440B461B015B1A13443A681344D0
S2140046205B78C3F30603D9B25B48721913469B0046
S214004630134423449B0003445A7861F306025A70DD
S21400464097F8361097F8370097F8353097F83660B1
S21400465097F8375097F83540FA6A3A601A4652008B
S2140046601A4403461B011B1A1A440B461B015B1A0D
S21400467013443A6813445B78C3F3C013D9B2464870
S214004680721913469B00134423449B0003445A7834
S21400469061F3C7125A7097F8361097F8370097F8F4
S2140046A03530FC6A1A4652001A4403461B011B1A90
S2140046B01A440B461B015B1A134423449B78C3F32E
S2140046C04013D8B297F8362097F8373097F8351059
S2140046D0044631481A4413469B0013440B449B007F
S2140046E0034422469A7097F8361097F8370097F8E2
S2140046F03530FC6A1A4652001A4403461B011B1A40
S2140047001A440B461B015B1A134423449B78C3F3DD
S2140047100303D8B297F8362097F8373097F8351055
S21400472004461D481A4413469B0013440B449B0042
S21400473003442246DA7097F83530013387F835306F
S21400474097F83530042B7FF62BAF97F836300133C9
S21400475087F8363097F83630002B3FF41DAF97F8C1
S2140047603730013387F8373097F83730002B3FF46F
S2140047700FAF1BE1002387F83730FDE0002387F8F2
S2140047803630EFE0002387F83530E1E0286300207C
S214004790485D020001100500B809002097F8362091
S2140047A097F8373097F8355097F8361097F837005F
S2140047B097F835407F4E1A4413469B0013442B440B
S2140047C016F8235022465200224403461B011B1AA9
S2140047D01A440B461B015B1A134407F138021344B4
S2140047E02C3B2A461A7097F8362097F8373097F8F9
S2140047F0355097F8361097F8370097F835406D4ED5
S2140048001A4413469B0013442B449B0033445B78A6
S214004810C3F30603DDB222465200224403461B01C0
S2140048201B1A1A440B461B015B1A134407F1380285
S2140048301344A3F12C02537865F30603537097F8DC
S214004840362097F8373097F8355097F8361097F89F
S214004850370097F83540574E1A4413469B001344CA
S2140048602B449B0033445B78C3F3C013DDB222466F
S2140048705200224403461B011B1A1A440B461B0116
S2140048805B1A134407F138021344A3F12C02537841
S21400489065F3C713537097F8362097F8373097F8B4
S2140048A0351044481A4413469B0013440B449B009F
S2140048B003449A7897F8361097F8370097F835300B
S2140048C002F00102D4B21A4652001A4403461B01F3
S2140048D01B1A1A440B461B015B1A134407F13802D5
S2140048E01344A3F12C02937864F34513937097F85E
S2140048F0362097F8373097F835102E481A44134666
S2140049009B0013440B449B000344DA7897F8361058
S21400491097F8370097F8353002F00F02D4B21A46EF
S21400492052001A4403461B011B1A1A440B461B016D
S2140049305B1A134407F138021344A3F12C02937850
S21400494064F30303937097F83530013387F83530F6
S21400495097F83530042B7FF621AF97F836300133C1
S21400496087F8363097F83630002B3FF40BAF97F8C1
S2140049703730013387F8373097F83730002B3FF45D
S214004980FDAE0D4B186807F10C020F230B4905F01E
S214004990BFFB38633B6B002B0CBF01230023DBB24D
S2140049A040F2B512064918460AF0D2FF00BF3C375F
S2140049B0BD46F0BDB80900202863002001100500A0
S2140049C0485D020080B500AF0120FFF7AFFD00BFD5
S2140049D080BD000080B58AB000AF03463960FB7129
S2140049E0254A07F1180392E8030083E80300234AE8
S2140049F03B681360214B1B68002B14BF0123002368
S214004A00DBB240F2CD121E4918460AF0A1FF1B4B3E
S214004A101B6807F1180211461846FBF72BFF0346E2
S214004A2087F8273097F82730002B02D1FB79002B28
S214004A301BD007F108030F220021184620F052FE73
S214004A400E4B186807F108020F230E4905F060FBAD
S214004A5038623B6A002B0CBF01230023DBB240F216
S214004A60D712074918460AF073FF0020FFF75EFDCD
S214004A7000BF2837BD4680BDBC5D0200286300200D
S214004A80485D02000110050090B589B000AF0346EE
S214004A903960FB711346BB710023FB770023FB7262
S214004AA0FB79012B14D83B689B78012B02D1FB794C
S214004AB0002B0DD13B689B78002B09D0FB7918465C
S214004AC0FEF7DAFE03461A463B689B789A4201D206
S214004AD0002362E007F10B03BA7907F10C0039688E
S214004AE000F05FF83B7C1A463B7ED4183B689B7808
S214004AF0FA7911461846FFF739FA03469C4201DD5B
S214004B0000234AE00023FB771FE0FA68FB7F13448C
S214004B101B783B727B7A6FF306037B727B7A6FF3AC
S214004B20C7137B723B68987807F10802F97900236F
S214004B30FFF742FA034683F00103DBB2002B01D0F5
S214004B4000232AE0FB7F0133FB773B7CFA7F9A4207
S214004B50DBD30023FB7719E03B6898787A69FB7F04
S214004B605B001A44FB7A002B14BF01230023DBB240
S214004B70F979FFF721FA034683F00103DBB2002B35
S214004B8001D0002309E0FB7F0133FB773B7EFA7FF1
S214004B909A42E1D3FFF716FF012318462437BD4695
S214004BA090BD80B487B000AFF860B9603B60134634
S214004BB0FB710023FB7500233B61BB68DA1CFB68B6
S214004BC01A60FB6800221A71FB6800229A60FB6874
S214004BD000221A73FB79032B03D8FB6800221A60A5
S214004BE03CE0FB79033BFB710023FB7530E0FB6880
S214004BF01A68FB7D13443B613B691B78002B1FD171
S214004C003B6901331B78002B27D0FA79FB7D0133F3
S214004C10D31ADA0F13445B10DAB2FB681A73FB6818
S214004C201B7B002B11D03B68002B02D03B68012277
S214004C301A703B695A1CFB689A60FB79FB7504E0A6
S214004C40FB7D0133DAB2FB681A71FB7D0133FB751D
S214004C50FA7DFB799A42CAD300E000BF1C37BD46F6
S214004C605DF8047B7047000080B485B000AF7860C4
S214004C7039607B681B78002B34D13B681B78012B8E
S214004C8030D01C4B1B68002B2CD00023FB7324E079
S214004C903B681978174B1868FA7B13465B00134479
S214004CA003441B78994215D1124B1968FA7B1346B8
S214004CB05B0013440B445A787B681A700D4B1968D6
S214004CC0FA7B13465B0013440B449A783B681A70D1
S214004CD0012308E0FB7B0133FB73074B1B78FA7B51
S214004CE09A42D5D3002318461437BD465DF8047B98
S214004CF0704700BFCC090020D0090020B0B588B0AE
S214004D0000AFB9607A603B600346FB73BB68023352
S214004D101C78FB7B1846FEF7AFFD03469C4204D882
S214004D20BB6802331B78002B03D1BB680233012219
S214004D301A70FB7BFB75BB689B78BB75FB7B002BF7
S214004D4007D107F1160207F1170311461846FFF7B9
S214004D508BFFBB6802331B78FA7B11461846FFF7B9
S214004D6005F903463B77BB681A787B681A707B6840
S214004D700233BA6892781A707B6803333A7F1A70E7
S214004D807B68043300221A700023BB770023FB776E
S214004D902DE0FB7D1A46BB7D013BF97F1A44134686
S214004DA09B0013440B449B00464A1344BB61BB69FB
S214004DB09B78002B18D1BB691B78002B14D0FB7D89
S214004DC01D46BB7D013BF87FBA7F053279681144EA
S214004DD03C4CEA1813469B001344034414F8233053
S214004DE00B70BB7F0133BB77FB7F0133FB77FA7F0A
S214004DF03B7F9A42CDD3BB681B78852B02D08E2B87
S214004E0005D052E07B68013303221A7052E07B68BB
S214004E10013303221A7000237B770023FB772EE0F2
S214004E20FB7D1A46BB7D013BF97F1A4413469B0067
S214004E3013440B449B00234A1344BB61BB699B7815
S214004E40012B19D1BB691B78002B15D0BA7F7B7F4D
S214004E50591C7977134406337A681344BA69127872
S214004E601A70BA7F7B7F591C7977134406337A68A9
S214004E701344BA6952781A70FB7F0133FB77FA7FC6
S214004E803B7F9A42CCD37B7F002B12D0BB7F05336F
S214004E907A68134400221A70BA7F7B7F1344DBB211
S214004EA00633DAB23B681A7009E03B6800221A70D3
S214004EB000E000BFBB7F0533DAB23B681A702037CC
S214004EC0BD46B0BDB809002080B5B2B000AFF860EE
S214004ED0B9601346FB71BB685B78012B02D0022BCE
S214004EE039D083E0BB689B78632B05D9BB689B7879
S214004EF0FF2B01D002237DE0BB689A78FB685B79C4
S214004F00C3F30603DBB21946104603F0A7FA0346BE
S214004F1087F8C33097F8C330002B03D097F8C33018
S214004F20012B0BD1F86803F079FBC7F8BC0001220F
S214004F30D7F8BC103148FDF709FF06E097F8C330F4
S214004F40022B02D1F86803F088FB97F8C330002BD9
S214004F504ED102234EE0F868FCF7EAF80346002B31
S214004F6001D0022346E007F110030833C7F8C43027
S214004F70A0220021D7F8C40020F0B4FB07F1B80344
S214004F801946F868FCF780F8D7F8C43020221A7063
S214004F90D7F8C43003225A70D7F8B8309B78184632
S214004FA003F06FFA03461A46D7F8C4309A70D7F85B
S214004FB0B8309B78184603F072FA03461A46D7F8BC
S214004FC0C430DA70D7F8B8309B78184603F075FA14
S214004FD003461A46D7F8C4301A71D7F8B82000230B
S214004FE00521D7F8C400FBF7D5FF02E0002301E057
S214004FF000BFFF231846C837BD4680BD3586000073
S21400500080B5B2B000AFF860B9601346FB71BB68FC
S2140050105B78012B57D0022B40F09480F868FCF7A1
S21400502087F8034683F00103DBB2002B49D007F173
S21400503010030833C7F8C430A0220021D7F8C400F4
S21400504020F050FB07F1B8031946F868FCF71CF887
S214005050D7F8C43025221A70D7F8C43003225A7005
S214005060FB685B79C3F30603DBB2184603F002F96C
S21400507003461A46D7F8C4309A70FB685B79C3F3C8
S2140050800603DBB2184603F005F903461A46D7F8BE
S214005090C430DA70FB685B79C3F30603DBB21846EC
S2140050A003F006F903461A46D7F8C4301A71D7F843
S2140050B0B82000230521D7F8C400FBF76BFFFF23B9
S2140050C041E002233FE0BB689B78632B05D9BB68B1
S2140050D09B78FF2B01D0022335E0FB79022B01D809
S2140050E0022330E0FB79032B02D1BB68FF22DA7083
S2140050F0BB689878BB68D978FB685B79C3F306030E
S214005100DBB21A4600F026F8034687F8C33097F855
S214005110C330002B03D097F8C330012B0AD1F868B0
S21400512003F0A6FAC7F8BC000122D7F8BC1008485E
S214005130FDF70CFE97F8C330002B01D1022302E0E6
S214005140FF2300E000231846C837BD4680BD00BFD9
S214005150B551000080B582B000AF0346FB710B4628
S214005160BB7113467B71BB79FF2B05D17B79184643
S21400517003F0C8F80346BB71FB79002B07D17A7998
S214005180BB791946002003F09FF803460EE0FB7932
S214005190632B02D9FB79FF2B07D17A79BB791946A5
S2140051A0FF2003F091F8034600E001231846083775
S2140051B0BD4680BD80B5B0B000AF07F1080383E8F8
S2140051C003007A6007F114030833C7F8BC30A02246
S2140051D00021D7F8BC0020F085FAD7F8BC3025228D
S2140051E01A70D7F8BC3003225A707B685B79C3F319
S2140051F00603DBB2184603F03DF803461A46D7F816
S214005200BC309A707B685B79C3F30603DBB2184642
S21400521003F040F803461A46D7F8BC30DA707B68CD
S2140052205B79C3F30603DBB2184603F041F8034686
S2140052301A46D7F8BC301A7107F108020023052178
S214005240D7F8BC00FBF74EFE00BFC037BD4680BD9A
S21400525080B588B004AF7860396000233B730023C4
S2140052607B730123BB7302F05DFE0346002B08D15F
S2140052703B68002B20D007F10C023B68104698478D
S2140052801AE00F4B1B883B8107F108023B6802932C
S214005290002301930023009300230021786805F083
S2140052A01DFC0346002B07D03B68002B04D007F1FB
S2140052B00C023B681046984700BF1037BD4680BDBD
S2140052C0C45D020090B5C3B002AFF860B960134683
S2140052D0FB71F868FBF72CFF0346002B01D0022376
S2140052E019E2BB685B78013B092B00F2128201A22F
S2140052F052F823F01D53000013570000EF5400002F
S214005300135700001357000097540000135700006F
S2140053104356000013570000BB56000007F1140365
S2140053200833C7F8DC30A0220021D7F8DC0020F0D4
S214005330D9F907F1D4031946F868FBF7A5FE002350
S214005340A7F8D2300023A7F8D03007F1D00207F133
S214005350D2031146184603F0A7F9D7F8DC307A22B4
S2140053601A70D7F8DC3002225A70B7F8D2301B0A0F
S2140053709BB2DAB2D7F8DC309A70B7F8D230DAB22D
S214005380D7F8DC30DA70002003F036F903461B0A43
S2140053909BB2DAB2D7F8DC301A71002003F02CF991
S2140053A00346DAB2D7F8DC305A71D7F8DC30002280
S2140053B09A71D7F8DC300022DA71D7F8DC30FF2299
S2140053C01A7202F02FFF0346013BDAB2D7F8DC3040
S2140053D05A7200F018FF03461B0A9BB2DAB2D7F8DF
S2140053E0DC309A7200F00FFF0346DAB2D7F8DC30F2
S2140053F0DA72D7F8DC30C7F8D830012387F8FF30E8
S21400540025E097F8FF30184603F0F6F803461B0A27
S21400541099B297F8FF305B000A33D7F8D8201344C8
S214005420CAB21A7097F8FF30184603F0E5F803463C
S214005430194697F8FF305B000B33D7F8D820134493
S214005440CAB21A7097F8FF30013387F8FF3002F0BF
S214005450E9FE03461A4697F8FF309342D1D397F8F1
S214005460FF305B000A33D7F8D820D41803F014F9BD
S2140054700346237097F8FF300533DBB25B00DBB2E0
S2140054800133D9B2D7F8D4200023D7F8DC00FBF7D5
S21400549081FDFF233FE1BB68FA7992B2194641F6D7
S2140054A00F5003F0C1FE0346A7F8F230BB689B78A6
S2140054B01B029BB203F4FE439AB2BB68DB789BB236
S2140054C01344A7F8F030FB79063B87F8EF30BB684B
S2140054D09A78BB681C1DB7F8F010B7F8F20097F87A
S2140054E0EF300093234600F0CBFAFF2313E107F1D9
S2140054F014030833C7F8E830A0220021D7F8E800E4
S21400550020F0F0F8002387F8FE300023A7F8FC30E0
S21400551007F1CC031946F868FBF7B6FD00F073FEFA
S2140055200346A7F8FC30FB790A2B11D9BB681B7A17
S21400553087F8FE30BB685B7A9BB21B02A7F8FC308C
S214005540BB689B7A9AB2B7F8FC301344A7F8FC30D5
S214005550D7F8E8307A221A70D7F8E83004225A7062
S21400556003F09AF8034687F8E730FB790C2B0AD944
S214005570BB681B7B97F8E7209A4204D0D7F8E83040
S21400558004229A704DE002F04DFE03461A4697F844
S214005590FE30934241D2BB680233C7F8E030D7F8FA
S2140055A0E0301B781B021AB2D7F8E03001331B78C4
S2140055B01BB213431BB29BB2A7F8C430D7F8E03037
S2140055C002331B781B021AB2D7F8E03003331B787D
S2140055D01BB213431BB29BB2A7F8C630D7F8E03015
S2140055E004331B781B021AB2D7F8E03005331B7859
S2140055F01BB213431BB29BB2A7F8C830D7F8E830EB
S214005600023307F1C400B7F8FC2097F8FE100093A9
S2140056100346F86800F0E6FA03E0D7F8E83003221D
S2140056209A70D7F8CC203E4B0321D7F8E800FBF75A
S214005630B1FC0346002B02D0022000F06DFBFF23D6
S21400564069E0F868FBF774FD034683F00103DBB2FC
S214005650002B30D0FB790A2B2DD107F11403083329
S214005660C7F8F430A0220021D7F8F40020F03AF86A
S21400567007F1C0031946F868FBF706FDD7F8F430C3
S214005680B9680A22184620F022F8D7F8F4307A22B1
S2140056901A70D7F8F43009225A70D7F8F43001227D
S2140056A05A72D7F8C02000230B21D7F8F400FBF776
S2140056B071FCFF232FE002232DE007F114030833CB
S2140056C0C7F8F8300023C7F8BC3007F1BC0319460A
S2140056D0F868FBF7D9FCD7F8F8307A221A70D7F8B2
S2140056E0F8300B225A70D7F8F83003229A70D7F8A1
S2140056F0F8300022DA70D7F8F83000221A71D7F89E
S214005700BC2000230521D7F8F800FBF743FCFF2355
S21400571001E000BF0023184607F58277BD4690BD1E
S214005720195D000080B5B2B000AFF8607B600B4634
S214005730FB7213463B8107F11C030833C7F8C430DD
S214005740A0220021D7F8C4001FF0CCFF07F11C03ED
S2140057500433184601F0F0FD0023BB6107F118037F
S2140057601946F868FBF790FCD7F8C4307A221A700E
S214005770D7F8C43007225A70D7F8C430FA7A9A702D
S2140057803B891B0A9BB2DAB2D7F8C430DA703B8981
S214005790DAB2D7F8C4301A71BA697B680521D7F82F
S2140057A0C400FBF79FFB0346002B0FD00A4A07F105
S2140057B014031268114619800233120C1A7007F18E
S2140057C014027B6810469847012300E00023184621
S2140057D0C837BD4680BD00BFC85D020080B5AEB00C
S2140057E000AF78600B467B8007F10C030833C7F8E0
S2140057F0B430A0220021D7F8B4001FF073FF07F1E1
S2140058000C030433184601F097FD0023BB6007F134
S214005810080319467868FBF737FCD7F8B4307A22C5
S2140058201A70D7F8B43005225A70D7F8B43001226F
S2140058309A707B881B0A9BB2DAB2D7F8B430DA705B
S2140058407B88DAB2D7F8B4301A71BA68002305211B
S214005850D7F8B400FBF746FB0346002B01D0012324
S21400586000E000231846B837BD4680BD80B400AFC0
S214005870BFF34F8F054BDB6803F4E0620349044B2C
S2140058801343CB60BFF34F8F00BFFDE700ED00E092
S2140058900400FA0580B500AF03F0E8FC00BF80BD49
S2140058A080B500AF054B1B6823F4E063034A43F45E
S2140058B080631360FFF7DAFF00BF80BD00500E4024
S2140058C080B58AB000AFF860B9607A60224AFB689B
