S010000053656E736F725049522E7333377F
S21400000000000120B1F80000DDF80000DDF8000077
S214000010DDF80000DDF80000DDF8000039310000F2
S2140000203931000039310000393100002129010042
S214000030DDF800003931000081290100E5290100C2
S21400004031BA000029820200DDF80000DDF8000069
S214000050ED7C020095820200358202004D8202008D
S2140000602D820200DDF800005D9B0000DDF8000038
S214000070DDF80000DDF80000DDF80000DDF8000027
S214000080DDF80000DDF80000859B0000DDF80000CC
S2140000906DB70000DDF80000DDF80000DDF80000B8
S2140000A0DDF80000DDF80000DDF800000D37000088
S2140000B09982020031820200396F02007128010025
S2140000C0D982020045B900003D420200DDF800007A
S2140000D0DDF80000DDF80000DDF80000DDF80000C7
S2140000E0DDF80000DDF80000DDF80000DDF80000B7
S2140000F0DDF80000DDF800003931000010B5054CD1
S214000100237833B9044B13B10448AFF300800123BE
S214000110237010BDA006002000000000FCC70200EF
S21400012008B5034B1BB103490348AFF3008008BD75
S21400013000000000A4060020FCC70200154B002BA0
S21400014008BF134B9D46A3F5803A00218B460F4609
S2140001501348144A121A28F04DFB0F4B002B00D000
S21400016098470E4B002B00D0984700200021040033
S2140001700D000D48002802D00C48AFF3008028F090
S21400018091FA200029000DF09DFE28F077FA00BFB6
S2140001900000080000000120000000000000000031
S2140001A0A0060020687B0020000000000000000081
S2140001B080B584B002AF03463960FB71FA793B68BC
S2140001C000931346044A082104480FF021FE00BF9E
S2140001D00837BD4680BD00BFE4060020BC060020F0
S2140001E080B586B000AFF8600B467A60FB72FA7A8C
S2140001F07B68F96812480FF051FE0346FB75FB7DDD
S214000200022B01D1012316E0FB7D002B12D1FB68E7
S21400021093F830301A460A4B1344002283F84820DD
S214000220FB6893F83030064A1433002142F8231056
S214000230012300E0002318461837BD4680BD00BFE6
S214000240BC06002080B582B000AF786000F026F9CA
S2140002507B6893F830301A46174B134493F84830AF
S214000260002B0AD07B6893F83030134A143352F8C8
S2140002702330002B01D0012300E0002303F001030C
S214000280DBB27F220D49184612F0E2FB7B6893F83A
S2140002903030094A143352F82330002B08D07B68DC
S2140002A093F83030044A143352F82330786898476D
S2140002B000BF0837BD4680BDBC060020288A020065
S2140002C080B586B000AFF8600B467A60FB72FB7AAA
S2140002D0002B14BF01230023DBB283F00103DBB243
S2140002E003F00103DBB28F221949184612F0B0FB67
S2140002F0FA7A184BF96818480FF0D0FD0346FB75DC
S214000300FB7D002B1FD1154B1B7883F00103DBB25E
S214000310002B05D012480DF0C4FD104B01221A70B8
S214000320FB6893F830301A460B4B1344012283F8CF
S2140003304820FB6893F83030074914337A6841F850
S2140003402320012300E0002318461837BD4680BD51
S214000350288A020045020000BC0600202C07002068
S2140003604D05000080B584B000AF7860396039680C
S21400037078680FF06BFC0346FB7300F08FF8FB7B8E
S21400038018461037BD4680BD80B584B000AF786093
S21400039078680FF0D2FC0346FB7300F07FF8FB7B17
S2140003A018461037BD4680BD80B500AF02480FF036
S2140003B03DFD00BF80BD00BFBC06002080B582B0FA
S2140003C000AF7860796803480FF092FD00BF0837E9
S2140003D0BD4680BDBC06002080B400AF0023184692
S2140003E0BD465DF8047B704780B483B000AF002341
S2140003F07B6000233B600CE00B4A3B6813444833A9
S2140004001B78002B02D07B6801337B603B6801338E
S2140004103B603B68072BEFD97B68013318460C37E7
S214000420BD465DF8047B7047BC06002080B584B0EE
S21400043000AFFFF7D1FFB860FFF7D6FF7860002364
S2140004403B60BA687B689A4234BF01230023DBB264
S214000450F1221149184612F0FBFABB68FB6012E065
S2140004600021F8680BF086FA38603B68002B0CBF5A
S21400047001230023DBB2F5220749184612F0E8FAFA
S214000480FB680133FB60FA687B689A42E8D900BFD4
S2140004901037BD4680BD00BF288A020080B586B0F2
S2140004A000AF02237B610023FB6011F04DFBB860B8
S2140004B0B96801200BF05EFAF860FB68002B0CBFF1
S2140004C001230023DBB240F227121E49184612F021
S2140004D0BFFA00233B612DE01B4A3B6913444833B7
S2140004E01B78002B23D0184A3B690A3352F8233076
S2140004F07B604FF0FF333B603B461A46B96878682E
S2140005000FF05CFC3B68194678690BF033FAF8602C
S214000510FB68002B0CBF01230023DBB240F237122E
S2140005200849184612F094FA7B6901337B613B69EF
S21400053001333B613B69072BCED900BF1837BD4658
S21400054080BD00BF288A0200BC06002080B582B0AD
S21400055000AF11F0F9FA7860796800200BF00AFA1B
S21400056038603B68002B0CBF01230023DBB240F24F
S2140005704B120449184612F06BFA00BF0837BD4606
S21400058080BD00BF288A020080B58EB000AF03464B
S214000590FB7100233B610023FB6000237B6200238A
S2140005A087F83730002387F836300023BB600023F7
S2140005B03B6300233B620023FB62002387F82B305B
S2140005C0FB79042B03D0FB79012B40F0C88012F096
S2140005D079F807F11003194600200BF0BBF9786292
S2140005E07B6A002B0CBF01230023DBB24FF4B572ED
S2140005F05E49184612F02CFA07F10C031946012042
S2140006000BF0A8F978627B6A002B0CBF012300234D
S214000610DBB240F26F125549184612F019FA3B69E0
S214000620002B00F09E80FB68002B00F09A803A6951
S214000630FB689A4204D33A69FB68D31A3B6304E02A
S2140006403A69FB68D31A013B3B6312F041F8024655
S2140006503B6B13443B62002387F8373074E097F80F
S2140006603730434A134493F84830002B67D097F846
S214000670363002331A4607F10803194610460BF0C7
S21400068069F978627B6A002B0CBF01230023DBB27A
S2140006904FF4CA723549184612F0DAF97B6A002B15
S2140006A048D197F83730324A0A3352F82330FB6184
S2140006B0BB683A6B9A4234BF01230023DBB24FF487
S2140006C0CE722A49184612F0C3F9BB683A6A9A42B3
S2140006D004D2BA683B6AD31AFB6203E0BB683A6A84
S2140006E0D31AFB62FB6A092B03D8F8690FF07AFB72
S2140006F020E0BB68B3F1FF3F1CD0BB683A6A9A4261
S21400070018D2BA683B6AD31ABB61B969F8690FF0A8
S2140007109DFA0346FB75FB7D002B0CBF01230023CF
S214000720DBB24FF4E6721149184612F091F9012334
S21400073087F82B3097F83630013387F8363097F83D
S2140007403730013387F8373097F83730072B86D99C
S21400075097F82B30002B05D0FFF7A0FE02E000BF75
S21400076000E000BF3837BD4680BD00BF288A0200C3
S214000770BC06002080B584B000AF78600B46FB70E6
S2140007807B68BB60BB68FA781A700023FB600AE0DF
S214000790FB681B01BA6813440433184600F071F96D
S2140007A0FB680133FB60FB78FA689A42F0DBBB68B3
S2140007B018461037BD4680BD80B586B002AFF860DB
S2140007C0B9607A6000230193002300937B680022BF
S2140007D0B968F86800F086F8034618461037BD4634
S2140007E080BD000080B584B000AF786039607B685B
S2140007F0BB600023FB606BE0BA68FB681B01134418
S21400080004331B78032B5BD801A252F823F000BFF9
S214000810210800004108000077080000C108000019
S214000820BA68FB681B01134410331B68B968FA6882
S21400083012010A440C32126839681046984744E0A0
S2140008403B681B799AB2B968FB681B010B440633F8
S2140008501B889A4236D1BA68FB681B0113441033D2
S2140008601B68B968FA6812010A440C3212683968C3
S2140008701046984726E03B681B799AB2B968FB6831
S2140008801B010B4406331B889A421DD13B685A79DC
S214000890B968FB681B010B4408331B789A4213D1D6
S2140008A0BA68FB681B01134410331B68B968FA6802
S2140008B012010A440C32126839681046984703E061
S2140008C000BF02E000BF00E000BFFB680133FB6032
S2140008D0BB681B781A46FB6893428DDB00BF103757
S2140008E0BD4680BD80B58AB000AFF860B9603B6099
S2140008F01346FB71F86800F0DDF803461A46FB68FD
S2140009001B789A4201D1002366E0FB793B743B8E4C
S2140009107B8297F834303B75BB68BB613B68FB61F4
S21400092007F11003184600F0EAF8034683F00103C7
S214000930DBB2002B01D000234EE007F1100319466E
S214000940F86800F04DF80346002B01D0002343E082
S214000950FB683B6200237B6237E03A6A7B6A1B01D6
S214000960134404331B78032B2CD13A6A7B6A1B0191
S21400097013440433FA791A703A6A7B6A1B011344EB
S21400098010333A681A603A6A7B6A1B0113440C33C8
S214000990BA681A603B8E002B12D03A6A7B6A1B013B
S2140009A0134406333A8E1A8097F83430002B07D05B
S2140009B03A6A7B6A1B011344083397F834201A708E
S2140009C0012309E07B6A01337B623B6A1B781A4687
S2140009D07B6A9342C1DB002318462837BD4680BD9C
S2140009E080B485B000AF786039607B68BB60002358
S2140009F0FB733AE0FB7BBA681B01134404331A7896
S214000A003B681B789A422DD1FB7BBA681B011344C6
S214000A1006331A883B685B889A4223D1FB7BBA6808
S214000A201B01134408331A783B681B799A4219D184
S214000A30FB7BBA681B01134410331A683B68DB68FB
S214000A409A420FD1FB7BBA681B0113440C331A6819
S214000A503B689B689A4205D1FB7B1B01BA6813442E
S214000A60043308E0FB7B0133FB73BB681B78FA7B1F
S214000A709A42BFD3002318461437BD465DF8047B60
S214000A80704780B483B000AF78607B6803221A702A
S214000A907B6800225A807B6800221A717B680022DD
S214000AA0DA607B6800229A6000BF0C37BD465DF8AE
S214000AB0047B704780B485B000AF78600023FB737A
S214000AC07B68BB600023BB730DE0BB7BBA681B0171
S214000AD0134404331B78032B02D0FB7B0133FB73D8
S214000AE0BB7B0133BB73BB681B78BA7B9A42ECD3E3
S214000AF0FB7B18461437BD465DF8047B704780B410
S214000B0083B000AF78607B68DB68002B13D07B680F
S214000B101B78012B03D17B685B88002B0BD07B688E
S214000B201B78022B09D17B681B79002B03D07B68CE
S214000B305B88002B01D1002300E0012318460C3708
S214000B40BD465DF8047B704780B483B000AF786024
S214000B507B689B6C18460C37BD465DF8047B704777
S214000B6080B483B000AF78600B46FB70FA787B6881
S214000B709A6000BF0C37BD465DF8047B70470000E6
S214000B8080B586B000AF0346FB7107F10C03002268
S214000B901A605A609A60FF237B740323BB73FB7949
S214000BA03B740023FB7309237B7307F10C03194680
S214000BB003480BF01DF900BF1837BD4680BD00BFC7
S214000BC00020004080B582B000AFE020FFF7D8FFDD
S214000BD001210D48FFF7C4FF00BF0B4BDB6803F095
S214000BE00103002BF9D10848FFF7AEFF78607B6859
S214000BF041F2883202FB03F31B0B7B607B681846CE
S214000C000837BD4680BD00BF0020004080B582B0DA
S214000C1000AF00233B7000237B701F23BB700023B4
S214000C20FB7000233B7100237B7101210B480DF004
S214000C3053FA00200BF0BEF90346BB7000210848AB
S214000C400BF02EF90346FB703B46194605480BF0A1
S214000C5045F900BF0837BD4680BD00BF00B204009E
S214000C60C0CF6A000020004080B500AF04480BF0FB
S214000C7071F9002103480DF02FFA00BF80BD00BFB8
S214000C800020004000B2040080B400AF034B1B6A93
S214000C901846BD465DF8047B704700BF408B0200D7
S214000CA080B400AF044B1B6A1B0CDBB21846BD4673
S214000CB05DF8047B704700BF408B020080B400AF35
S214000CC0044B1B6A1B0ADBB21846BD465DF8047B64
S214000CD0704700BF408B020080B400AF034B1B6A16
S214000CE0DBB21846BD465DF8047B7047408B0200B9
S214000CF080B586B000AF3B600346FB710B46BB7108
S214000D0013467B710DF03CF80346184601F0EAF8EE
S214000D100346FB750DF028F838613B695B681B7865
S214000D20FB737B6A002B0BD0BB7997F828201946FB
S214000D30786A27F0F5FC0346002B01D001233CE03F
S214000D40FB7B03F00403002B07D0FB7D032B04D0B2
S214000D50FB7D042B01D000232FE0FB7D002B15D05C
S214000D60FA79FB7D9A4211D13B68002B0ED0BB79F5
S214000D7097F820201946386827F0D2FC0346002B47
S214000D8002D1BB79202B01D1012316E0FB7D002B7D
S214000D9004D1BB79202B01D101230EE0FB7D042B6F
S214000DA00AD1BB79722B07D17B79042B04D1FB794E
S214000DB0002B01D1012300E0002318461837BD465A
S214000DC080BD80B58CB000AF03460A46FB71134663
S214000DD0BB710CF0B7FFF86265233B72FB793B737F
S214000DE0BB797B73FB6A9B6807F1080100221846F3
S214000DF00FF084F800BF3037BD4680BD80B584B0A4
S214000E0000AF78600F4811F061FE0F4B1B68194663
S214000E100E480CF0A1FBF860FB68002B0AD0F968BE
S214000E200B4811F02FFE40220A49002011F010FE58
S214000E30002303E07B68054A1A6001231846103732
S214000E40BD4680BD8C8A02001800002030070020B6
S214000E50A88A0200D88A020080B586B000AF786003
S214000E6039600023FB7500233B6118E07B68186837
S214000E707B689A683B69DB001344194600F01AF851
S214000E800346FB733A683B691344FA7B1A70FB7B94
S214000E90002B01D00123FB753B6901333B617B6866
S214000EA05B683A699A42E1D3FB7D18461837BD461F
S214000EB080BD000080B586B000AF786039607B6882
S214000EC0002B14BF01230023DBB263220F49184610
S214000ED011F0BEFD3B68196807F10C0307F110021C
S214000EE078680CF09BFA78617B69002B01D00223AE
S214000EF007E03B685A68FB689A4201D0032300E08B
S214000F00002318461837BD4680BD00BFD88A0200A9
S214000F1080B500AFB0220021024827F06BFC00BF6E
S214000F2080BD00BFC007002080B582B000AF7860EB
S214000F300A4800F089F8034683F00103DBB2002B71
S214000F4001D0002306E0054A7B685360044808F099
S214000F50D5F8044B18460837BD4680BDC0070020AC
S214000F60CC070020D007002080B582B000AF7860A4
S214000F700B46FB707B68074A934206D1FB781946FE
S214000F80054808F009F9012300E000231846083751
S214000F90BD4680BDD0070020CC07002080B584B0B9
S214000FA000AFF860B9601346FB71124B1B78012B3B
S214000FB01BD1114808F0C2F80F4808F001F90346A3
S214000FC01A46BB681A70FB79002B09D0FB680A4AE0
S214000FD01A60BB681B780433DAB2BB681A7002E08A
S214000FE0FB68064A1A60012300E000231846103703
S214000FF0BD4680BDC0070020CC070020D0070020DB
S21400100080B582B000AF7860084B5B68002B03D0D9
S214001010064B5B68786898477B689B78012B01D104
S21400102000F006F800BF0837BD4680BDC0070020A8
S21400103080B500AF034B00225A60024800F018F853
S21400104000BF80BDC007002080B483B000AF7860CA
S2140010507B681B78002B04D17B6801221A70012361
S21400106000E0002318460C37BD465DF8047B704749
S21400107080B483B000AF78607B6800221A7000BF2F
S2140010800C37BD465DF8047B7047000080B584B021
S21400109000AFB9607B600346FB731346BB730F4B10
S2140010A000221A7001210E480DF016F80B490D4863
S2140010B008F0D4FEFB7BBA6819460A4800F0CFF861
S2140010C0BB7B7A681946074800F0EBF80021044815
S2140010D00DF002F800BF1037BD4680BD1C00002092
S2140010E0003204000000014080B584B000AFB96053
S2140010F07B600346FB731346BB730F4B00221A70CC
S21400110001210E480CF0E8FF0B490D4808F0A6FE3A
S214001110FB7BBA6819460A4800F0A1F8BB7B7A68E0
S2140011201946074800F0BDF8002104480CF0D4FF2B
S21400113000BF1037BD4680BD3800002000420400C6
S2140011400004014080B582B000AF78600B46FB70AB
S2140011501346BB70012106480CF0BEFFBB78FA7838
S2140011607968044800F03CF800BF0837BD4680BDEB
S214001170003204000000014080B582B000AF786005
S2140011800B46FB701346BB70012106480CF0A4FF0B
S214001190BB78FA787968044800F022F800BF083770
S2140011A0BD4680BD004204000004014080B582B008
S2140011B000AF786039600AE07B685A1C7A601B785A
S2140011C01946064808F028FF3B68013B3B603B6831
S2140011D0002BF1D100BF0837BD4680BD000001409E
S2140011E080B584B000AFF860B96011461A460B4669
S2140011F0FB711346BB710023BA680021F86808F03B
S214001200A9FDFB685B6F23F03F02FB685A67FB791A
S214001210002B09D0FB685B6F43F00202FB685A673D
S2140012200421F86808F0EEFDBB79002B09D0FB68B6
S2140012305B6F43F00102FB685A670121F86808F00B
S214001240E1FDFB79002B06D0BB79002B03D00521EE
S214001250F86808F0D7FD00BF1037BD4680BD80B5E2
S21400126084B000AFF8600B467A60FB72F87A012310
S214001270042279680EF048F9FB689B6F23F4F85255
S214001280FB689A67FB7A7968184600F02DF80246E4
S214001290FB689B6F1A43FB689A6700BF1037BD4612
S2140012A080BD80B584B000AFF8600B467A60FB72F4
S2140012B0F87A0023012279680EF026F9FB689B6F06
S2140012C023F01F02FB689A67FB7A7968184600F0DD
S2140012D0D1F80246FB689B6F1A43FB689A6700BF0B
S2140012E01037BD4680BD000080B483B000AF034613
S2140012F03960FB71FB79052B00F2B48001A252F82D
S21400130023F000BF1D130000631300009F130000AE
S214001310E7130000651400000B1400003B68002B68
S21400132001D100239FE03B68012B02D14FF480736C
S21400133099E03B68022B02D14FF4007393E03B68C0
S214001340032B02D14FF440738DE03B68042B02D18F
S2140013504FF4806387E03B68052B7AD14FF4A06397
S21400136081E03B680B2B02D14FF4C0637BE03B6807
S2140013700C2B02D14FF4E06375E03B680D2B02D1D5
S2140013804FF400636FE03B680E2B02D14FF41063FE
S21400139069E03B680F2B5ED14FF4206363E03B6847
S2140013A0062B02D14FF430635DE03B68072B02D179
S2140013B04FF4406357E03B68082B02D14FF450636C
S2140013C051E03B68092B02D14FF460634BE03B6869
S2140013D00A2B02D14FF4706345E03B680B2B3CD1DF
S2140013E04FF480533FE03B680D2B02D14FF4A853D7
S2140013F039E03B680E2B02D14FF4B05333E03B6824
S2140014000F2B2CD14FF4B8532DE03B68002B02D1A4
S2140014104FF4C05327E03B68012B02D14FF4C8536A
S21400142021E03B68022B02D14FF4D0531BE03B680F
S214001430032B02D14FF4D85315E03B68042B02D19E
S2140014404FF4E0530FE03B68052B0AD14FF4E85306
S21400145009E000BF06E000BF04E000BF02E000BFF6
S21400146000E000BF002318460C37BD465DF8047B3D
S214001470704700BF80B483B000AF03463960FB718D
S214001480FB79052B00F29B8001A252F823F000BFE7
S214001490A9140000E51400001715000053150000FD
S2140014A0BF150000711500003B68002B01D11F23FB
S2140014B086E03B68012B01D1002381E03B68022BCC
S2140014C001D101237CE03B68032B01D1022377E0A6
S2140014D03B68042B01D1032372E03B68052B65D1E2
S2140014E004236DE03B680B2B01D1052368E03B68C5
S2140014F00C2B01D1062363E03B680D2B01D107239B
S2140015005EE03B680E2B01D1082359E03B680F2BA9
S2140015104ED1092354E03B68062B01D10A234FE045
S2140015203B68072B01D10B234AE03B68082B01D10F
S2140015300C2345E03B68092B01D10D2340E03B68B6
S2140015400A2B01D10E233BE03B680B2B32D10F2335
S21400155036E03B680D2B01D1142331E03B680E2B9F
S21400156001D115232CE03B680F2B25D1162327E04D
S2140015703B68002B01D1172322E03B68012B01D1E9
S21400158018231DE03B68022B01D1192318E03B68A5
S214001590032B01D11A2313E03B68042B01D11B2334
S2140015A00EE03B68052B09D11C2309E000BF06E0CE
S2140015B000BF04E000BF02E000BF00E000BF002361
S2140015C018460C37BD465DF8047B704780B483B080
S2140015D000AF78603960064A7B681360054A3B684E
S2140015E0136000BF0C37BD465DF8047B704700BF34
S2140015F0900800209408002080B582B000AF034613
S2140016000A46FB711346BB71224B1B7ABA799A4283
S21400161002D8BB79002B01D1002336E00CF0B0FBDA
S2140016200346184600F05EFC0346002B12D1FB79F9
S21400163083F00103DBB2002B0AD0164BD968BA79C7
S2140016401346DB009B1A9B001C3B0B4404331CE038
S214001650114B1AE0FB7983F00103DBB2002B0AD0B2
S2140016600C4BD968BA791346DB009B1A9B001C3BCF
S2140016700B440C3309E0074BD968BA791346DB00F4
S2140016809B1A9B001C3B0B44143318460837BD4678
S21400169080BD00BF700800208808002080B5BAB062
S2140016A000AFF8607A603B600B46FB727B685B6855
S2140016B09B78002B02D17B6800229A70204A3B68F8
S2140016C0136007F10B0107F10C037A68184605F062
S2140016D0F1FE7B685B681B7887F8C830194BBB61E6
S2140016E07B681B783B77F968FB7A1A4607F1140388
S2140016F00A33184627F073F8FB7A7B77002387F8BF
S214001700C930002387F8CB307B685B7843F0010351
S214001710DBB287F8CA307B685B68DB7887F8CC304A
S21400172001233B75084B1B6807F11401002218467D
S2140017300EF0E4FB03461846E837BD4680BD00BF02
S21400174094640020591900009008002080B5BAB0B3
S21400175000AFF8607A603B600B46FB72214A3B683C
S21400176013607B68002B01D1012336E007F10B01E3
S21400177007F10C037A68184605F09CFE7B685B68E8
S2140017801B7887F8C830184BBB617B681B783B77A3
S214001790F968FB7A1A4607F114030A33184627F04D
S2140017A01EF8FB7A7B77002387F8C930002387F87A
S2140017B0CB307B685B7887F8CA307B685B68DB7801
S2140017C087F8CC3001233B75084B1B6807F11401E2
S2140017D0002218460EF092FB03461846E837BD4630
S2140017E080BD00BF98640020A51900009008002066
S2140017F080B586B000AFF8600B467A60FB727B68F7
S2140018001B783B747B68DB7A7B747B681B7ABB74C3
S214001810FB7C6FF30603FB747B7D6FF306037B751F
S2140018207B7D6FF3C7137B75FA7A07F11003F968AF
S214001830184608F051FF00BF1837BD4680BD0000AF
S21400184080B483B000AF78603960254B254A5A6073
S2140018503B68234A1A607B689A78224B1A707B682A
S214001860DB78C3F30603D9B21E4A537861F3060346
S21400187053707B68DB7803F07F03DBB2002B14BF6A
S21400188001230023DBB21A46164B9A707B685A78FF
S214001890144BDA70124B25221A707B681B7803F003
S2140018A00203002B06D00E4B1B7843F00203DAB27D
S2140018B00B4B1A707B685B79C3F30603DBB21A46E0
S2140018C0074B9A70064B00225A70054B5B687A6885
S2140018D05278DA7000BF0C37BD465DF8047B70475F
S2140018E098080020A008002080B584B000AF78607B
S2140018F00023FB73786800F01BF80346002B0AD120
S2140019007B685B7923F07F03DBB2002B03D1074BA8
S2140019101B78012B01D10123FB73044B00221A70A4
S214001920FB7B18461037BD4680BD00BF7008002000
S21400193080B483B000AF78607B681B7803F00C033C
S214001940002B01D0012300E0002318460C37BD46CB
S2140019505DF8047B7047000080B584B000AF034696
S2140019603960FB7100233B73FB797B730123BB73E8
S2140019700A4B1B68002B05D0084B1B6807F10C02AE
S21400198010469847064B1B68002B02D0044B1B687A
S214001990984700BF1037BD4680BD00BF9464002046
S2140019A09408002080B582B000AF03463960FB7112
S2140019B0094B1B68002B04D0074B1B68FA791046AE
S2140019C09847064B1B68002B02D0044B1B689847B1
S2140019D000BF0837BD4680BD9864002094080020EC
S2140019E080B483B000AF0346FB71FA79034B1A70DC
S2140019F000BF0C37BD465DF8047B704770080020BA
S214001A0080B483B000AF7860044A7B68136000BF80
S214001A100C37BD465DF8047B704700BFB808002051
S214001A2080B5C2B000AFF860084611463A1D136094
S214001A300346FB720B46BB723B1D1B68002B0AD08D
S214001A403B1D1B681B7A002B05D0FB68002B02D0C1
S214001A50FB7A002B01D1002308E1874AD7F8103122
S214001A601360864A3B1D1B681360854AFB6813603B
S214001A70844AFB7A1370FB7A1946F868FFF774FA03
S214001A80034683F00103DBB2002B01D00023EDE018
S214001A907D4ABB7A13707D4B1B689B699A787C4B9A
S214001AA01A707B4B1B7803F00703DBB2002B05D0C4
S214001AB0754B1B78002B01D0012300E0002303F0B8
S214001AC00103DBB21A466F496D48FFF767FA034613
S214001AD083F00103DBB2002B01D00023C6E007F140
S214001AE0E8031D21184609F0F3FE002387F80631A7
S214001AF0002387F80531002387F8073149E03B1DAE
S214001B001B685A6897F807319B001344DB78012B53
S214001B1013D03B1D1B685A6897F807319B00134487
S214001B20DB78022B09D03B1D1B685A6897F80731F3
S214001B309B001344DB78032B05D197F8063101335D
S214001B4087F806311CE03B1D1B685A6897F807317A
S214001B509B001344DB78002B12D197F80531013334
S214001B6087F805313B1D1B685A6897F807319B00BC
S214001B7013441A7807F1E8031146184609F090FE58
S214001B8097F80631012B0CD897F80731013387F800
S214001B9007313B1D1B681B7A97F807219A42AED384
S214001BA000E000BF3B4B00221A703B4B00221A702D
S214001BB007F114030A33AA220021184626F01AFE5B
S214001BC0FA7A07F114030A33F968184626F007FE76
S214001BD0324BBB61FB7A7B7797F80631012B24D911
S214001BE0022387F8C930FF2387F8C83000233B77E5
S214001BF0264B1B689B699B78184600F073F90346D2
S214001C0087F8CA30244B02221A7004233B751F4BF8
S214001C101B681B6807F11401002218460EF06EF9C7
S214001C200346002B21D0002320E097F80531012B36
S214001C3018D903233B7507F1E80107F11403B43301
S214001C401D22184626F0CBFD104B1B681B6807F1BB
S214001C501401002218460EF051F90346002B04D05A
S214001C60002303E0002000F029F80123184607F5BA
S214001C708477BD4680BD00BF9C640020AC08002071
S214001C80A4080020A8080020B2080020B8080020F9
S214001C90B3080020B1080020B4080020A11C0000F2
S214001CA080B582B000AF03463960FB71002000F0BB
S214001CB005F800BF0837BD4680BD000080B586B079
S214001CC000AF78600023FB75594B1B78002B1ED0A5
S214001CD0584B1B681A7A564B1B789A4202D101233E
S214001CE0FB7501E00023FB757B681A78524B1A706F
S214001CF0514AFB7D93707B685A784F4B5A704F4B16
S214001D001B68002B03D04D4B1B684B489847494B2C
S214001D101B681A7A464B1B789A4240F28580454BE0
S214001D201B685B783B73464B1B787B73404B1B787A
S214001D30002B0AD1424B1B7803F00203002B04D081
S214001D407B7B43F00403DBB27B733A4B1B689B78C8
S214001D50BB73384B1B685A68354B1B789B00134483
S214001D603B613B691A78344B1A70364B1B7803F08C
S214001D700703DBB2002B0CD0334B1B78002B08D0AC
S214001D803B695B7823F07F03DBB2002B01D1012394
S214001D9000E0002303F00103DBB21A462B492C486F
S214001DA0FFF7FCF8034683F00103DBB2002B11D0EB
S214001DB0214B00221A70204B02225A701E4B012221
S214001DC09A701E4B1B68002B2BD01C4B1B681A48A6
S214001DD0984726E01E4B18681C4B197807F10C0232
S214001DE01C4BFFF75BFC0346BB75BB7D002B11D07D
S214001DF0114B00221A70104B02225A700E4B012211
S214001E009A700E4B1B68002B0DD00C4B1B680A48B3
S214001E10984708E0064B1B780133DAB2044B1A7079
S214001E2002E000BF00E000BF1837BD4680BD00BF1F
S214001E30B1080020AC080020BC0800209C640020EC
S214001E40B4080020B3080020B2080020A80800202C
S214001E50A4080020BD1C000080B500AF034B012283
S214001E601A700020FFF72AFF00BF80BDB0080020D0
S214001E7080B483B000AF78603960064A7B68136030
S214001E80054A3B68136000BF0C37BD465DF8047B0F
S214001E90704700BFD0080020D408002080B582B06C
S214001EA000AF786039600B4A7B6813600A4A3B686B
S214001EB013600A4B1B681A78094B1A70084B1B787C
S214001EC0184600F0D5F8FFF723F801231846083720
S214001ED0BD4680BDC0080020D8080020D4080020D9
S214001EE0A064002080B483B000AF0346FB71FB798A
S214001EF003F00403DBB2002B01D0032316E0FB79CA
S214001F0003F00203DBB2002B01D002230EE0FB79C4
S214001F1003F00103DBB2002B01D0012306E097F9A2
S214001F200730002B01DA042300E0002318460C37A4
S214001F30BD465DF8047B704780B400AF034B0022BB
S214001F401A7000BFBD465DF8047B7047A064002091
S214001F5080B582B000AF0346FB71094AFB79137067
S214001F60FB79184600F084F8064B1B68002B02D05D
S214001F70044B1B689847012318460837BD4680BDAA
S214001F80A0640020D8080020F0B58BB004AF7860BD
S214001F9039603B6804337B613B6893F8A430FB747C
S214001FA03B68A833FB60FB68D87A7B691C787B6942
S214001FB05D78194B1B681E69174B1B681B7D164AFC
S214001FC052681549097A02910192009333462A46CF
S214001FD02146FEF78DFE0346002B19D0FB681B78C2
S214001FE003F00C03002B03D00C4B00221A7002E007
S214001FF00A4B01221A70FB7CFA6819467869FFF7CB
S214002000F7FB074B1B68002B02D0054B1B68984755
S21400201000BF1C37BD46F0BDC0080020CC0800201D
S214002020D8080020F0B587B004AF0346FB710B4616
S214002030BB7113467B710D4B1B681E690B4B1B68EF
S2140020401B7D0A4A52680949097ABD79FC79787974
S21400205002910192009333462A462146FEF748FE37
S214002060034618460C37BD46F0BD00BFC00800202A
S21400207080B582B000AF0346FB71FB79002B08D019
S2140020800BF07EFE03461846FFF72CFF0346002B98
S21400209008D10B4B1A680A4B043392E8030083E816
S2140020A0030008E0064B1A68054B0433083292E832
S2140020B0030083E8030000BF0837BD4680BD00BFAD
S2140020C0C008002080B483B000AF03463960FB71BF
S2140020D097F90730002B0BDA3B68DAB20C49FB792C
S2140020E003F00F03043B5201D2B20B441A7609E008
S2140020F03B68DAB2074997F907305201D2B20B446F
S21400210083F8002300BF0C37BD465DF8047B70479C
S21400211000ED00E000E100E080B400AFBFF34F8FB9
S214002120054BDB6803F4E0620349044B1343CB60C2
S214002130BFF34F8F00BFFDE700ED00E00400FA0597
S21400214080B485B000AF786039607B6803F10473B3
S214002150DA003B6813449B00FB60FB681B6818466C
S2140021601437BD465DF8047B704780B485B000AF79
S214002170786039607B6803F1C063FB60FB683A688F
S2140021801A6000BF1437BD465DF8047B704780B404
S21400219085B000AF786039607B6803F18063FB60D0
S2140021A0FB683A681A6000BF1437BD465DF8047BCA
S2140021B07047000080B483B000AF7860044A7B6844
S2140021C0C2F8243400BF0C37BD465DF8047B704768
S2140021D000A0004080B400AF034BD3F81C34184670
S2140021E0BD465DF8047B704700A0004080B582B015
S2140021F000AF03463960FB71FB79002B0DD0FB79ED
S214002200012B0AD0FB79022B07D0FB79032B04D0D5
S214002210FB79042B01D0FB79052BFA7913465B007A
S21400222013441B011C3303F1804303F52043396834
S2140022301846FFF785FF034618460837BD4680BD9B
S21400224080B582B000AF03463960FB71FB79002B86
S2140022500DD0FB79012B0AD0FB79022B07D0FB7936
S214002260032B04D0FB79042B01D0FB79052BFA79DC
S21400227013465B0013441B010C3303F1804303F544
S214002280204301213A6801FA02F211461846FFF788
S2140022907EFF00BF0837BD4680BD80B582B000AF68
S2140022A003463960FB71FB79002B0DD0FB79012BBF
S2140022B00AD0FB79022B07D0FB79032B04D0FB79DD
S2140022C0042B01D0FB79052BFA7913465B001344E7
S2140022D01B010C3303F1804303F5204301213A68C8
S2140022E001FA02F211461846FFF73FFF00BF083713
S2140022F0BD4680BD80B400AF034B01221A6100BF0B
S214002300BD465DF8047B704700300E4080B582B055
S21400231000AF03460A46FB711346BB71BB79002B20
S21400232004D0FB7918460AF019F803E0FB79184642
S2140023300AF002F800BF0837BD4680BD80B483B0FF
S21400234000AF0346FB71FB79062B0BD8FA790A49D6
S21400235013465B001344DB000B441B78002B01D0B4
S214002360012300E0002303F00103DBB218460C371C
S214002370BD465DF8047B7047348C020080B582B0A1
S21400238000AF0346FB71FB791846FFF7D7FF0346FD
S214002390002B01D0012306E040F239120449002048
S2140023A010F056FB002318460837BD4680BD00BF18
S2140023B0CC8B020080B582B000AF0346FB71FB7980
S2140023C01846FFF7DBFF0346002B09D0FA790749CA
S2140023D013465B001344DB000B4408331B7800E015
S2140023E0002318460837BD4680BD00BF348C020067
S2140023F080B582B000AF0346FB71FB791846FFF745
S214002400BDFF0346002B09D0FA79074913465B0047
S2140024101344DB000B440C331B6800E00023184613
S2140024200837BD4680BD00BF348C020080B483B040
S21400243000AF0346FB71FB79062B0BD8FA790A49E5
S21400244013465B001344DB000B441B78002B01D0C3
S214002450012300E0002303F00103DBB218460C372B
S214002460BD465DF8047B7047DC8C020080B582B008
S21400247000AF0346FB71FB791846FFF7D7FF03460C
S214002480002B01D0012306E04FF4B172044900206E
S21400249010F0DEFA002318460837BD4680BD00BFA0
S2140024A0CC8B020080B582B000AF0346FB71FB798F
S2140024B01846FFF7DBFF0346002B09D0FA790749D9
S2140024C013465B001344DB000B4408331B7800E024
S2140024D0002318460837BD4680BD00BFDC8C0200CE
S2140024E080B582B000AF0346FB71FB791846FFF754
S2140024F0BDFF0346002B09D0FA79074913465B0057
S2140025001344DB000B440C331B6800E00023184622
S2140025100837BD4680BD00BFDC8C020080B582B0A7
S21400252000AF0346FB71FB791846FFF79FFF034693
S214002530002B09D0FA79074913465B001344DB00E9
S2140025400B4410331B6800E0012318460837BD46CD
S21400255080BD00BFDC8C020080B582B000AF0346B1
S214002560FB71FB791846FFF781FF0346002B0CD062
S214002570FA79084913465B001344DB000B44143316
S2140025801B78002B01D0012300E0002318460837F3
S214002590BD4680BDDC8C020080B582B000AF03462D
S2140025A00A46FB711346BB71FB790E4AD35C012BBE
S2140025B014D10D4B1A68FB790C4951F82330D31A05
S2140025C0B3F5967F0AD3FB79064A0221D154BB792C
S2140025D00333DBB201211846FFF798FE00BF083729
S2140025E0BD4680BD1C0900201809002024090020D3
S2140025F080B584B000AF78600123FB73204B1B6866
S2140026000A331F4A136040210020FFF7C5FF45210B
S2140026100120FFF7C1FF4A210220FFF7BDFF4F212F
S2140026200320FFF7B9FF54210420FFF7B5FF592117
S2140026300520FFF7B1FF0023BB730AE0BB7B114AFE
S214002640D35C002B02D00023FB7305E0BB7B013379
S214002650BB73BB7B052BF1D9FB7B002B05D1084B4D
S2140026601B6847F23052934205D907480DF07AFBB3
S214002670064B00221A7000BF1037BD4680BD00BF53
S214002680180900201C090020DC080020140900207E
S21400269080B582B000AF0346FB710B46BB71134694
S2140026A07B71BB79012B38D1FB79274AD35C002B91
S2140026B044D17B79002B12D0244B1B78DBB283F0FD
S2140026C00103DBB2002B1DD0214B00221A600A2129
S2140026D020480DF0EBFA1D4B01221A7012E01D483F
S2140026E00DF05DFB034683F00103DBB2002B09D03F
S2140026F0174B00221A600A2116480DF0A7FA134B52
S21400270001221A70FB79104A0121D154FB79104A34
S2140027101268114941F8232010E0FB790A4AD35C7D
S214002720002B0BD0FB79084A0021D154084B1A68BD
S214002730FB79094951F82330D31A00E000231846E4
S2140027400837BD4680BD00BF1C09002014090020C4
S21400275018090020DC0800202409002080B582B07B
S21400276000AF0346FB71FB790A2B17D00A2B06DC59
S214002770072B0FD0092B21D0062B07D022E0CD2B1C
S21400278014D0CE2B16D00B2B0CD01BE0002000F064
S214002790D6FA17E0012000F0D2FA13E0022000F08B
S2140027A0CEFA0FE0032000F0CAFA0BE0042000F097
S2140027B0C6FA07E0052000F0C2FA03E0062000F0A3
S2140027C033FB00BF00BF0837BD4680BD80B586B06E
S2140027D000AF0346B9607A60FB7300237B61FB7B26
S2140027E0052B39D801A252F823F000BF05280000B7
S2140027F013280000212800002F2800005928000078
S2140028003D280000BB68032B2DD14FF080737B6101
S21400281029E0BB680D2B28D14FF000737B6124E0C4
S214002820BB680A2B23D14FF080537B611FE0BB6847
S2140028300E2B1ED14FF480137B611AE0BB68022B6F
S21400284003D14FF480337B6115E0BB68072B12D1B0
S2140028504FF400337B610EE04FF41F7215490020E1
S21400286010F0F6F808E000BF06E000BF04E000BF86
S21400287002E000BF00E000BF7B69002B14D00023FD
S2140028803B617B68012B01D17B693B6139697869C3
S2140028900CF07CFE084B9B6923F03003064A43F09D
S2140028A020039361012300E0002318461837BD4635
S2140028B080BD00BFCC8B020000300E4080B586B0D5
S2140028C000AF0346FB71FB791846FFF7AFFD0346E2
S2140028D0002B1CD0FB791846FFF7E4FD0346FB757A
S2140028E0FB791846FFF7FCFD3861FB791846FFF7C1
S2140028F015FEF860FB68012B14BF01230023DBB232
S214002900BB60F87DBB68032239690CF0FDFD00BF93
S2140029101837BD4680BD000080B582B000AF0346C4
S214002920FB71FB791846FFF729FD0346002B09D0FB
S214002930FA79074913465B001344DB000B44043363
S2140029401B6800E0034B18460837BD4680BD00BF35
S214002950348C0200308C020080B582B000AF034693
S214002960FB71FB791846FFF709FD0346002B09D0DB
S214002970FA79074913465B001344DB000B44103317
S2140029801B6800E0012318460837BD4680BD00BF1F
S214002990348C020080B582B000AF0346FB71FB7931
S2140029A01846FFF7EBFC0346002B09D0FA790749D7
S2140029B013465B001344DB000B4414331B6800E033
S2140029C0002318460837BD4680BD00BF348C020081
S2140029D080B586B000AF03460A46FB711346BB714E
S2140029E0FB791846FFF7AAFC0346002B23D0FB7999
S2140029F01846FFF7DFFC0346BB75FB791846FFF762
S214002A00F7FC3861FB791846FFF7A6FFF86001234C
S214002A10FB75FB68012B14BF01230023DBB2BB60F0
S214002A20BB79002B01D00423FB75FA7DB87DBB680B
S214002A3039690CF069FD00BF1837BD4680BD80B50A
S214002A4086B000AF03460A46FB711346BB71FB799E
S214002A501846FFF773FC0346002B26D0FB79184672
S214002A60FFF7A8FC0346FB75FB791846FFF7C0FC8A
S214002A703861FB791846FFF76FFFF860BB79002BCB
S214002A8002D1FB68012B05D0BB79012B08D1FB686E
S214002A90002B05D1FB7D39691846FFF7FEFB04E0E5
S214002AA0FB7D39691846FFF7CBFB00BF1837BD46DC
S214002AB080BD80B582B000AF0346FB71FB79012B69
S214002AC010D0022B07D1002300224FF4617164203E
S214002AD000F060FD07E0002300220021002000F047
S214002AE059FD00E000BF00BF0837BD4680BD0000AE
S214002AF080B400AF034B1B681846BD465DF8047BE8
S214002B00704700BF4009002080B582B000AF034682
S214002B10FB71FB791846FFF7A9FC0346002B09D08A
S214002B20FA79074913465B001344DB000B44013374
S214002B301B7800E0002318460837BD4680BD00BF5E
S214002B40DC8C020080B582B000AF0346FB71FB79D7
S214002B501846FFF78BFC0346002B09D0FA79074985
S214002B6013465B001344DB000B4404331B6800E091
S214002B70034B18460837BD4680BD00BFDC8C0200FC
S214002B80308C020080B582B000AF0346FB71FB7943
S214002B901846FFF76BFC0346002B09D0FA79074965
S214002BA013465B001344DB000B4415331B7800E030
S214002BB0402318460837BD4680BD00BFDC8C0200A7
S214002BC080B584B000AF03463960FB710023FB7309
S214002BD01CE0FB7B1846FFF729FC0346002B12D0AF
S214002BE0FB7B1846FFF75EFC03461A46FB799342CA
S214002BF009D1FB7B1846FFF773FC02463B689342FD
S214002C0001D1FB7B06E0FB7B0133FB73FB7B062BD2
S214002C10DFD9082318461037BD4680BD80B588B07A
S214002C2002AF0346FB71FB791846FFF7FFFB03462E
S214002C30002B48D0264B1B7883F00103DBB2002B19
S214002C4014D0244A01212448FDF7CAFA06F035FFBD
S214002C5005211220FFF736FA05210A20FFF732FA7F
S214002C601E4B00221A701A4B01221A70FB79184666
S214002C70FFF718FC0346FB75FB791846FFF730FC98
S214002C803861FB791846FFF749FCF860FB7918466F
S214002C90FFF762FC0346002B05D0FB7DFA68396916
S214002CA01846FFF793FDF87D012301930123009357
S214002CB001233A6939690CF0DBFB3B69DBB2084952
S214002CC0184606F00BFF00BF1837BD4680BD00BF94
S214002CD044090020F1250000DC080020140900202B
S214002CE05D27000080B586B000AF0346FB71FB7918
S214002CF01846FFF79BFB0346002B1BD0FB791846B4
S214002D00FFF7D0FB0346FB75FB791846FFF7E8FB99
S214002D103861FB791846FFF701FCF860FB7D3969DE
S214002D201846FFF763FAB860BA68FB689A4201D1A2
S214002D30012300E0002318461837BD4680BD80B545
S214002D4082B000AF0346FB71FB79002201211846D2
S214002D5000F004F800BF0837BD4680BD80B584B0DB
S214002D6000AF0346FB710B46BB7113467B71FB79C4
S214002D701846FFF7F1FB0346002B02D02948FFF761
S214002D8019FAFB791846FFF7ADFF0346012B06D16B
S214002D90BA79FB7901211846FFF77AFC3EE0FB7909
S214002DA01846FFF7EFFE0346FB737B79002B08D02F
S214002DB0FB7B0233DBB2BA7911461846FFF7A6FA58
S214002DC02CE0BA79FB7900211846FFF761FCB86061
S214002DD0BB6841F28832934208D9FB7B0433DBB2EE
S214002DE0BA7911461846FFF791FA17E0BB68142B1C
S214002DF014D9BB68B3F5967F08D2FB7B0233DBB2EF
S214002E00BA7911461846FFF781FA07E0FB7B0133D3
S214002E10DBB2BA7911461846FFF778FA00BF1037CA
S214002E20BD4680BD0000131380B582B000AF0346D8
S214002E30FB71FB7900220121184600F005F800BF5F
S214002E400837BD4680BD000080B582B000AF03469F
S214002E50FB710B46BB7113467B71BB79002B09D007
S214002E60FB791846FFF778FB0346002B02D0204874
S214002E70FFF7A0F9FB791846FFF734FF0346012B4E
S214002E8015D11C4B1B7883F00103DBB2002B2BD033
S214002E90FB791846FFF776FE03461A46BB791946B5
S214002EA01046FFF733FA134B01221A701CE07B79A9
S214002EB0002B0AD0FB791846FFF764FE03461A4635
S214002EC0BB7919461046FFF721FAFB791846FFF73B
S214002ED059FE03460133DBB2BA7911461846FFF7AE
S214002EE015FA044B00221A7000BF0837BD4680BD95
S214002EF0000013134509002080B582B000AF012101
S214002F0024480BF0E9F8244B00221A600023FB71DA
S214002F100FE0FB791846FFF7D1FCFB791F4A00212A
S214002F20D154FB791E4A002142F82310FB79013365
S214002F30FB71FB79062BECD9FFF7DCF9FFF74AF9B2
S214002F4003461B0C1B04174A1360164B1B681846D7
S214002F50FFF730F900233B6008E03B68DBB2012155
S214002F601846FFF735FD3B6801333B603B68062B90
S214002F70F3D901230422052100200CF0C5FA012311
S214002F80002200210020FEF781F8002318460837AB
S214002F90BD4680BD00350800180900201C09002029
S214002FA0240900204009002080B584B000AF786076
S214002FB00023BB607B68002B72D07B681B68002BED
S214002FC06ED07B681B6803F08073002B0AD000234A
S214002FD0FB730323BB607B681B6823F080727B68EF
S214002FE01A6053E07B681B6803F00073002B0AD05E
S214002FF00123FB730D23BB607B681B6823F0007204
S2140030007B681A6042E07B681B6803F08053002BE5
S2140030100AD00223FB730A23BB607B681B6823F07D
S21400302080527B681A6031E07B681B6803F480136B
S214003030002B0AD00323FB730E23BB607B681B6840
S21400304023F480127B681A6020E07B681B6803F418
S2140030508033002B0AD00523FB730223BB607B68FA
S2140030601B6823F480327B681A600FE07B681B685D
S21400307003F40033002B09D00523FB730723BB6042
S2140030807B681B6823F400327B681A60BB68002BE1
S21400309006D0FB7BB9681846FFF792FD034600E0B2
S2140030A0082318461037BD4680BD80B584B000AFF3
S2140030B078600AE03B1D1846FFF776FF0346FB7371
S2140030C0FB7B082B01D1002303E07B68002BF1D1AA
S2140030D0012318461037BD4680BD80B584B000AFCA
S2140030E078603B1D1846FFF75FFF0346FB73FB7BCC
S2140030F0082B15D0FB7B1846FFF706FD0346012B71
S21400310006D1FB7B012200211846FFF79DFE05E055
S214003110FB7B012200211846FFF720FE012300E07A
S214003120002318461037BD4680BD80B500AFFEF7B9
S214003130F3FF00BF80BD000080B582B000AF012164
S2140031400120FFF77CFC00210220FFF778FC00231B
S2140031507B6002E07B6801337B607B680A4A9342AF
S214003160F8DD00210120FFF76AFC01210220FFF7AD
S21400317066FC00233B6002E03B6801333B603B6833
S214003180014A9342F8DDDAE73F420F0080B584B08B
S21400319000AF0346FB71FB79642B00F2DC8001A2D2
S2140031A052F823F039330000433300004D3300005B
S2140031B04D3300005733000039330000433300001E
S2140031C0393300003933000057330000573300000E
S2140031D057330000573300005733000057330000C2
S2140031E057330000573300005733000057330000B2
S2140031F057330000573300005733000057330000A2
S2140032005733000057330000573300005733000091
S2140032105733000057330000573300005733000081
S214003220573300004D3300004D3300005733000085
S2140032305733000057330000573300005733000061
S2140032405733000057330000573300005733000051
S2140032505733000057330000573300005733000041
S2140032605733000057330000573300005733000031
S2140032705733000057330000573300005733000021
S2140032805733000057330000573300005733000011
S2140032905733000057330000573300005733000001
S2140032A05733000039330000393300004333000041
S2140032B0433300003933000039330000393300004F
S2140032C057330000573300005733000057330000D1
S2140032D057330000573300005733000057330000C1
S2140032E057330000573300005733000057330000B1
S2140032F057330000573300005733000057330000A1
S2140033005733000057330000573300005733000090
S2140033105733000057330000573300005733000080
S214003320573300004D3300004D33000039330000A2
S21400333039330000393300000123FB730023BB73CD
S21400334010E00023FB730123BB730BE00023FB7329
S2140033500023BB7306E0FB7919460B480FF092FB7F
S21400336000230CE0FB7B04220E2101200CF0CCF89D
S214003370BB7B04220F2101200CF0C6F8012318465F
S2140033801037BD4680BD00BF848D020080B584B076
S21400339000AF0346FB710123FB60FB791846FFF77D
S2140033A0F5FEF860FB6818461037BD4680BD000085
S2140033B080B483B000AF0346FB71FB7903F01F02B5
S2140033C0074997F907305B09012000FA02F241F835
S2140033D0232000BF0C37BD465DF8047B704700BF56
S2140033E000E100E080B483B000AF03463960FB71B3
S2140033F097F90730002B0BDA3B68DAB20C49FB79F9
S21400340003F00F03043B5201D2B20B441A7609E0D4
S2140034103B68DAB2074997F907305201D2B20B443B
S21400342083F8002300BF0C37BD465DF8047B704769
S21400343000ED00E000E100E080B483B000AF78600B
S21400344039607B683A689A6200BF0C37BD465DF803
S214003450047B704780B483B000AF786039607B68C7
S214003460DA6A3B681A437B68DA6200BF0C37BD46EF
S2140034705DF8047B704780B483B000AF78607B68EB
S2140034801B6A18460C37BD465DF8047B7047000083
S21400349080B586B000AF0346FB71374B1B7883F0D0
S2140034A00103DBB2002B62D0FB7901211846FFF73F
S2140034B08FFA012131480AF0B1FC0A2130480BF09E
S2140034C0D9F904212F480AF0FBFF01212E480AF003
S2140034D003FE01212B480AF0FFFD08212B48FFF7C9
S2140034E0B9FF07211B20FFF77DFF1B20FFF760FFBA
S2140034F0FB791846FFF74EFA7861244B1B6C234A7B
S21400350023F001031364214B5B6C23F01F021F4959
S2140035107B6913434B64FB791846FFF71DFA034695
S214003520002B0CBF01230023DBB21A46184B1A608F
S21400353000233B7200237B720023BB720023FB72C6
S214003540134B1B68DBB23B73114B1B68DBB27B7300
S2140035500023BB730023FB7300233B7407F10803AF
S21400356019460A4806F062FB034B01221A7000BF98
S2140035701837BD4680BD00BF460900204809002018
S21400358002001A00600614000025080000600440CF
S2140035906009002080B58CB000AFF860B9607A6032
S2140035A0FB704D4B1B7883F00103DBB2002B06D07B
S2140035B094224A4900200FF04BFA002388E0FB686B
S2140035C0032B10D8464B1B6C454A23F001031364AB
S2140035D00021434806F014FB424B00221A70424872
S2140035E00AF03FFC73E0FA68BB681344FA2202FB59
S2140035F003F33E4AA2FB03239B097B62BB68FA22C5
S21400360002FB03F3394AA2FB03239B093B62002318
S21400361087F82F300123BB627B68002B04D0012380
S21400362087F82F307B68BB627B6AB3F5803F03D296
S214003630BB6AB3F5803F06D3BD22284900200FF0B1
S21400364007FA002344E07A6A0021254806F0AEFA1D
S2140036507A6A3B6AD31A1A460121214806F0A6FA6E
S214003660BA6A00211E4806F04BFB012201211C48C5
S21400367006F046FB1A4B1C225A6001233B750023BA
S2140036807B750123BB750023FB75194B1B68DBB2EA
S2140036903B76174B1B68DBB27B760323BB76032394
S2140036A0FB7697F82F303B770D4B1B6C0C4A43F09C
S2140036B00103136407F114031946094806F0B6FA25
S2140036C0084AFB781370002107480AF0B9FB01236B
S2140036D018463037BD4680BD46090020C08D020022
S2140036E0006004404709002048090020D34D6210BE
S2140036F06009002080B400AF034B1B781846BD4617
S2140037005DF8047B704700BF4709002080B500AF16
S2140037100E48FFF7B0FE034603F00803002B13D055
S21400372008210A48FFF788FE084B1B6C074A23F05F
S214003730010313640021054806F062FA044B0022D8
S2140037401A7004480AF09DFB00BF80BD006004406C
S214003750470900204809002080B582B000AF134A10
S21400376000211348FCF73CFD034683F00103DBB25F
S214003770002B01D0002314E00023FB710DE0FB7941
S2140037800C4A002142F83310FB790A4ADB00134446
S21400379000225A60FB790133FB71FB79022BEED9CC
S2140037A0012318460837BD4680BD00BF71390000AA
S2140037B0A46400206409002080B58EB000AFF860D5
S2140037C0B9601346FB71FB68002B02D0BB68002B68
S2140037D001D10023C4E0BB68FB62FA6A07F120034C
S2140037E01068186092889A8007F120031846FEF742
S2140037F09FF80346002B01D00123B1E00023FB61B4
S2140038000023FB7607F11B0307F11C0200210120B1
S21400381001F092F8FB7E002B01D10123A0E0FB7E95
S214003820012B13D197F82220FB691B789A420DD101
S21400383097F82330C3F30603DAB2FB695B78C3F369
S2140038400603DBB29A4201D1012389E0002387F800
S2140038503730002387F83630FB79002B3BD04248C0
S2140038600CF09DFA0346002B35D0002387F8353040
S2140038702DE097F835303D4A52F83330FA689A42D0
S21400388020D197F83530394ADB0013445B68BB62B9
S214003890BA6A07F114031068186092889A807B7ED3
S2140038A0C3F30603DAB297F82530C3F30603DBB298
S2140038B09A4207D1012387F8363097F8353087F8D3
S2140038C0373008E097F83530013387F8353097F809
S2140038D03530022BCDD997F83630002B03D022484E
S2140038E00CF015FA3BE0002387F83430002387F805
S2140038F03730002387F8333013E097F833301B4A0D
S21400390052F83330002B07D1012387F8343097F86C
S214003910333087F8373008E097F83330013387F8CC
S214003920333097F83330022BE7D997F8343083F0EA
S2140039300103DBB2002B01D0002311E0FA210A4874
S2140039400CF084F997F83730FA68084941F83320C4
S21400395097F83730054ADB001344BA685A600123EB
S21400396018463837BD4680BDA46400206409002090
S21400397090B58BB000AF78607B68524A934240F0B7
S2140039809D800023FB610023FB7607F11B0307F1F4
S2140039901C020021012000F0CFFF002387F827300B
S2140039A086E097F82730484A52F83330002B6DD01F
S2140039B097F82730444ADB0013445B68002B14BF9B
S2140039C001230023DBB2BD22404918460FF040F821
S2140039D097F827303C4ADB0013445B683B623A6A40
S2140039E007F114031068186092889A80002387F8FD
S2140039F0263046E0BA7DF96997F826309B000B44DE
S214003A001B789A420ED1FB7DC3F30603DAB2F9693E
S214003A1097F826309B000B445B78C3F30603DBB2B3
S214003A209A4229D0FA6997F826309B0013443B61E6
S214003A307B7EC3F30603DBB2BB7325233B733B7D60
S214003A4003F00203002B04D03B7B43F00203DBB2FF
S214003A503B7300237B7397F827301B4A52F833409A
S214003A6097F82730184ADB0013445B681A4607F1BC
S214003A700C0393E80300A04797F82630013387F835
S214003A802630FB7E97F826209A42B3D397F8273045
S214003A900D4A002142F8331097F827300A4ADB0017
S214003AA0134400225A6097F82730013387F82730EE
S214003AB097F82730022B7FF674AF00E000BF2C3754
S214003AC0BD4690BDA4640020640900202C8E020030
S214003AD080B5B4B000AFF860B9601346FB7107F16B
S214003AE020030833C7F8CC30BB685B78013B0A2B51
S214003AF000F2DB8001A252F823F000BF8F3B0000EB
S214003B00293B0000AB3C0000B33B0000E33B000059
S214003B10AB3C0000AB3C0000AB3C0000AB3C000004
S214003B20AB3C00004D3C0000F868FDF7DDFE0346A8
S214003B30002B01D00223B9E0A0220021D7F8CC0048
S214003B4024F058FEFB685B79C3F30603DBB2184625
S214003B50B96807F11B03D7F8CC2001F0C3FE07F1C4
S214003B601C031946F868FDF76BFEF97EFA69002318
S214003B70D7F8CC00FDF7EAFD034687F8CB3097F878
S214003B80CB30002B01D0022390E0FF238EE0FB68B1
S214003B905B79C3F30603DBB21846FB791A46B968AD
S214003BA001F066FD0346002B01D102237EE0FF23D1
S214003BB07CE0FB79022B01D8022377E0BB6898787B
S214003BC0FB685B79C3F30603DBB21946FB79BA6878
S214003BD001F04CF80346002B01D1022366E0FF23D8
S214003BE064E0F868FDF780FE034683F00103DBB26D
S214003BF0002B29D0A0220021D7F8CC0024F0FAFD13
S214003C0007F114031946F868FDF71AFED7F8CC300A
S214003C1085221A70D7F8CC3006225A70FB685B797A
S214003C20C3F30603DBB2184600F029FF03461A4624
S214003C30D7F8CC309A707A6900230321D7F8CC00E5
S214003C40FDF784FDFF2331E002232FE0F868FDF73F
S214003C504BFE034683F00103DBB2002B23D0A022E9
S214003C600021D7F8CC0024F0C5FD07F11003194653
S214003C70F868FDF7E5FDD7F8CC3085221A70D7F83E
S214003C80CC300C225A7000F03DFC03461A46D7F89A
S214003C90CC309A703A6900230321D7F8CC00FDF7A0
S214003CA055FDFF2302E0022300E000231846D0372C
S214003CB0BD4680BD80B5ACB000AF3B1D0833C7F82D
S214003CC0AC30A0220021D7F8AC0024F093FDD7F842
S214003CD0AC30002B01D100233AE03B4619461E4883
S214003CE0FDF7AEFDD7F8AC3059221A70D7F8AC30D5
S214003CF004225A70194B1B78022B01D1802200E057
S214003D000022D7F8AC309A70D7F8AC309B7843F0E6
S214003D100103DAB2D7F8AC309A70114B18780E4B14
S214003D205B79C3F30603DBB21946D7F8AC3003332E
S214003D301A4600F017FB3A680A4B0A21D7F8AC007F
S214003D40FDF704FD0346002B01D0002300E001230D
S214003D501846B037BD4680BD800900207E09002089
S214003D607C0900207D3D000080B582B000AF786001
S214003D70FFF7A0FF00BF0837BD4680BD90B583B0F3
S214003D8000AF0346FB71114B1B78022B17D1104B6B
S214003D901C78631CDAB20E4B1A700E4B1B78184652
S214003DA000F0C6FA03469C4209D20B4A00210B4893
S214003DB0FCF716FA0A2109480BF048FF02E0034B0D
S214003DC000221A700C37BD4690BD00BF7E09002049
S214003DD07C0900207D090020693D0000880900203C
S214003DE080B5B2B000AFF860B9601346FB7107F15A
S214003DF014030833C7F8C430F868FDF775FD0346AA
S214003E00002B01D00223FCE0BB685B78032B49D073
S214003E10052B00F08B80012B40F0EF80A0220021C4
S214003E20D7F8C40024F0E6FCFB79032B01D002236C
S214003E30E7E0D7F8C43059221A70D7F8C430022207
S214003E405A70BB689B7887F8C13097F8C120D7F8BE
S214003E50C4309A70D7F8C430181D97F8C110FB68A4
S214003E605B79C3F30603DBB21A4600F009FA034691
S214003E7087F8C230D7F8C43097F8C220DA7007F156
S214003E80BC031946F868FDF7DBFC97F8C23004332C
S214003E90D9B2D7F8BC200023D7F8C400FDF756FCEB
S214003EA0FF23AEE0594B1B78002B01D00223A8E07D
S214003EB0BB689B7803F04003002B0ED0534B0222C6
S214003EC01A70534B01221A70FB685B79C3F3060322
S214003ED0DBB21A464F4B1A700EE04C4B01221A709A
S214003EE0BB68DA784A4B1A70FB685B79C3F3060343
S214003EF0DBB21A46474B1A70444B1B78002B13D084
S214003F000622F968444824F06AFCFFF7D3FE03460D
S214003F1083F00103DBB2002B04D03C4B00221A7066
S214003F2002236EE0FF236CE002236AE0A022002159
S214003F30D7F8C40024F05EFCBB68DB7887F8C13095
S214003F40FB685B79C3F30603DBB21A4607F1C103CD
S214003F501946104600F078FC97F8C120FB685B799C
S214003F60C3F30603DBB21946104600F093FA034685
S214003F7087F8C33097F8C330002B01D1022340E006
S214003F8007F1BC031946F868FDF75AFCD7F8C430A9
S214003F9059221A70D7F8C43006225A7097F8C120F2
S214003FA0D7F8C4309A70D7F8C43097F8C320DA70C0
S214003FB0D7F8C430181D97F8C110FB685B79C3F3B7
S214003FC00603DBB21A4600F013FA034683F0010339
S214003FD0DBB2002B01D0022313E097F8C330043382
S214003FE0D9B2D7F8BC200023D7F8C400FDF7AEFB43
S214003FF00346002B03D0022303E0002301E000BFAA
S214004000FF231846C837BD4680BD00BF7E09002086
S2140040107C0900207D0900208009002080B5B2B010
S21400402000AFF860B9601346FB7107F11803083358
S214004030C7F8C430BB685B78013B042B00F298805D
S21400404001A252F823F000BFB74000005D40000018
S21400405071410000DB4000000D410000F868FDF7EC
S21400406043FC0346002B01D0022382E0A02200215D
S214004070D7F8C40024F0BEFBFB685B79C3F30603E5
S214004080DBB21846B96807F11303D7F8C42001F06D
S21400409029FC07F114031946F868FDF7D1FBF97CF3
S2140040A07A690023D7F8C400FDF750FB034687F86B
S2140040B0C330FF235DE0FB685B79C3F30603DBB226
S2140040C01846FB791A46B96801F0D2FA0346012B66
S2140040D001D002234DE0FF234BE0FB79022B02D1F7
S2140040E0BB6800229A70BB689878FB685B79C3F35C
S2140040F00603DBB21946FB79BA6800F0B7FD034643
S214004100002B01D1022334E0FF2332E0F868FDF7EC
S214004110EBFB0346002B01D002232AE0A02200215D
S214004120D7F8C40024F066FB07F114031946F868B4
S214004130FDF786FBD7F8C4308E221A70D7F8C43045
S21400414006225A70FB685B79C3F30603DBB2184697
S21400415000F095FC03461A46D7F8C4309A707A6980
S21400416000230321D7F8C400FDF7F0FAFF2300E090
S21400417000231846C837BD4680BD00BF90B585B041
S21400418000AF0023FB73154A3B1D07CA03C31A7012
S214004190134B01221A703C220021124824F02AFBFD
S2140041A00023FB7312E0FB7B342202FB03F30D4A71
S2140041B09C183B1D184624F059FB02463B1D194629
S2140041C0204624F00CFBFB7B0133FB73FB7B002BB0
S2140041D0E9D000BF1437BD4690BD00BFA08E0200D8
S2140041E054000020C009002080B483B000AF78607F
S2140041F00B46FB701346BB70BB78002B12D1BB7806
S2140042000B4A342101FB03F313442C337A681A60FB
S214004210BB78074A342101FB03F313443033FA78A2
S2140042201A7000E000BF0C37BD465DF8047B70478F
S214004230C009002080B483B000AF78600B46FB70E6
S2140042401346BB707B68002B01D10023FB70BB7844
S214004250002B0DD1BB78094A0633DB001344FA78ED
S2140042601A72BB78054A0633DB0013447A685A6034
S21400427000BF0C37BD465DF8047B7047C0090020C0
S21400428090B589B000AF78600B46FB701346BB70E4
S2140042900023FB76244B07F10C040FCB07C42380C6
S2140042A07B68002B02D0BB78002B01D0FB7E37E06A
S2140042B0FA78BB781D490633DB000B441B7A0133C2
S2140042C09A4202DCFB78002B03D107F10C03FB615A
S2140042D01AE0FB78012B07D1BB78342202FB03F3EC
S2140042E0124A1344FB610FE0BB78104A0633DB002A
S2140042F013445968FA781346DB009B1ADA00D31A7F
S214004300623B0B440733FB61F86924F0AFFA0346BF
S214004310FB76FB7E1A46F969786824F060FAFB7E25
S21400432018462437BD4690BDAC8E0200C00900205A
S21400433080B483B000AF0346FB71FB79002B01D03D
S214004340002307E0FB79064A0633DB0013441B7A9A
S2140043500133DBB218460C37BD465DF8047B704768
S214004360C009002080B582B000AF03463A60FB71FA
S2140043700B46BB71FA1DBB791146184600F064FA6D
S214004380FA793B681A70FB79012B06D13B6800224C
S2140043909A703B680122DA7023E0BB79134A063331
S2140043A0DB0013445A68FB7919460B46DB005B1AA0
S2140043B0D900CB1A623B13441A783B689A70BB79D3
S2140043C00A4A0633DB0013445A68FB7919460B4643
S2140043D0DB005B1AD900CB1A623B13445A783B6861
S2140043E0DA7000BF0837BD4680BD00BFC009002098
S2140043F080B582B000AF78600B46FB701346BB708A
S214004400BB78002B01D000233EE0FB78012B16D1B1
S214004410BB781F4A342101FB03F313442C3318687E
S214004420BB781B4A342101FB03F3134430331B785B
S2140044305B001A460146786824F0D1F923E0BB7881
S214004440134A0633DB0013445968FA781346DB0038
S2140044509B1ADA00D31A623B0B44D81CBB780C4A72
S2140044600633DB0013445968FA781346DB009B1AC0
S214004470DA00D31A623B0B449B785B001A4601466F
S214004480786824F0ACF9012318460837BD4680BD8D
S214004490C009002080B485B000AF03460A46FB7111
S2140044A01346BB710023FB73BB79002B01D000239E
S2140044B01FE0FB79012B0AD1BB79114A342101FB9D
S2140044C003F3134430331B785B00FB7310E0BB79B7
S2140044D00B4A0633DB0013445968FA791346DB00AF
S2140044E09B1ADA00D31A623B0B449B785B00FB7383
S2140044F0FB7B18461437BD465DF8047B704700BF4B
S214004500C009002080B400AF034B1B781846BD4698
S2140045105DF8047B704700BF5400002080B483B071
S21400452000AF78600B46FB700B4AFB7893700A4B23
S21400453025225A707B685B68074A53607B681A7A44
S214004540054B1A72044B00221A70034B18460C37A0
S214004550BD465DF8047B7047080A002080B485B02D
S21400456000AFB881B9601346FB7102E0FB79013BEE
S214004570FB713A7BFB7903F10043013B5B00B968B2
S2140045800B441B789A4203D0FB79013B002BEDDCF1
S2140045903A7BFB7903F10043013B5B00B9680B44AF
S2140045A01B789A4201D1012300E0002318461437F5
S2140045B0BD465DF8047B704780B586B000AFB88115
S2140045C039817A600023FB750023FB7546E0397B52
S2140045D07B681868FA7D1346DB009B1ADA00D31A4C
S2140045E003441B78994236D1797B7B681868FA7D3C
S2140045F01346DB009B1ADA00D31A03445B78994211
S21400460029D10023BB7519E07B681968FA7D13462B
S214004610DB009B1ADA00D31ACA18BB7D5B00134472
S214004620033301221946B868FFF798FF0346002BAC
S21400463001D0FB7D18E0BB7D0133BB757B68196834
S214004640FA7D1346DB009B1ADA00D31A0B449B78DC
S214004650BA7D9A42D8D3FB7D0133FB757B681B7904
S214004660FA7D9A42B3D3FF2318461837BD4680BD5D
S21400467080B588B000AFF860B9601346FB710023C0
S214004680FB770023FB750023BB61694B00225A6051
S214004690674B00221A72664AFB791370FB79002B6F
S2140046A001D00023C0E0FB79624A342101FB03F30A
S2140046B013442C331868FB795E4A342101FB03F35C
S2140046C0134430331978BB681A785B781B021A4398
S2140046D0002362F30F030A4601461846FFF73EFF23
S2140046E00346002B1BD0544B544A0021012000F0F7
S2140046F023F90346BB75BB7D002B06D04C4B00222E
S2140047005A604B4B00221A7209E04D4B01221A7078
S214004710474B1B7819464648FFF700FFB861FB7900
S2140047200633DB00434A1344181DBA68FB68117849
S214004730527812020A43002162F30F011A785B785E
S2140047401B021A43002362F30F0302461846FFF7C4
S21400475033FF0346FB75FB7DFF2B58D0344B5B685D
S214004760002B11D0324B1B7AFB77314B5968304BFC
S2140047701B7A9B001A46334824F031F82C4B002253
S2140047805A602B4B00221A72FB7D0233D8B2F9799D
S214004790294B2A4A00F0D0F80346BB75BB7D002B98
S2140047A010D0FB7F002B06D0214B264A5A60204AA9
S2140047B0FB7F13722BE01E4B00225A601C4B00221C
S2140047C01A7224E0FB7F002B15D0FB7F9B001D4A4E
S2140047D09818174B5968164B1B7A9B001A4623F0FD
S2140047E0FEFF134B174A5A60114B1A7AFB7F13448D
S2140047F0DAB20F4B1A72FB7D0233DAB2104B1A7024
S2140048000B4B1B7819460A48FFF788FEB861BB6950
S214004810002B08D0FB791B01DAB2094B1B78134436
S214004820DAB2BB691A70BB6918462037BD4680BD30
S214004830FC090020C0090020040A0020000A00200D
S21400484054000020140A002080B483B000AF034652
S2140048503960FB713B681B78002B0BD03B681B78DC
S2140048601946FB79084A0633DB0013441B7A0133EA
S214004870994202DD3B6801221A7000BF0C37BD4624
S2140048805DF8047B704700BFC009002090B585B076
S21400489000AF0346FB710B46BB7113467B710523C5
S2140048A0BB607B79FB7326E0B979FB79F87B1A4607
S2140048B092001A440B469B000B445B0013440344CF
S2140048C09B001C4A9C18B979FB79FA7B501C1A4647
S2140048D092001A440B469B000B445B0013440344AF
S2140048E09B00144A134404221946204623F077FFFF
S2140048F0FB7B0133FB73FA7BBB68013B9A42D3D345
S214004900B979FB79BA68501E1A4692001A440B46CB
S2140049109B000B445B00134403449B00054A13446E
S21400492004220021184623F065FF00BF1437BD4659
S21400493090BD00BF3C0A002090B587B000AFBA60BB
S2140049407B600346FB730B46BB73BB7B012B01D915
S21400495006235BE0BB68002B01D1032356E07B688F
S214004960002B01D1032351E0FB7BBA7B114618468E
S21400497000F052F8034683F00103DBB2002B01D0AF
S214004980072343E007F10F0207F10E03114618460E
S21400499000F05EFFBB7B1946FB7B013B1A4692008C
S2140049A01A4493001A460B469B000B44DB00134444
S2140049B0184A1A44BB681A607B6805221A700023DE
S2140049C0FB7519E0BB7B1C46FB7B013BF97D114860
S2140049D01A4692001A4423469B0023445B00134465
S2140049E00B4410F82330002B03D17B68FA7D1A7035
S2140049F005E0FB7D0133FB75FB7D042BE2D97B686C
S214004A001B78002B01D1022300E0002318461C3738
S214004A10BD4690BD3C0A002080B582B000AF03467C
S214004A200A46FB711346BB71FB79002B09D0BB7994
S214004A301846FFF77DFC03461A46FB79013B9A426F
S214004A4001DC002300E0012318460837BD4680BD80
S214004A5080B483B000AF03460A46FB711346BB71B1
S214004A60FB79012B04D1BB79002B01D0002300E099
S214004A70052318460C37BD465DF8047B704780B5A5
S214004A8082B000AF0346FB71FB791846FFF750FC77
S214004A90034618460837BD4680BD0000F0B583B013
S214004AA000AF3A601A460346FB710B46BB711346CD
S214004AB07B71FA1DBB1D1146184600F0C9FE694BF6
S214004AC000221A70BBE0BB791846FB79013B654AA9
S214004AD01278144664491A4692001A4403469B000C
S214004AE003445B001344234411F823203B681B78DF
S214004AF09A423BD1BB791846FB79013B594A12785A
S214004B00144659491A4692001A4403469B00034429
S214004B105B00134423449B000B445B78C3F30603FB
S214004B20DAB23B685B78C3F30603DBB29A421DD168
S214004B30BB791846FB79013B4A4A127814464A4923
S214004B401A4692001A4403469B0003445B00134433
S214004B5023449B000B445B78C3F3C013DAB23B6874
S214004B605B78C3F3C013DBB29A4214D0BB79184605
S214004B70FB79013B3B4A127814463B491A469200A1
S214004B801A4403469B0003445B001344234411F875
S214004B902330002B4DD1BB791946FB79013B314AB6
S214004BA0127810461A4692001A440B469B000B4495
S214004BB05B00134403449B002B4A134402223968CB
S214004BC0184623F00CFEBB791846FB79013B254AB4
S214004BD0127815467C7924491A4692001A440346F0
S214004BE09B0003445B0013442B449B000B4422466B
S214004BF09A7009F0C5F803461A46BB791D46FB793C
S214004C005C1E184B1B781E461046FDF76BF90346D4
S214004C10184615492246920022442B469B002B44F8
S214004C205B00134433449B000B440246DA700123B6
S214004C3013E00C4B1B780133DAB20A4B1A70FB797F
S214004C40BA7911461846FFF703FF03461A46054B86
S214004C501B789A423FF637AF002318460C37BD46FE
S214004C60F0BD00BFDD6400203C0A002090B58BB08C
S214004C7000AF3A601A460346FB710B46BB711346FB
S214004C807B713B683B62BB79012B05D8FB79012B16
S214004C9004D1BB79002B01D00023A4E0BB791846D1
S214004CA0FFF746FB0346FB77FB79002B64D0FB79C6
S214004CB0FA7F9A4260D3FA1DBB1D1146184600F0D3
S214004CC0C7FD7B79032B07D07B79042B42D13B6A47
S214004CD003331B78002B3DD1002387F8273034E0C0
S214004CE03B6A1B78852B14D1BB791C46FB79013BAC
S214004CF097F827103E481A4692001A4423469B000F
S214004D0023445B0013440B449B0003449B78012B15
S214004D1016D0BB791846FB79013B97F827101A4640
S214004D2092001A4403469B0003445B0013440B4462
S214004D309B002F4A134404220021184623F05AFDF4
S214004D4097F82730013387F8273097F82730042B59
S214004D50C6D90EE07A7907F10C000023396800F016
S214004D6014FD3B6A1878B979FA7907F10C0300F05C
S214004D7041F800F01BFC35E0FB79002B30D17A7946
S214004D8007F10C000023396800F0FFFC0023BB711C
S214004D9020E0BB791846FFF7CBFA0346FB770123E2
S214004DA087F826300DE03B6A1878B97907F10C03CE
S214004DB097F8262000F01EF897F82630013387F87B
S214004DC0263097F82620FB7F9A42ECD9BB79013330
S214004DD0DBB2BB71BB79002BDBD000F0E7FB01E058
S214004DE0002300E0012318462C37BD4690BD00BFC7
S214004DF03C0A002090B585B000AF3B600346FB71CF
S214004E000B46BB7113467B713B681B79002B02D0A7
S214004E103B681B7900E00123BB730023FB736BE048
S214004E209D4B00221A7060E0B9797B79013B9A4A63
S214004E301278144699481A4692001A440B469B006C
S214004E400B445B00134423449B0003449B78002BD5
S214004E5045D13B681B79002B03D13B681B7B002B9D
S214004E6018D0B9797B79013B8B4A127814468B4867
S214004E701A4692001A440B469B000B445B001344F0
S214004E80234410F823203B681968FB7B0B441B78EF
S214004E909A4224D1B9797B79013B7F4A1278104631
S214004EA01A4692001A440B469B000B445B001344C0
S214004EB003449B00794A134404220021184623F039
S214004EC099FC3B681B79002B09D07B79013BD8B253
S214004ED0714B1A78BB791946FFF7D8FC09E06E4B80
S214004EE01B780133DAB26C4B1A706B4B1B78042BB1
S214004EF09AD9FB7B0133FB73FA7BBB7B9A428FD339
S214004F00FB79852B00F0C3803B681B7B002B02D00F
S214004F103B681B7B00E00123BB730023FB73B0E000
S214004F205D4B00221A70A4E0B9797B79013B5A4A9E
S214004F301278144659481A4692001A440B469B00AB
S214004F400B445B00134423449B0003449B78012BD3
S214004F5040F089803B681B79002B03D13B681B7BA4
S214004F60002B5BD0B9797B79013B4B4A127814460B
S214004F704A481A4692001A440B469B000B445B00B4
S214004F801344234410F823203B689968FB7B5B009E
S214004F900B441B789A4266D1B9797B79013B3E4A2D
S214004FA0127814463D481A4692001A440B469B0057
S214004FB00B445B00134423449B0003445B78C3F319
S214004FC00603DAB23B689968FB7B5B000B445B78B0
S214004FD0C3F30603DBB29A4245D1B9797B79013B2C
S214004FE02D4A127814462D481A4692001A440B464B
S214004FF09B000B445B00134423449B0003445B78F4
S214005000C3F3C013DAB23B689968FB7B5B000B44C2
S2140050105B78C3F3C013DBB29A4224D1B9797B79AB
S214005020013B1D4A127810461A4692001A440B4657
S2140050309B000B445B00134403449B00174A134435
S21400504004220021184623F0D5FB3B681B7B002B6F
S21400505009D07B79013BD8B20F4B1A78BB79194639
S214005060FFF714FC0AE00C4B1B780133DAB20A4B4C
S2140050701A70094B1B78042B7FF656AFFB7B013367
S214005080FB73FA7BBB7B9A42FFF44AAF00E000BF9B
S2140050901437BD4690BD00BFDD6400203C0A0020EA
S2140050A0F0B597B000AF0346FB71A24B1B68002B10
S2140050B014BF01230023DBB24FF4C2729E49184688
S2140050C00DF0C6FCFB79002B40F02781994B186841
S2140050D007F12C021E23994908F034F938653B6D18
S2140050E0002B0CBF01230023DBB24FF4C57292499C
S2140050F018460DF0ADFC07F12C03FB64002387F87F
S214005100573004E1002387F85630F6E0002387F88E
S2140051105530E8E097F8564097F8575097F85530CE
S21400512097F8561097F8570097F85560FA6C3A605B
S2140051301A4652001A442B461B015B1B1A44234690
S2140051401B011B1B5B0013443A6813441D787C4C00
S2140051500246920002440B469B000B445B0013443D
S21400516033442A4604F8232097F8564097F85750B9
S21400517097F8553097F8561097F8570097F85560F7
S214005180FA6C3A601A4652001A442B461B015B1B07
S2140051901A4423461B011B1B5B0013443A68134446
S2140051A05B78C3F30603DCB2654D02469200024408
S2140051B00B469B000B445B00134433449B002B447C
S2140051C05A7864F306025A7097F8564097F8575084
S2140051D097F8553097F8561097F8570097F8556097
S2140051E0FA6C3A601A4652001A442B461B015B1BA7
S2140051F01A4423461B011B1B5B0013443A681344E6
S2140052005B78C3F3C013DCB24D4D024692000244F5
S2140052100B469B000B445B00134433449B002B441B
S2140052205A7864F3C7125A7097F8561097F85700D2
S21400523097F85530FC6C1A4652001A4403461B0178
S2140052401B1A1A440B461B015B1A5B0013442344CB
S2140052509B78C3F34013DAB297F8561097F8573096
S21400526097F855001546364C1A4692001A440B46D7
S2140052709B000B445B00134403449B0023442A46D4
S2140052809A7097F8561097F8570097F85530FC6CB8
S2140052901A4652001A4403461B011B1A1A440B46B0
S2140052A01B015B1A5B00134423449B78C3F3030380
S2140052B0DAB297F8561097F8573097F85500154613
S2140052C01F4C1A4692001A440B469B000B445B0088
S2140052D0134403449B0023442A46DA7097F855305B
S2140052E0013387F8553097F85530042B7FF612AF08
S2140052F097F85630013387F8563097F85630002B1B
S2140053003FF404AF97F85730013387F8573097F8D3
S2140053105730012B7FF6F6AE3BE1002387F8573077
S2140053201DE1002387F856300FE1002387F855303B
S21400533001E100BFE0640020BC8E02000110050001
S2140053403C0A002097F8565097F8573097F8556063
S21400535097F8561097F8570097F855408F4A3A60D6
S2140053601A4692001A442B469B002B445B001344BB
S21400537033443A6812F82350224652002244034629
S2140053801B011B1A1A440B461B015B1A5B001344D5
S21400539007F1580213444C3B2A461A7097F85650A9
S2140053A097F8573097F8556097F8561097F85700C3
S2140053B097F85540794A3A601A4692001A442B46A6
S2140053C09B002B445B00134433449B003A68134411
S2140053D05B78C3F30603DDB222465200224403463E
S2140053E01B011B1A1A440B461B015B1A5B00134475
S2140053F007F158021344A3F14C02537865F30603F1
S214005400537097F8565097F8573097F8556097F8B6
S214005410561097F8570097F85540604A3A601A4673
S21400542092001A442B469B002B445B0013443344E3
S2140054309B003A6813445B78C3F3C013DDB2224680
S2140054405200224403461B011B1A1A440B461B013A
S2140054505B1A5B00134407F158021344A3F14C0295
S214005460537865F3C713537097F8561097F857306C
S21400547097F85500494C1A4692001A440B469B0072
S2140054800B445B00134403449B0023449A7897F82C
S214005490561097F8570097F8553002F00102D4B22C
S2140054A01A4652001A4403461B011B1A1A440B469E
S2140054B01B015B1A5B00134407F158021344A3F167
S2140054C04C02937864F34513937097F8561097F848
S2140054D0573097F85500314C1A4692001A440B463E
S2140054E09B000B445B00134403449B002344DA7880
S2140054F097F8561097F8570097F8553002F00F02B5
S214005500D4B21A4652001A4403461B011B1A1A4408
S2140055100B461B015B1A5B00134407F15802134449
S214005520A3F14C02937864F30303937097F8553015
S214005530013387F8553097F85530042B7FF602AFC5
S21400554097F85630013387F8563097F85630002BC8
S2140055503FF4EBAE97F85730013387F8573097F89B
S2140055605730012B7FF6DDAE0D4B186807F10C02A5
S2140055701E230C4907F0ACFE38653B6D002B0CBFB4
S21400558001230023DBB240F2B512074918460DF09E
S2140055905FFA00BF5C37BD46F0BD00BF3C0A002086
S2140055A0E064002001100500BC8E020080B500AF4C
S2140055B00120FFF775FD00BF80BD000080B58EB0EE
S2140055C000AF03463960FB71254A07F1280392E8CD
S2140055D0030083E80300234A3B681360214B1B68E3
S2140055E0002B14BF01230023DBB240F2CD121E496C
S2140055F018460DF02DFA1B4B1B6807F128021146C2
S2140056001846FBF757FC034687F8373097F83730CD
S214005610002B02D1FB79002B1BD007F108031E22BA
S2140056200021184623F0E6F80E4B186807F108022A
S2140056301E230E4907F04CFE38633B6B002B0CBF55
S21400564001230023DBB240F2D712074918460DF0BB
S214005650FFF90020FFF724FD00BF3837BD4680BDA8
S214005660308F0200E0640020BC8E020001100500AE
S21400567090B589B000AF03463960FB711346BB7125
S2140056800023FB770023FB72FB79012B14D83B68C1
S2140056909B78012B02D1FB79002B0DD13B689B78C0
S2140056A0002B09D0FB791846FEF742FE03461A4641
S2140056B03B689B789A4201D2002362E007F10B0315
S2140056C0BA7907F10C00396800F05FF83B7C1A469F
S2140056D03B7ED4183B689B78FA7911461846FFF74C
S2140056E0B7F903469C4201DD00234AE00023FB771E
S2140056F01FE0FA68FB7F13441B783B727B7A6FF3DC
S21400570006037B727B7A6FF3C7137B723B689878CD
S21400571007F10802F9790023FFF7C0F9034683F082
S2140057200103DBB2002B01D000232AE0FB7F01330C
S214005730FB773B7CFA7F9A42DBD30023FB7719E0AA
S2140057403B6898787A69FB7F5B001A44FB7A002BEB
S21400575014BF01230023DBB2F979FFF79FF9034654
S21400576083F00103DBB2002B01D0002309E0FB7FAE
S2140057700133FB773B7EFA7F9A42E1D3FFF716FFB1
S214005780012318462437BD4690BD80B487B000AFCD
S214005790F860B9603B601346FB710023FB7500237D
S2140057A03B61BB68DA1CFB681A60FB6800221A7152
S2140057B0FB6800229A60FB6800221A73FB79032BB1
S2140057C003D8FB6800221A603CE0FB79033BFB71C0
S2140057D00023FB7530E0FB681A68FB7D13443B61D1
S2140057E03B691B78002B1FD13B6901331B78002BCC
S2140057F027D0FA79FB7D0133D31ADA0F13445B10F6
S214005800DAB2FB681A73FB681B7B002B11D03B686F
S214005810002B02D03B6801221A703B695A1CFB68B9
S2140058209A60FB79FB7504E0FB7D0133DAB2FB6816
S2140058301A71FB7D0133FB75FA7DFB799A42CAD358
S21400584000E000BF1C37BD465DF8047B70470000D3
S21400585080B485B000AF786039607B681B78002B19
S21400586034D13B681B78012B30D01C4B1B68002BB7
S2140058702CD00023FB7324E03B681978174B18687C
S214005880FA7B13465B00134403441B78994215D1F8
S214005890124B1968FA7B13465B0013440B445A7884
S2140058A07B681A700D4B1968FA7B13465B0013442D
S2140058B00B449A783B681A70012308E0FB7B01339F
S2140058C0FB73074B1B78FA7B9A42D5D30023184606
