S010000053656E736F725049522E7333377F
S214000000000001201D010100490101004901010015
S2140000104901010049010100490101009535000030
S21400002095350000953500009535000091310100AA
S2140000304901010095350000F131010055320100FB
S2140000409DC20000998A0200490101004901010091
S2140000505D850200058B0200A58A0200BD8A0200AB
S2140000609D8A020049010100C9A300004901010060
S214000070490101004901010049010100490101004F
S2140000804901010049010100F1A3000049010100F6
S214000090D9BF0000490101004901010049010100E2
S2140000A0490101004901010049010100693B0000C6
S2140000B0098B0200A18A0200A9770200E130010044
S2140000C0498B0200B1C10000AD4A0200490101009F
S2140000D049010100490101004901010049010100EF
S2140000E049010100490101004901010049010100DF
S2140000F049010100490101009535000010B5054C85
S214000100237833B9044B13B10448AFF300800123BE
S214000110237010BDA0060020000000006CD0020076
S21400012008B5034B1BB103490348AFF3008008BD75
S21400013000000000A40600206CD00200154B002B27
S21400014008BF134B9D46A3F5803A00218B460F4609
S2140001501348144A121A28F085FF0F4B002B00D0C4
S21400016098470E4B002B00D0984700200021040033
S2140001700D000D48002802D00C48AFF3008028F090
S214000180C9FE200029000EF0D3FA28F0AFFE00BF0B
S2140001900000080000000120000000000000000031
S2140001A0A0060020A07B0020000000000000000049
S2140001B080B584B002AF03463960FB71FA793B68BC
S2140001C000931346044A0821044810F057FA00BF6B
S2140001D00837BD4680BD00BFE4060020BC060020F0
S2140001E080B586B000AFF8600B467A60FB72FA7A8C
S2140001F07B68F968124810F087FA0346FB75FB7DAA
S214000200022B01D1012316E0FB7D002B12D1FB68E7
S21400021093F830301A460A4B1344002283F84820DD
S214000220FB6893F83030064A1433002142F8231056
S214000230012300E0002318461837BD4680BD00BFE6
S214000240BC06002080B582B000AF786000F026F9CA
S2140002507B6893F830301A46174B134493F84830AF
S214000260002B0AD07B6893F83030134A143352F8C8
S2140002702330002B01D0012300E0002303F001030C
S214000280DBB27F220D49184613F01AF87B6893F804
S2140002903030094A143352F82330002B08D07B68DC
S2140002A093F83030044A143352F82330786898476D
S2140002B000BF0837BD4680BDBC06002098920200ED
S2140002C080B586B000AFF8600B467A60FB72FB7AAA
S2140002D0002B14BF01230023DBB283F00103DBB243
S2140002E003F00103DBB28F221949184612F0E8FF2B
S2140002F0FA7A184BF968184810F006FA0346FB75A8
S214000300FB7D002B1FD1154B1B7883F00103DBB25E
S214000310002B05D012480EF0FAF9104B01221A7085
S214000320FB6893F830301A460B4B1344012283F8CF
S2140003304820FB6893F83030074914337A6841F850
S2140003402320012300E0002318461837BD4680BD51
S2140003509892020045020000BC0600202C070020F0
S2140003604D05000080B584B000AF7860396039680C
S214000370786810F0A1F80346FB7300F08FF8FB7B5B
S21400038018461037BD4680BD80B584B000AF786093
S214000390786810F008F90346FB7300F07FF8FB7BE3
S2140003A018461037BD4680BD80B500AF024810F035
S2140003B073F900BF80BD00BFBC06002080B582B0C8
S2140003C000AF78607968034810F0C8F900BF0837B6
S2140003D0BD4680BDBC06002080B400AF0023184692
S2140003E0BD465DF8047B704780B483B000AF002341
S2140003F07B6000233B600CE00B4A3B6813444833A9
S2140004001B78002B02D07B6801337B603B6801338E
S2140004103B603B68072BEFD97B68013318460C37E7
S214000420BD465DF8047B7047BC06002080B584B0EE
S21400043000AFFFF7D1FFB860FFF7D6FF7860002364
S2140004403B60BA687B689A4234BF01230023DBB264
S214000450F1221149184612F033FFBB68FB6012E028
S2140004600021F8680BF0BCFE38603B68002B0CBF20
S21400047001230023DBB2F5220749184612F020FFBD
S214000480FB680133FB60FA687B689A42E8D900BFD4
S2140004901037BD4680BD00BF9892020080B586B07A
S2140004A000AF02237B610023FB6011F085FFB8607C
S2140004B0B96801200BF094FEF860FB68002B0CBFB7
S2140004C001230023DBB240F227121E49184612F021
S2140004D0F7FE00233B612DE01B4A3B69134448337B
S2140004E01B78002B23D0184A3B690A3352F8233076
S2140004F07B604FF0FF333B603B461A46B96878682E
S21400050010F092F83B68194678690BF069FEF860BF
S214000510FB68002B0CBF01230023DBB240F237122E
S2140005200849184612F0CCFE7B6901337B613B69B3
S21400053001333B613B69072BCED900BF1837BD4658
S21400054080BD00BF98920200BC06002080B582B035
S21400055000AF11F031FF7860796800200BF040FEA4
S21400056038603B68002B0CBF01230023DBB240F24F
S2140005704B120449184612F0A3FE00BF0837BD46CA
S21400058080BD00BF9892020080B58EB000AF0346D3
S214000590FB7100233B610023FB6000237B6200238A
S2140005A087F83730002387F836300023BB600023F7
S2140005B03B6300233B620023FB62002387F82B305B
S2140005C0FB79042B03D0FB79012B40F0C88012F096
S2140005D0B1FC07F11003194600200BF0F1FD78621C
S2140005E07B6A002B0CBF01230023DBB24FF4B572ED
S2140005F05E49184612F064FE07F10C031946012006
S2140006000BF0DEFD78627B6A002B0CBF0123002313
S214000610DBB240F26F125549184612F051FE3B69A4
S214000620002B00F09E80FB68002B00F09A803A6951
S214000630FB689A4204D33A69FB68D31A3B6304E02A
S2140006403A69FB68D31A013B3B6312F079FC024619
S2140006503B6B13443B62002387F8373074E097F80F
S2140006603730434A134493F84830002B67D097F846
S214000670363002331A4607F10803194610460BF0C7
S2140006809FFD78627B6A002B0CBF01230023DBB240
S2140006904FF4CA723549184612F012FE7B6A002BD8
S2140006A048D197F83730324A0A3352F82330FB6184
S2140006B0BB683A6B9A4234BF01230023DBB24FF487
S2140006C0CE722A49184612F0FBFDBB683A6A9A4277
S2140006D004D2BA683B6AD31AFB6203E0BB683A6A84
S2140006E0D31AFB62FB6A092B03D8F8690FF0B0FF38
S2140006F020E0BB68B3F1FF3F1CD0BB683A6A9A4261
S21400070018D2BA683B6AD31ABB61B969F8690FF0A8
S214000710D3FE0346FB75FB7D002B0CBF0123002395
S214000720DBB24FF4E6721149184612F0C9FD0123F8
S21400073087F82B3097F83630013387F8363097F83D
S2140007403730013387F8373097F83730072B86D99C
S21400075097F82B30002B05D0FFF7A0FE02E000BF75
S21400076000E000BF3837BD4680BD00BF989202004B
S214000770BC06002080B584B000AF78600B46FB70E6
S2140007807B68BB60BB68FA781A700023FB600AE0DF
S214000790FB681B01BA6813440433184600F071F96D
S2140007A0FB680133FB60FB78FA689A42F0DBBB68B3
S2140007B018461037BD4680BD80B586B002AFF860DB
S2140007C0B9607A6000230193002300937B680022BF
S2140007D0B968F86800F086F8034618461037BD4634
S2140007E080BD000080B584B000AF786039607B685B
S2140007F0BB600023FB606BE0BA68FB681B01134418
S21400080004331B78032B5BD801A252F823F000BFF9
S214000810210800004108000077080000C108000019
S214000820BA68FB681B01134410331B68B968FA6882
S21400083012010A440C32126839681046984744E0A0
S2140008403B681B799AB2B968FB681B010B440633F8
S2140008501B889A4236D1BA68FB681B0113441033D2
S2140008601B68B968FA6812010A440C3212683968C3
S2140008701046984726E03B681B799AB2B968FB6831
S2140008801B010B4406331B889A421DD13B685A79DC
S214000890B968FB681B010B4408331B789A4213D1D6
S2140008A0BA68FB681B01134410331B68B968FA6802
S2140008B012010A440C32126839681046984703E061
S2140008C000BF02E000BF00E000BFFB680133FB6032
S2140008D0BB681B781A46FB6893428DDB00BF103757
S2140008E0BD4680BD80B58AB000AFF860B9603B6099
S2140008F01346FB71F86800F0DDF803461A46FB68FD
S2140009001B789A4201D1002366E0FB793B743B8E4C
S2140009107B8297F834303B75BB68BB613B68FB61F4
S21400092007F11003184600F0EAF8034683F00103C7
S214000930DBB2002B01D000234EE007F1100319466E
S214000940F86800F04DF80346002B01D0002343E082
S214000950FB683B6200237B6237E03A6A7B6A1B01D6
S214000960134404331B78032B2CD13A6A7B6A1B0191
S21400097013440433FA791A703A6A7B6A1B011344EB
S21400098010333A681A603A6A7B6A1B0113440C33C8
S214000990BA681A603B8E002B12D03A6A7B6A1B013B
S2140009A0134406333A8E1A8097F83430002B07D05B
S2140009B03A6A7B6A1B011344083397F834201A708E
S2140009C0012309E07B6A01337B623B6A1B781A4687
S2140009D07B6A9342C1DB002318462837BD4680BD9C
S2140009E080B485B000AF786039607B68BB60002358
S2140009F0FB733AE0FB7BBA681B01134404331A7896
S214000A003B681B789A422DD1FB7BBA681B011344C6
S214000A1006331A883B685B889A4223D1FB7BBA6808
S214000A201B01134408331A783B681B799A4219D184
S214000A30FB7BBA681B01134410331A683B68DB68FB
S214000A409A420FD1FB7BBA681B0113440C331A6819
S214000A503B689B689A4205D1FB7B1B01BA6813442E
S214000A60043308E0FB7B0133FB73BB681B78FA7B1F
S214000A709A42BFD3002318461437BD465DF8047B60
S214000A80704780B483B000AF78607B6803221A702A
S214000A907B6800225A807B6800221A717B680022DD
S214000AA0DA607B6800229A6000BF0C37BD465DF8AE
S214000AB0047B704780B485B000AF78600023FB737A
S214000AC07B68BB600023BB730DE0BB7BBA681B0171
S214000AD0134404331B78032B02D0FB7B0133FB73D8
S214000AE0BB7B0133BB73BB681B78BA7B9A42ECD3E3
S214000AF0FB7B18461437BD465DF8047B704780B410
S214000B0083B000AF78607B68DB68002B13D07B680F
S214000B101B78012B03D17B685B88002B0BD07B688E
S214000B201B78022B09D17B681B79002B03D07B68CE
S214000B305B88002B01D1002300E0012318460C3708
S214000B40BD465DF8047B704780B483B000AF786024
S214000B507B689B6C18460C37BD465DF8047B704777
S214000B6080B483B000AF78600B46FB70FA787B6881
S214000B709A6000BF0C37BD465DF8047B70470000E6
S214000B8080B586B000AF0346FB7107F10C03002268
S214000B901A605A609A60FF237B740323BB73FB7949
S214000BA03B740023FB7309237B7307F10C03194680
S214000BB003480BF053FD00BF1837BD4680BD00BF8D
S214000BC00020004080B582B000AFE020FFF7D8FFDD
S214000BD001210D48FFF7C4FF00BF0B4BDB6803F095
S214000BE00103002BF9D10848FFF7AEFF78607B6859
S214000BF041F2883202FB03F31B0B7B607B681846CE
S214000C000837BD4680BD00BF0020004080B582B0DA
S214000C1000AF00233B7000237B701F23BB700023B4
S214000C20FB7000233B7100237B7101210B480DF004
S214000C3089FE00200BF0F4FD0346BB700021084837
S214000C400BF064FD0346FB703B46194605480BF067
S214000C507BFD00BF0837BD4680BD00BF00B2040064
S214000C60C0CF6A000020004080B500AF04480BF0FB
S214000C70A7FD002103480DF065FE00BF80BD00BF44
S214000C800020004000B2040080B400AF034B1B6A93
S214000C901846BD465DF8047B704700BFB09302005F
S214000CA080B400AF044B1B6A1B0CDBB21846BD4673
S214000CB05DF8047B704700BFB093020080B400AFBD
S214000CC0044B1B6A1B0ADBB21846BD465DF8047B64
S214000CD0704700BFB093020080B400AF034B1B6A9E
S214000CE0DBB21846BD465DF8047B7047B093020041
S214000CF080B586B000AF3B600346FB710B46BB7108
S214000D0013467B710DF072FC0346184601F004FA98
S214000D100346FB750DF05EFC38613B695B681B782B
S214000D20FB737B6A002B0BD0BB7997F828201946FB
S214000D30786A28F02DF90346002B01D001233CE009
S214000D40FB7B03F00403002B07D0FB7D032B04D0B2
S214000D50FB7D042B01D000232FE0FB7D002B15D05C
S214000D60FA79FB7D9A4211D13B68002B0ED0BB79F5
S214000D7097F820201946386828F00AF90346002B11
S214000D8002D1BB79202B01D1012316E0FB7D002B7D
S214000D9004D1BB79202B01D101230EE0FB7D042B6F
S214000DA00AD1BB79722B07D17B79042B04D1FB794E
S214000DB0002B01D1012300E0002318461837BD465A
S214000DC080BD80B58CB000AF03460A46FB71134663
S214000DD0BB710DF0EDFBF86265233B72FB793B734C
S214000DE0BB797B73FB6A9B6807F1080100221846F3
S214000DF00FF0BAFC00BF3037BD4680BD80B584B06A
S214000E0000AF78600F4812F099FA0F4B1B6819462E
S214000E100E480CF0D7FFF860FB68002B0AD0F96884
S214000E200B4812F067FA40220A49002012F048FAEE
S214000E30002303E07B68054A1A6001231846103732
S214000E40BD4680BDFC92020018000020300700203E
S214000E50189302004893020080B586B000AF786011
S214000E6039600023FB7500233B6118E07B68186837
S214000E707B689A683B69DB001344194600F01AF851
S214000E800346FB733A683B691344FA7B1A70FB7B94
S214000E90002B01D00123FB753B6901333B617B6866
S214000EA05B683A699A42E1D3FB7D18461837BD461F
S214000EB080BD000080B586B000AF786039607B6882
S214000EC0002B14BF01230023DBB263220F49184610
S214000ED012F0F6F93B68196807F10C0307F11002E7
S214000EE078680CF0D1FE78617B69002B01D0022374
S214000EF007E03B685A68FB689A4201D0032300E08B
S214000F00002318461837BD4680BD00BF4893020030
S214000F1080B500AFB0220021024828F0A3F800BF39
S214000F2080BD00BFC007002080B582B000AF7860EB
S214000F300A4800F089F8034683F00103DBB2002B71
S214000F4001D0002306E0054A7B685360044808F099
S214000F500BFD044B18460837BD4680BDC007002071
S214000F60CC070020D007002080B582B000AF7860A4
S214000F700B46FB707B68074A934206D1FB781946FE
S214000F80054808F03FFD012300E000231846083717
S214000F90BD4680BDD0070020CC07002080B584B0B9
S214000FA000AFF860B9601346FB71124B1B78012B3B
S214000FB01BD1114808F0F8FC0F4808F037FD03462F
S214000FC01A46BB681A70FB79002B09D0FB680A4AE0
S214000FD01A60BB681B780433DAB2BB681A7002E08A
S214000FE0FB68064A1A60012300E000231846103703
S214000FF0BD4680BDC0070020CC070020D0070020DB
S21400100080B582B000AF7860084B5B68002B03D0D9
S214001010064B5B68786898477B689B78012B01D104
S21400102000F006F800BF0837BD4680BDC0070020A8
S21400103080B500AF034B00225A60024800F018F853
S21400104000BF80BDC007002080B483B000AF7860CA
S2140010507B681B78002B04D17B6801221A70012361
S21400106000E0002318460C37BD465DF8047B704749
S21400107080B483B000AF78607B6800221A7000BF2F
S2140010800C37BD465DF8047B7047000080B584B021
S21400109000AFB9607B600346FB731346BB730F4B10
S2140010A000221A7001210E480DF04CFC0B490D4829
S2140010B009F00AFBFB7BBA6819460A4800F0CFF82D
S2140010C0BB7B7A681946074800F0EBF80021044815
S2140010D00DF038FC00BF1037BD4680BD1C00002058
S2140010E0003204000000014080B584B000AFB96053
S2140010F07B600346FB731346BB730F4B00221A70CC
S21400110001210E480DF01EFC0B490D4809F0DCFAD3
S214001110FB7BBA6819460A4800F0A1F8BB7B7A68E0
S2140011201946074800F0BDF8002104480DF00AFCF7
S21400113000BF1037BD4680BD3800002000420400C6
S2140011400004014080B582B000AF78600B46FB70AB
S2140011501346BB70012106480DF0F4FBBB78FA7805
S2140011607968044800F03CF800BF0837BD4680BDEB
S214001170003204000000014080B582B000AF786005
S2140011800B46FB701346BB70012106480DF0DAFBD8
S214001190BB78FA787968044800F022F800BF083770
S2140011A0BD4680BD004204000004014080B582B008
S2140011B000AF786039600AE07B685A1C7A601B785A
S2140011C01946064809F05EFB3B68013B3B603B68FE
S2140011D0002BF1D100BF0837BD4680BD000001409E
S2140011E080B584B000AFF860B96011461A460B4669
S2140011F0FB711346BB710023BA680021F86809F03A
S214001200DFF9FB685B6F23F03F02FB685A67FB79E8
S214001210002B09D0FB685B6F43F00202FB685A673D
S2140012200421F86809F024FABB79002B09D0FB6882
S2140012305B6F43F00102FB685A670121F86809F00A
S21400124017FAFB79002B06D0BB79002B03D00521BB
S214001250F86809F00DFA00BF1037BD4680BD80B5AE
S21400126084B000AFF8600B467A60FB72F87A012310
S214001270042279680EF07EFDFB689B6F23F4F8521B
S214001280FB689A67FB7A7968184600F02DF80246E4
S214001290FB689B6F1A43FB689A6700BF1037BD4612
S2140012A080BD80B584B000AFF8600B467A60FB72F4
S2140012B0F87A0023012279680EF05CFDFB689B6FCC
S2140012C023F01F02FB689A67FB7A7968184600F0DD
S2140012D0D1F80246FB689B6F1A43FB689A6700BF0B
S2140012E01037BD4680BD000080B483B000AF034613
S2140012F03960FB71FB79052B00F2B48001A252F82D
S21400130023F000BF1D130000631300009F130000AE
S214001310E7130000651400000B1400003B68002B68
S21400132001D100239FE03B68012B02D14FF480736C
S21400133099E03B68022B02D14FF4007393E03B68C0
S214001340032B02D14FF440738DE03B68042B02D18F
S2140013504FF4806387E03B68052B7AD14FF4A06397
S21400136081E03B680B2B02D14FF4C0637BE03B6807
S2140013700C2B02D14FF4E06375E03B680D2B02D1D5
S2140013804FF400636FE03B680E2B02D14FF41063FE
S21400139069E03B680F2B5ED14FF4206363E03B6847
S2140013A0062B02D14FF430635DE03B68072B02D179
S2140013B04FF4406357E03B68082B02D14FF450636C
S2140013C051E03B68092B02D14FF460634BE03B6869
S2140013D00A2B02D14FF4706345E03B680B2B3CD1DF
S2140013E04FF480533FE03B680D2B02D14FF4A853D7
S2140013F039E03B680E2B02D14FF4B05333E03B6824
S2140014000F2B2CD14FF4B8532DE03B68002B02D1A4
S2140014104FF4C05327E03B68012B02D14FF4C8536A
S21400142021E03B68022B02D14FF4D0531BE03B680F
S214001430032B02D14FF4D85315E03B68042B02D19E
S2140014404FF4E0530FE03B68052B0AD14FF4E85306
S21400145009E000BF06E000BF04E000BF02E000BFF6
S21400146000E000BF002318460C37BD465DF8047B3D
S214001470704700BF80B483B000AF03463960FB718D
S214001480FB79052B00F29B8001A252F823F000BFE7
S214001490A9140000E51400001715000053150000FD
S2140014A0BF150000711500003B68002B01D11F23FB
S2140014B086E03B68012B01D1002381E03B68022BCC
S2140014C001D101237CE03B68032B01D1022377E0A6
S2140014D03B68042B01D1032372E03B68052B65D1E2
S2140014E004236DE03B680B2B01D1052368E03B68C5
S2140014F00C2B01D1062363E03B680D2B01D107239B
S2140015005EE03B680E2B01D1082359E03B680F2BA9
S2140015104ED1092354E03B68062B01D10A234FE045
S2140015203B68072B01D10B234AE03B68082B01D10F
S2140015300C2345E03B68092B01D10D2340E03B68B6
S2140015400A2B01D10E233BE03B680B2B32D10F2335
S21400155036E03B680D2B01D1142331E03B680E2B9F
S21400156001D115232CE03B680F2B25D1162327E04D
S2140015703B68002B01D1172322E03B68012B01D1E9
S21400158018231DE03B68022B01D1192318E03B68A5
S214001590032B01D11A2313E03B68042B01D11B2334
S2140015A00EE03B68052B09D11C2309E000BF06E0CE
S2140015B000BF04E000BF02E000BF00E000BF002361
S2140015C018460C37BD465DF8047B704780B483B080
S2140015D000AF78603960064A7B681360054A3B684E
S2140015E0136000BF0C37BD465DF8047B704700BF34
S2140015F0900800209408002080B483B000AF786084
S214001600274B5B68002B45D0254B5B689B78C3F364
S2140016100503DBB25AB2224B5B689B78C3F3801398
S214001620DBB29B015BB213435AB21D4B5B689B78DF
S214001630C3F3C013DBB2DB015BB213435BB2DAB2B7
S2140016407B681A70164B5B681B78C3F30603DBB225
S2140016505AB2134B5B681B78C3F3C013DBB2DB01D3
S2140016605BB213435BB2DAB27B685A700C4B5B68B2
S2140016705B78C3F30603DBB25AB2094B5B685B7850
S214001680C3F3C013DBB2DB015BB213435BB2DAB267
S2140016907B689A7000BF0C37BD465DF8047B7047C8
S2140016A07008002080B483B000AF0346FB71144B73
S2140016B01B7AFA799A4202D8FB79002B01D10023D3
S2140016C018E00F4BD968FA791346DB009B1A9B008B
S2140016D01C3B0B441A780B4B1A70094BD968FA79E5
S2140016E01346DB009B1A9B001C3B0B445A78054BA9
S2140016F05A70044B18460C37BD465DF8047B70479D
S214001700700800209808002080B582B000AF03461D
S2140017100A46FB711346BB71224B1B7ABA799A4272
S21400172002D8BB79002B01D1002336E00CF05EFF17
S2140017300346184600F0F0FC0346002B12D1FB7956
S21400174083F00103DBB2002B0AD0164BD968BA79B6
S2140017501346DB009B1A9B001C3B0B4404331CE027
S214001760114B1AE0FB7983F00103DBB2002B0AD0A1
S2140017700C4BD968BA791346DB009B1A9B001C3BBE
S2140017800B440C3309E0074BD968BA791346DB00E3
S2140017909B1A9B001C3B0B44143318460837BD4667
S2140017A080BD00BF700800208808002080B485B087
S2140017B000AF03463A60FB710B46BB710023FB7219
S2140017C00023FB602EE0FB79FF2B02D1BB79FF2BB9
S2140017D01AD01F4BD968FA681346DB009B1A9B0089
S2140017E00B441B78FA799A4219D1194BD968FA68D2
S2140017F01346DB009B1A9B000B445B78BA799A422F
S21400180002D0BB79FF2B0AD1FB68DAB2FB7A591CEF
S214001810F97219463B680B440132D2B21A70FB6863
S2140018200133FB600A4B1B7A1A46FB689342CAD305
S214001830FB7A002B04D10123FB723B6800221A704E
S214001840FB7A18461437BD465DF8047B704700BF28
S2140018507008002080B584B000AF03463960FB7185
S2140018600023FB730023BB600023BB6023E0174B01
S2140018701A69BB68DB0013441B78FA799A4217D1C1
S214001880124B1A69BB68DB00134459680F4B1A6980
S214001890BB68DB0013445B781A46386827F0D7FB32
S2140018A00A4B1A69BB68DB0013445B78FB7308E0DD
S2140018B0BB680133BB60054B1B7D1A46BB68934271
S2140018C0D5D3FB7B18461037BD4680BD7008002078
S2140018D080B5BAB000AFF8607A603B600B46FB722A
S2140018E07B685B689B78002B02D17B6800229A702D
S2140018F0204A3B68136007F10B0107F10C037A6876
S214001900184606F00CFA7B685B681B7887F8C830C8
S214001910194BBB617B681B783B77F968FB7A1A46E4
S21400192007F114030A33184627F091FBFB7A7B77FE
S214001930002387F8C930002387F8CB307B685B78B4
S21400194043F00103DBB287F8CA307B685B68DB785C
S21400195087F8CC3001233B75084B1B6807F1140150
S214001960002218460EF000FF03461846E837BD462C
S21400197080BD00BFCC6400208D1B000090080020B6
S21400198080B5BAB000AFF8607A603B600B46FB7279
S214001990214A3B6813607B68002B01D1012336E0A7
S2140019A007F10B0107F10C037A68184606F0B7F941
S2140019B07B685B681B7887F8C830184BBB617B6810
S2140019C01B783B77F968FB7A1A4607F114030A334B
S2140019D0184627F03CFBFB7A7B77002387F8C93054
S2140019E0002387F8CB307B685B7887F8CA307B6843
S2140019F05B68DB7887F8CC3001233B75084B1B68A7
S214001A0007F11401002218460EF0AEFE03461846F3
S214001A10E837BD4680BD00BFD0640020D91B00005B
S214001A209008002080B586B000AFF8600B467A605C
S214001A30FB727B681B783B747B68DB7A7B747B6805
S214001A401B7ABB74FB7C6FF30603FB747B7D6FF322
S214001A5006037B757B7D6FF3C7137B75FA7A07F1F8
S214001A601003F968184609F06DFA00BF1837BD462E
S214001A7080BD000080B483B000AF78603960254B2D
S214001A80254A5A603B68234A1A607B689A78224B3C
S214001A901A707B68DB78C3F30603D9B21E4A537804
S214001AA061F3060353707B68DB7803F07F03DBB2D9
S214001AB0002B14BF01230023DBB21A46164B9A7084
S214001AC07B685A78144BDA70124B25221A707B68A2
S214001AD01B7803F00203002B06D00E4B1B7843F056
S214001AE00203DAB20B4B1A707B685B79C3F306030A
S214001AF0DBB21A46074B9A70064B00225A70054B0B
S214001B005B687A685278DA7000BF0C37BD465DF8BD
S214001B10047B70479C080020A408002080B584B091
S214001B2000AF78600023FB73786800F01BF803466C
S214001B30002B0AD17B685B7923F07F03DBB2002B96
S214001B4003D1074B1B78012B01D10123FB73044BF8
S214001B5000221A70FB7B18461037BD4680BD00BFBA
S214001B607008002080B483B000AF78607B681B7874
S214001B7003F00C03002B01D0012300E000231846DD
S214001B800C37BD465DF8047B7047000080B584B016
S214001B9000AF03463960FB7100233B73FB797B7310
S214001BA00123BB730A4B1B68002B05D0084B1B6830
S214001BB007F10C0210469847064B1B68002B02D014
S214001BC0044B1B68984700BF1037BD4680BD00BF5A
S214001BD0CC6400209408002080B582B000AF034695
S214001BE03960FB71094B1B68002B04D0074B1B6840
S214001BF0FA7910469847064B1B68002B02D0044B18
S214001C001B68984700BF0837BD4680BDD0640020DB
S214001C109408002080B483B000AF0346FB71FA79C5
S214001C20034B1A7000BF0C37BD465DF8047B704747
S214001C307008002080B483B000AF7860044A7B68E8
S214001C40136000BF0C37BD465DF8047B704700BFCD
S214001C50BC08002080B5C2B000AFF8600846114648
S214001C603A1D13600346FB720B46BB723B1D1B6896
S214001C70002B0AD03B1D1B681B7A002B05D0FB6887
S214001C80002B02D0FB7A002B01D1002308E1874A03
S214001C90D7F810311360864A3B1D1B681360854ACF
S214001CA0FB681360844AFB7A1370FB7A1946F8685F
S214001CB0FFF75AF9034683F00103DBB2002B01D08D
S214001CC00023EDE07D4ABB7A13707D4B1B689B6951
S214001CD09A787C4B1A707B4B1B7803F00703DBB2B9
S214001CE0002B05D0754B1B78002B01D0012300E09C
S214001CF0002303F00103DBB21A466F496D48FFF775
S214001D004DF9034683F00103DBB2002B01D000231C
S214001D10C6E007F1E8031D2118460AF00FFA002373
S214001D2087F80631002387F80531002387F8073146
S214001D3049E03B1D1B685A6897F807319B0013441F
S214001D40DB78012B13D03B1D1B685A6897F80731C8
S214001D509B001344DB78022B09D03B1D1B685A6896
S214001D6097F807319B001344DB78032B05D197F8CF
S214001D700631013387F806311CE03B1D1B685A68A4
S214001D8097F807319B001344DB78002B12D197F8A5
S214001D900531013387F805313B1D1B685A6897F8F3
S214001DA007319B0013441A7807F1E80311461846DA
S214001DB00AF0ACF997F80631012B0CD897F80731E2
S214001DC0013387F807313B1D1B681B7A97F80721FC
S214001DD09A42AED300E000BF3B4B00221A703B4B4A
S214001DE000221A7007F114030A33AA2200211846AB
S214001DF027F038F9FA7A07F114030A33F968184617
S214001E0027F025F9324BBB61FB7A7B7797F80631D2
S214001E10012B24D9022387F8C930FF2387F8C8305E
S214001E2000233B77264B1B689B699B78184600F07F
S214001E3073F9034687F8CA30244B02221A7004232B
S214001E403B751F4B1B681B6807F1140100221846E0
S214001E500EF08AFC0346002B21D0002320E097F8E2
S214001E600531012B18D903233B7507F1E80107F16B
S214001E701403B4331D22184627F0E9F8104B1B68EC
S214001E801B6807F11401002218460EF06DFC03468D
S214001E90002B04D0002303E0002000F029F80123E3
S214001EA0184607F58477BD4680BD00BFD464002081
S214001EB0B0080020A8080020AC080020B6080020C3
S214001EC0BC080020B7080020B5080020B80800208D
S214001ED0D51E000080B582B000AF03463960FB71A6
S214001EE0002000F005F800BF0837BD4680BD0000A2
S214001EF080B586B000AF78600023FB75594B1B7821
S214001F00002B1ED0584B1B681A7A564B1B789A42E9
S214001F1002D10123FB7501E00023FB757B681A786C
S214001F20524B1A70514AFB7D93707B685A784F4B20
S214001F305A704F4B1B68002B03D04D4B1B684B4809
S214001F409847494B1B681A7A464B1B789A4240F2D0
S214001F508580454B1B685B783B73464B1B787B73D1
S214001F60404B1B78002B0AD1424B1B7803F0020330
S214001F70002B04D07B7B43F00403DBB27B733A4B2D
S214001F801B689B78BB73384B1B685A68354B1B78AD
S214001F909B0013443B613B691A78344B1A70364BEE
S214001FA01B7803F00703DBB2002B0CD0334B1B78F7
S214001FB0002B08D03B695B7823F07F03DBB2002B55
S214001FC001D1012300E0002303F00103DBB21A462F
S214001FD02B492C48FEF7E2FF034683F00103DBB2F1
S214001FE0002B11D0214B00221A70204B02225A706F
S214001FF01E4B01229A701E4B1B68002B2BD01C4BCD
S2140020001B681A48984726E01E4B18681C4B197820
S21400201007F10C021C4BFFF75BFC0346BB75BB7D50
S214002020002B11D0114B00221A70104B02225A704E
S2140020300E4B01229A700E4B1B68002B0DD00C4BDA
S2140020401B680A48984708E0064B1B780133DAB24B
S214002050044B1A7002E000BF00E000BF1837BD4610
S21400206080BD00BFB5080020B0080020C0080020D2
S214002070D4640020B8080020B7080020B608002066
S214002080AC080020A8080020F11E000080B500AFB4
S214002090034B01221A700020FFF72AFF00BF80BD05
S2140020A0B408002080B483B000AF78603960064A78
S2140020B07B681360054A3B68136000BF0C37BD465B
S2140020C05DF8047B704700BFF8080020FC0800207D
S2140020D080B582B000AF786039600B4A7B681360C9
S2140020E00A4A3B6813600A4B1B681A78094B1A7039
S2140020F0084B1B78184600F0E9F9FEF709FF0123A4
S21400210018460837BD4680BDC408002000090020D8
S214002110FC080020D864002080B483B000AF0346DB
S214002120FB71FB7903F00403DBB2002B01D0032321
S21400213016E0FB7903F00203DBB2002B01D002238A
S2140021400EE0FB7903F00103DBB2002B01D0012384
S21400215006E097F90730002B01DA042300E000239D
S21400216018460C37BD465DF8047B704780B584B0D2
S21400217000AF0346FB710B46BB7113467B71002311
S214002180FB73FB79002B00F0CC80BB79002B6DD164
S2140021900CF02CFA0346BB737B79002B0ED1BB7B6D
S2140021A0002B05D1714B1B681A46714B1A600DE067
S2140021B06E4B1B6808336E4A136007E07B7919463E
S2140021C00020FFF7A1FA0246694B1A60694B6A4A7B
S2140021D01A60684B00221A710023FB733CE0644BC4
S2140021E01B681A68FB7B13441B78982B07D0604B40
S2140021F01B681A68FB7B13441B789F2B19D15C4B1A
S2140022001B681A68FB7B13441B78982B03D197F93D
S2140022100E30002B0DDB564B1B681A68FB7B1344F5
S2140022201B789F2B15D1BB7B03F00703DBB2002B7B
S2140022300FD04F4B1B681A68FB7B13444D4A12792C
S21400224019784D4B99544B4B1B790133DAB2494BF5
S2140022501A71FB7B0133FB73454B1B681B79FA7BBA
S2140022609A42BCD3424B434A1A6078E00CF0BEF95F
S21400227003461846FFF750FF03461A46BB799342BB
S21400228045D17B79002B05D1384B1B681033384A73
S214002290136007E07B7919460120FFF735FA0246FE
S2140022A0334B1A60BB79012B05D0BB79022B02D0C9
S2140022B0BB79032B53D12F4B2F4A1A602D4B00228C
S2140022C01A7110E02A4B1B681B682A4A12791344BD
S2140022D0284A12791978284B9954264B1B790133D2
S2140022E0DAB2244B1A71224B1B681B68214A1279FA
S2140022F013441B78EF2B06D01E4B1A791C4B1B6819
S2140023001B799A42DED31A4B1A4A1A6027E0194BF9
S21400231000221A60174B00221A71154B154A1A60D4
S2140023201DE07B79002B12D1BB79002B05D10F4B1A
S2140023301B681A460E4B1A6011E00E4B00221A60FC
S2140023400C4B00221A710A4B0A4A1A6007E07B7986
S21400235019460020FFF7D8F90246054B1A60044BD1
S2140023601B6818461037BD4680BD00BFC408002055
S2140023700409002008090020D408002080B400AF1B
S214002380034B00221A7000BFBD465DF8047B704701
S214002390D864002080B400AF034B1B781846BD46B7
S2140023A05DF8047B704700BFD864002080B582B01B
S2140023B000AF0346FB71094AFB791370FB79184698
S2140023C000F084F8064B1B68002B02D0044B1B68F9
S2140023D09847012318460837BD4680BDD8640020BC
S2140023E000090020F0B58BB004AF786039603B6818
S2140023F004337B613B6893F8A430FB743B68A833D6
S214002400FB60FB68D87A7B691C787B695D78194B22
S2140024101B681E69174B1B681B7D164A52681549B8
S214002420097A02910192009333462A462146FEF726
S2140024305FFC0346002B19D0FB681B7803F00C03E7
S214002440002B03D00C4B00221A7002E00A4B01222C
S2140024501A70FB7CFA6819467869FFF7E3FA074BAF
S2140024601B68002B02D0054B1B68984700BF1C3723
S214002470BD46F0BDC4080020D0080020000900209A
S214002480F0B587B004AF0346FB710B46BB7113462D
S2140024907B710D4B1B681E690B4B1B681B7D0A4A24
S2140024A052680949097ABD79FC79787902910192D6
S2140024B0009333462A462146FEF71AFC0346184682
S2140024C00C37BD46F0BD00BFC408002080B582B002
S2140024D000AF0346FB71FB79002B08D00CF086F8A2
S2140024E003461846FFF718FE0346002B08D10B4B91
S2140024F01A680A4B043392E8030083E8030008E0F6
S214002500064B1A68054B0433083292E8030083E84A
S214002510030000BF0837BD4680BD00BFC4080020CA
S21400252080B483B000AF03463960FB7197F907307B
S214002530002B0BDA3B68DAB20C49FB7903F00F0389
S214002540043B5201D2B20B441A7609E03B68DAB279
S214002550074997F907305201D2B20B4483F800239B
S21400256000BF0C37BD465DF8047B704700ED00E009
S21400257000E100E080B400AFBFF34F8F054BDB688F
S21400258003F4E0620349044B1343CB60BFF34F8F61
S21400259000BFFDE700ED00E00400FA0580B485B05A
S2140025A000AF786039607B6803F10473DA003B683B
S2140025B013449B00FB60FB681B6818461437BD4637
S2140025C05DF8047B704780B485B000AF78603960F2
S2140025D07B6803F1C063FB60FB683A681A6000BF63
S2140025E01437BD465DF8047B704780B485B000AFF5
S2140025F0786039607B6803F18063FB60FB683A684B
S2140026001A6000BF1437BD465DF8047B70470000B3
S21400261080B483B000AF7860044A7B68C2F8243484
S21400262000BF0C37BD465DF8047B704700A0004035
S21400263080B400AF034BD3F81C341846BD465DF893
S214002640047B704700A0004080B582B000AF034610
S2140026503960FB71FB79002B0DD0FB79012B0AD07A
S214002660FB79022B07D0FB79032B04D0FB79042BD4
S21400267001D0FB79052BFA7913465B0013441B0146
S2140026801C3303F1804303F5204339681846FFF7EF
S21400269085FF034618460837BD4680BD80B582B024
S2140026A000AF03463960FB71FB79002B0DD0FB7938
S2140026B0012B0AD0FB79022B07D0FB79032B04D021
S2140026C0FB79042B01D0FB79052BFA7913465B00C6
S2140026D013441B010C3303F1804303F5204301210F
S2140026E03A6801FA02F211461846FFF77EFF00BF6D
S2140026F00837BD4680BD80B582B000AF034639605E
S214002700FB71FB79002B0DD0FB79012B0AD0FB79EE
S214002710022B07D0FB79032B04D0FB79042B01D0C6
S214002720FB79052BFA7913465B0013441B010C3327
S21400273003F1804303F5204301213A6801FA02F2CF
S21400274011461846FFF73FFF00BF0837BD4680BD5D
S21400275080B400AF034B01221A6100BFBD465DF88E
S214002760047B704700300E4080B582B000AF034651
S2140027700A46FB711346BB71BB79002B04D0FB796C
S21400278018460AF021FA03E0FB7918460AF00AFA1E
S21400279000BF0837BD4680BD80B483B000AF034697
S2140027A0FB71FB79062B0BD8FA790A4913465B00B6
S2140027B01344DB000B441B78002B01D0012300E000
S2140027C0002303F00103DBB218460C37BD465DF864
S2140027D0047B7047A494020080B582B000AF034625
S2140027E0FB71FB791846FFF7D7FF0346002B01D095
S2140027F0012306E040F239120449002010F060FD83
S214002800002318460837BD4680BD00BF3C94020032
S21400281080B582B000AF0346FB71FB791846FFF720
S214002820DBFF0346002B09D0FA79074913465B0005
S2140028301344DB000B4408331B7800E000231846E3
S2140028400837BD4680BD00BFA494020080B582B0A4
S21400285000AF0346FB71FB791846FFF7BDFF034642
S214002860002B09D0FA79074913465B001344DB00B6
S2140028700B440C331B6800E0002318460837BD469F
S21400288080BD00BFA494020080B483B000AF0346AE
S214002890FB71FB79062B0BD8FA790A4913465B00C5
S2140028A01344DB000B441B78002B01D0012300E00F
S2140028B0002303F00103DBB218460C37BD465DF873
S2140028C0047B70474C95020080B582B000AF03468B
S2140028D0FB71FB791846FFF7D7FF0346002B01D0A4
S2140028E0012306E04FF4B1720449002010F0E8FC22
S2140028F0002318460837BD4680BD00BF3C94020042
S21400290080B582B000AF0346FB71FB791846FFF72F
S214002910DBFF0346002B09D0FA79074913465B0014
S2140029201344DB000B4408331B7800E000231846F2
S2140029300837BD4680BD00BF4C95020080B582B00A
S21400294000AF0346FB71FB791846FFF7BDFF034651
S214002950002B09D0FA79074913465B001344DB00C5
S2140029600B440C331B6800E0002318460837BD46AE
S21400297080BD00BF4C95020080B582B000AF034614
S214002980FB71FB791846FFF79FFF0346002B09D023
S214002990FA79074913465B001344DB000B441033F7
S2140029A01B6800E0012318460837BD4680BD00BFFF
S2140029B04C95020080B582B000AF0346FB71FB79F0
S2140029C01846FFF781FF0346002B0CD0FA7908491A
S2140029D013465B001344DB000B4414331B78002BB8
S2140029E001D0012300E0002318460837BD4680BD0D
S2140029F04C95020080B582B000AF03460A46FB71D4
S214002A001346BB71FB790E4AD35C012B14D10D4BD8
S214002A101A68FB790C4951F82330D31AB3F5967F20
S214002A200AD3FB79064A0221D154BB790333DBB2C1
S214002A3001211846FFF798FE00BF0837BD4680BD47
S214002A40500900204C0900205809002080B584B0A9
S214002A5000AF78600123FB73204B1B680A331F4AC4
S214002A60136040210020FFF7C5FF45210120FFF736
S214002A70C1FF4A210220FFF7BDFF4F210320FFF7C9
S214002A80B9FF54210420FFF7B5FF59210520FFF7B1
S214002A90B1FF0023BB730AE0BB7B114AD35C002B5B
S214002AA002D00023FB7305E0BB7B0133BB73BB7B0B
S214002AB0052BF1D9FB7B002B05D1084B1B6847F291
S214002AC03052934205D907480DF082FD064B00228E
S214002AD01A7000BF1037BD4680BD00BF4C090020ED
S214002AE050090020100900204809002080B582B057
S214002AF000AF0346FB710B46BB7113467B71BB7977
S214002B00012B38D1FB79274AD35C002B44D17B7943
S214002B10002B12D0244B1B78DBB283F00103DBB210
S214002B20002B1DD0214B00221A600A2120480DF0F0
S214002B30F3FC1D4B01221A7012E01D480DF065FDD6
S214002B40034683F00103DBB2002B09D0174B0022AB
S214002B501A600A2116480DF0AFFC134B01221A70BA
S214002B60FB79104A0121D154FB79104A12681149A9
S214002B7041F8232010E0FB790A4AD35C002B0BD0E7
S214002B80FB79084A0021D154084B1A68FB79094999
S214002B9051F82330D31A00E0002318460837BD4604
S214002BA080BD00BF50090020480900204C090020C5
S214002BB0100900205809002080B582B000AF0346F7
S214002BC0FB71FB790A2B17D00A2B06DC072B0FD0DC
S214002BD0092B21D0062B07D022E0CD2B14D0CE2BEC
S214002BE016D00B2B0CD01BE0002000F0D6FA17E016
S214002BF0012000F0D2FA13E0022000F0CEFA0FE037
S214002C00032000F0CAFA0BE0042000F0C6FA07E042
S214002C10052000F0C2FA03E0062000F033FB00BFF8
S214002C2000BF0837BD4680BD80B586B000AF0346FE
S214002C30B9607A60FB7300237B61FB7B052B39D878
S214002C4001A252F823F000BF612C00006F2C000098
S214002C507D2C00008B2C0000B52C0000992C000069
S214002C60BB68032B2DD14FF080737B6129E0BB68D6
S214002C700D2B28D14FF000737B6124E0BB680A2B34
S214002C8023D14FF080537B611FE0BB680E2B1ED113
S214002C904FF480137B611AE0BB68022B03D14FF41C
S214002CA080337B6115E0BB68072B12D14FF40033ED
S214002CB07B610EE04FF41F721549002010F000FBF8
S214002CC008E000BF06E000BF04E000BF02E000BF6F
S214002CD000E000BF7B69002B14D000233B617B68BB
S214002CE0012B01D17B693B61396978690DF084F865
S214002CF0084B9B6923F03003064A43F02003936198
S214002D00012300E0002318461837BD4680BD00BFEB
S214002D103C94020000300E4080B586B000AF0346FB
S214002D20FB71FB791846FFF7AFFD0346002B1CD05E
S214002D30FB791846FFF7E4FD0346FB75FB7918465A
S214002D40FFF7FCFD3861FB791846FFF715FEF860C3
S214002D50FB68012B14BF01230023DBB2BB60F87DA8
S214002D60BB68032239690DF005F800BF1837BD4669
S214002D7080BD000080B582B000AF0346FB71FB79D2
S214002D801846FFF729FD0346002B09D0FA790749B4
S214002D9013465B001344DB000B4404331B6800E05F
S214002DA0034B18460837BD4680BD00BFA4940200FA
S214002DB0A094020080B582B000AF0346FB71FB7999
S214002DC01846FFF709FD0346002B09D0FA79074994
S214002DD013465B001344DB000B4410331B6800E013
S214002DE0012318460837BD4680BD00BFA4940200E4
S214002DF080B582B000AF0346FB71FB791846FFF73B
S214002E00EBFC0346002B09D0FA79074913465B0012
S214002E101344DB000B4414331B6800E00023184601
S214002E200837BD4680BD00BFA494020080B586B0BA
S214002E3000AF03460A46FB711346BB71FB79184682
S214002E40FFF7AAFC0346002B23D0FB791846FFF7B2
S214002E50DFFC0346BB75FB791846FFF7F7FC3861C5
S214002E60FB791846FFF7A6FFF8600123FB75FB68A1
S214002E70012B14BF01230023DBB2BB60BB79002B00
S214002E8001D00423FB75FA7DB87DBB6839690CF068
S214002E9071FF00BF1837BD4680BD80B586B000AF55
S214002EA003460A46FB711346BB71FB791846FFF7CB
S214002EB073FC0346002B26D0FB791846FFF7A8FCC8
S214002EC00346FB75FB791846FFF7C0FC3861FB79B3
S214002ED01846FFF76FFFF860BB79002B02D1FB683E
S214002EE0012B05D0BB79012B08D1FB68002B05D13F
S214002EF0FB7D39691846FFF7FEFB04E0FB7D396968
S214002F001846FFF7CBFB00BF1837BD4680BD80B51F
S214002F1082B000AF0346FB71FB79012B10D0022B69
S214002F2007D1002300224FF46171642000F060FD99
S214002F3007E0002300220021002000F059FD00E0F9
S214002F4000BF00BF0837BD4680BD000080B400AF9C
S214002F50034B1B681846BD465DF8047B704700BFF0
S214002F607409002080B582B000AF0346FB71FB7980
S214002F701846FFF7A9FC0346002B09D0FA79074943
S214002F8013465B001344DB000B4401331B7800E060
S214002F90002318460837BD4680BD00BF4C9502008A
S214002FA080B582B000AF0346FB71FB791846FFF789
S214002FB08BFC0346002B09D0FA79074913465B00C1
S214002FC01344DB000B4404331B6800E0034B184635
S214002FD00837BD4680BD00BF4C950200A094020095
S214002FE080B582B000AF0346FB71FB791846FFF749
S214002FF06BFC0346002B09D0FA79074913465B00A1
S2140030001344DB000B4415331B7800E040231846BE
S2140030100837BD4680BD00BF4C95020080B584B021
S21400302000AF03463960FB710023FB731CE0FB7B9B
S2140030301846FFF729FC0346002B12D0FB7B1846E8
S214003040FFF75EFC03461A46FB79934209D1FB7BE9
S2140030501846FFF773FC02463B68934201D1FB7BA0
S21400306006E0FB7B0133FB73FB7B062BDFD90823D3
S21400307018461037BD4680BD80B588B002AF0346FF
S214003080FB71FB791846FFF7FFFB0346002B48D081
S214003090264B1B7883F00103DBB2002B14D0244AA6
S2140030A001212448FDF79CF807F03DF90521122080
S2140030B0FFF736FA05210A20FFF732FA1E4B0022E8
S2140030C01A701A4B01221A70FB791846FFF718FC83
S2140030D00346FB75FB791846FFF730FC3861FB7931
S2140030E01846FFF749FCF860FB791846FFF762FCC4
S2140030F00346002B05D0FB7DFA6839691846FFF7B2
S21400310093FDF87D012301930123009301233A697F
S21400311039690CF0E3FD3B69DBB20849184607F055
S21400312013F900BF1837BD4680BD00BF78090020E0
S2140031304D2A00001009002048090020B92B000085
S21400314080B586B000AF0346FB71FB791846FFF7E3
S2140031509BFB0346002B1BD0FB791846FFF7D0FBE2
S2140031600346FB75FB791846FFF7E8FB3861FB79E9
S2140031701846FFF701FCF860FB7D39691846FFF733
S21400318063FAB860BA68FB689A4201D1012300E08E
S214003190002318461837BD4680BD80B582B000AF04
S2140031A00346FB71FB7900220121184600F004F863
S2140031B000BF0837BD4680BD80B584B000AF03466B
S2140031C0FB710B46BB7113467B71FB791846FFF704
S2140031D0F1FB0346002B02D02948FFF719FAFB79CA
S2140031E01846FFF7ADFF0346012B06D1BA79FB79E7
S2140031F001211846FFF77AFC3EE0FB791846FFF7F8
S214003200EFFE0346FB737B79002B08D0FB7B023373
S214003210DBB2BA7911461846FFF7A6FA2CE0BA795F
S214003220FB7900211846FFF761FCB860BB6841F2E5
S2140032308832934208D9FB7B0433DBB2BA79114655
S2140032401846FFF791FA17E0BB68142B14D9BB6831
S214003250B3F5967F08D2FB7B0233DBB2BA79114610
S2140032601846FFF781FA07E0FB7B0133DBB2BA7939
S21400327011461846FFF778FA00BF1037BD4680BDE6
S2140032800000131380B582B000AF0346FB71FB79D4
S21400329000220121184600F005F800BF0837BD4699
S2140032A080BD000080B582B000AF0346FB710B46C0
S2140032B0BB7113467B71BB79002B09D0FB7918468E
S2140032C0FFF778FB0346002B02D02048FFF7A0F953
S2140032D0FB791846FFF734FF0346012B15D11C4B2C
S2140032E01B7883F00103DBB2002B2BD0FB7918464A
S2140032F0FFF776FE03461A46BB7919461046FFF7D7
S21400330033FA134B01221A701CE07B79002B0AD08B
S214003310FB791846FFF764FE03461A46BB79194642
S2140033201046FFF721FAFB791846FFF759FE0346C9
S2140033300133DBB2BA7911461846FFF715FA044B8B
S21400334000221A7000BF0837BD4680BD0000131368
S2140033507909002080B582B000AF012124480BF027
S214003360F1FA244B00221A600023FB710FE0FB7970
S2140033701846FFF7D1FCFB791F4A0021D154FB7990
S2140033801E4A002142F82310FB790133FB71FB79BA
S214003390062BECD9FFF7DCF9FFF74AF903461B0CBE
S2140033A01B04174A1360164B1B681846FFF730F9C4
S2140033B000233B6008E03B68DBB201211846FFF7BC
S2140033C035FD3B6801333B603B68062BF3D9012390
S2140033D00422052100200CF0CDFC01230022002150
S2140033E00020FDF753FE002318460837BD4680BD73
S2140033F0003508004C09002050090020580900201C
S2140034007409002080B584B000AF78600023BB60EC
S2140034107B68002B72D07B681B68002B6ED07B68A5
S2140034201B6803F08073002B0AD00023FB73032372
S214003430BB607B681B6823F080727B681A6053E071
S2140034407B681B6803F00073002B0AD00123FB7314
S2140034500D23BB607B681B6823F000727B681A60D4
S21400346042E07B681B6803F08053002B0AD00223DF
S214003470FB730A23BB607B681B6823F080527B6863
S2140034801A6031E07B681B6803F48013002B0AD0B7
S2140034900323FB730E23BB607B681B6823F4801238
S2140034A07B681A6020E07B681B6803F48033002B7F
S2140034B00AD00523FB730223BB607B681B6823F4DA
S2140034C080327B681A600FE07B681B6803F4003369
S2140034D0002B09D00523FB730723BB607B681B68A2
S2140034E023F400327B681A60BB68002B06D0FB7B97
S2140034F0B9681846FFF792FD034600E00823184611
S2140035001037BD4680BD80B584B000AF78600AE055
S2140035103B1D1846FFF776FF0346FB73FB7B082B25
S21400352001D1002303E07B68002BF1D1012318466C
S2140035301037BD4680BD80B584B000AF78603B1DB7
S2140035401846FFF75FFF0346FB73FB7B082B15D07F
S214003550FB7B1846FFF706FD0346012B06D1FB7BD7
S214003560012200211846FFF79DFE05E0FB7B0122A5
S21400357000211846FFF720FE012300E0002318462E
S2140035801037BD4680BD80B500AFFEF7F3FF00BF25
S21400359080BD000080B582B000AF01210120FFF79A
S2140035A07CFC00210220FFF778FC00237B6002E011
S2140035B07B6801337B607B680A4A9342F8DD002112
S2140035C00120FFF76AFC01210220FFF766FC0023BA
S2140035D03B6002E03B6801333B603B68014A934234
S2140035E0F8DDDAE73F420F0080B584B000AF03464F
S2140035F0FB71FB79642B00F2DC8001A252F823F009
S214003600953700009F370000A9370000A937000053
S214003610B3370000953700009F370000953700004D
S21400362095370000B3370000B3370000B33700000B
S214003630B3370000B3370000B3370000B3370000DD
S214003640B3370000B3370000B3370000B3370000CD
S214003650B3370000B3370000B3370000B3370000BD
S214003660B3370000B3370000B3370000B3370000AD
S214003670B3370000B3370000B3370000B33700009D
S214003680A9370000A9370000B3370000B3370000A1
S214003690B3370000B3370000B3370000B33700007D
S2140036A0B3370000B3370000B3370000B33700006D
S2140036B0B3370000B3370000B3370000B33700005D
S2140036C0B3370000B3370000B3370000B33700004D
S2140036D0B3370000B3370000B3370000B33700003D
S2140036E0B3370000B3370000B3370000B33700002D
S2140036F0B3370000B3370000B3370000B33700001D
S21400370095370000953700009F3700009F37000070
S214003710953700009537000095370000B337000056
S214003720B3370000B3370000B3370000B3370000EC
S214003730B3370000B3370000B3370000B3370000DC
S214003740B3370000B3370000B3370000B3370000CC
S214003750B3370000B3370000B3370000B3370000BC
S214003760B3370000B3370000B3370000B3370000AC
S214003770B3370000B3370000B3370000B33700009C
S214003780A9370000A93700009537000095370000DC
S214003790953700000123FB730023BB7310E0002362
S2140037A0FB730123BB730BE00023FB730023BB7387
S2140037B006E0FB7919460B480FF09CFD00230CE051
S2140037C0FB7B04220E2101200CF0D4FABB7B0422E2
S2140037D00F2101200CF0CEFA012318461037BD4603
S2140037E080BD00BFF495020080B584B000AF0346EC
S2140037F0FB710123FB60FB791846FFF7F5FEF860C6
S214003800FB6818461037BD4680BD000080B483B004
S21400381000AF0346FB71FB7903F01F02074997F9D7
S21400382007305B09012000FA02F241F8232000BFAE
S2140038300C37BD465DF8047B704700BF00E100E032
S21400384080B483B000AF03463960FB7197F9073048
S214003850002B0BDA3B68DAB20C49FB7903F00F0356
S214003860043B5201D2B20B441A7609E03B68DAB246
S214003870074997F907305201D2B20B4483F8002368
S21400388000BF0C37BD465DF8047B704700ED00E0D6
S21400389000E100E080B483B000AF786039607B68F8
S2140038A03A689A6200BF0C37BD465DF8047B7047E5
S2140038B080B483B000AF786039607B68DA6A3B68B2
S2140038C01A437B68DA6200BF0C37BD465DF8047B9E
S2140038D0704780B483B000AF78607B681B6A184678
S2140038E00C37BD465DF8047B7047000080B586B097
S2140038F000AF0346FB71374B1B7883F00103DBB246
S214003900002B62D0FB7901211846FFF78FFA0121C0
S21400391031480AF0B9FE0A2130480BF0E1FB0421D9
S2140039202F480BF003FA01212E480BF00BF801216B
S2140039302B480BF007F808212B48FFF7B9FF0721A3
S2140039401B20FFF77DFF1B20FFF760FFFB79184663
S214003950FFF74EFA7861244B1B6C234A23F00103D1
S2140039601364214B5B6C23F01F021F497B691343D2
S2140039704B64FB791846FFF71DFA0346002B0CBF75
S21400398001230023DBB21A46184B1A6000233B7251
S21400399000237B720023BB720023FB72134B1B6851
S2140039A0DBB23B73114B1B68DBB27B730023BB732C
S2140039B00023FB7300233B7407F1080319460A48EB
S2140039C006F06AFD034B01221A7000BF1837BD4689
S2140039D080BD00BF7A0900207C09002002001A0082
S2140039E060061400002508000060044094090020CA
S2140039F080B58CB000AFF860B9607A60FB704D4B54
S214003A001B7883F00103DBB2002B06D094224A49D0
S214003A1000200FF055FC002388E0FB68032B10D82D
S214003A20464B1B6C454A23F00103136400214348B0
S214003A3006F01CFD424B00221A7042480AF047FE70
S214003A4073E0FA68BB681344FA2202FB03F33E4AAB
S214003A50A2FB03239B097B62BB68FA2202FB03F3EB
S214003A60394AA2FB03239B093B62002387F82F30C9
S214003A700123BB627B68002B04D0012387F82F301C
S214003A807B68BB627B6AB3F5803F03D2BB6AB3F543
S214003A90803F06D3BD22284900200FF011FC0023EA
S214003AA044E07A6A0021254806F0B6FC7A6A3B6A4A
S214003AB0D31A1A460121214806F0AEFCBA6A002144
S214003AC01E4806F053FD012201211C4806F04EFD5B
S214003AD01A4B1C225A6001233B7500237B75012379
S214003AE0BB750023FB75194B1B68DBB23B76174B87
S214003AF01B68DBB27B760323BB760323FB7697F843
S214003B002F303B770D4B1B6C0C4A43F001031364BC
S214003B1007F114031946094806F0BEFC084AFB786C
S214003B201370002107480AF0C1FD012318463037FC
S214003B30BD4680BD7A090020309602000060044031
S214003B407B0900207C090020D34D621094090020D8
S214003B5080B400AF034B1B781846BD465DF8047B67
S214003B60704700BF7B09002080B500AF0E48FFF706
S214003B70B0FE034603F00803002B13D008210A48C2
S214003B80FFF788FE084B1B6C074A23F001031364FB
S214003B900021054806F06AFC044B00221A7004480F
S214003BA00AF0A5FD00BF80BD006004407B09002030
S214003BB07C09002080B582B000AF134A002113486C
S214003BC0FCF70EFB034683F00103DBB2002B01D0AB
S214003BD0002314E00023FB710DE0FB790C4A002162
S214003BE042F83310FB790A4ADB00134400225A607D
S214003BF0FB790133FB71FB79022BEED901231846C2
S214003C000837BD4680BD00BFCD3D0000DC64002007
S214003C109809002080B58EB000AFF860B9601346F2
S214003C20FB71FB68002B02D0BB68002B01D1002380
S214003C30C4E0BB68FB62FA6A07F1200310681860EC
S214003C4092889A8007F120031846FDF78BFF0346FB
S214003C50002B01D00123B1E00023FB610023FB769B
S214003C6007F11B0307F11C020021012001F092F866
S214003C70FB7E002B01D10123A0E0FB7E012B13D19C
S214003C8097F82220FB691B789A420DD197F82330CB
S214003C90C3F30603DAB2FB695B78C3F30603DBB251
S214003CA09A4201D1012389E0002387F837300023A8
S214003CB087F83630FB79002B3BD042480CF0A5FC49
S214003CC00346002B35D0002387F835302DE097F8D3
S214003CD035303D4A52F83330FA689A4220D197F888
S214003CE03530394ADB0013445B68BB62BA6A07F1B9
S214003CF014031068186092889A807B7EC3F30603CC
S214003D00DAB297F82530C3F30603DBB29A4207D13E
S214003D10012387F8363097F8353087F8373008E0D3
S214003D2097F83530013387F8353097F83530022B61
S214003D30CDD997F83630002B03D022480CF01DFC66
S214003D403BE0002387F83430002387F83730002321
S214003D5087F8333013E097F833301B4A52F8333085
S214003D60002B07D1012387F8343097F8333087F8D3
S214003D70373008E097F83330013387F8333097F858
S214003D803330022BE7D997F8343083F00103DBB2E7
S214003D90002B01D0002311E0FA210A480CF08CFB1E
S214003DA097F83730FA68084941F8332097F83730E3
S214003DB0054ADB001344BA685A60012318463837B0
S214003DC0BD4680BDDC6400209809002090B58BB00D
S214003DD000AF78607B68524A934240F09D80002393
S214003DE0FB610023FB7607F11B0307F11C02002191
S214003DF0012000F0CFFF002387F8273086E097F8F1
S214003E002730484A52F83330002B6DD097F82730C9
S214003E10444ADB0013445B68002B14BF01230023D5
S214003E20DBB2BD22404918460FF04AFA97F8273011
S214003E303C4ADB0013445B683B623A6A07F11403B2
S214003E401068186092889A80002387F8263046E02B
S214003E50BA7DF96997F826309B000B441B789A4286
S214003E600ED1FB7DC3F30603DAB2F96997F8263064
S214003E709B000B445B78C3F30603DBB29A4229D05F
S214003E80FA6997F826309B0013443B617B7EC3F3A8
S214003E900603DBB2BB7325233B733B7D03F00203B3
S214003EA0002B04D03B7B43F00203DBB23B730023C2
S214003EB07B7397F827301B4A52F8334097F8273021
S214003EC0184ADB0013445B681A4607F10C0393E8B4
S214003ED00300A04797F82630013387F82630FB7E8C
S214003EE097F826209A42B3D397F827300D4A002138
S214003EF042F8331097F827300A4ADB0013440022B2
S214003F005A6097F82730013387F8273097F827301C
S214003F10022B7FF674AF00E000BF2C37BD4690BD85
S214003F20DC640020980900209C96020080B5B4B09E
S214003F3000AFF860B9601346FB7107F12003083341
S214003F40C7F8CC30BB685B78013B0A2B00F2DB80FD
S214003F5001A252F823F000BFEB3F0000853F0000AF
S214003F60074100000F4000003F40000007410000EE
S214003F70074100000741000007410000074100001C
S214003F80A9400000F868FDF7C9FD0346002B01D0E4
S214003F900223B9E0A0220021D7F8CC0025F062F871
S214003FA0FB685B79C3F30603DBB21846B96807F112
S214003FB01B03D7F8CC2001F0C3FE07F11C031946FB
S214003FC0F868FDF757FDF97EFA690023D7F8CC00AC
S214003FD0FDF7D6FC034687F8CB3097F8CB30002B9E
S214003FE001D0022390E0FF238EE0FB685B79C3F3E9
S214003FF00603DBB21846FB791A46B96801F066FD7F
S2140040000346002B01D102237EE0FF237CE0FB79F0
S214004010022B01D8022377E0BB689878FB685B79AF
S214004020C3F30603DBB21946FB79BA6801F04CF815
S2140040300346002B01D1022366E0FF2364E0F86804
S214004040FDF76CFD034683F00103DBB2002B29D09D
S214004050A0220021D7F8CC0025F004F807F11403BD
S2140040601946F868FDF706FDD7F8CC3085221A7099
S214004070D7F8CC3006225A70FB685B79C3F3060388
S214004080DBB2184600F029FF03461A46D7F8CC30B4
S2140040909A707A6900230321D7F8CC00FDF770FCEC
S2140040A0FF2331E002232FE0F868FDF737FD0346D3
S2140040B083F00103DBB2002B23D0A0220021D7F827
S2140040C0CC0024F0CFFF07F110031946F868FDF77F
S2140040D0D1FCD7F8CC3085221A70D7F8CC300C2219
S2140040E05A7000F03DFC03461A46D7F8CC309A705A
S2140040F03A6900230321D7F8CC00FDF741FCFF23E3
S21400410002E0022300E000231846D037BD4680BDFB
S21400411080B5ACB000AF3B1D0833C7F8AC30A0226A
S2140041200021D7F8AC0024F09DFFD7F8AC30002B68
S21400413001D100233AE03B4619461E48FDF79AFC9B
S214004140D7F8AC3059221A70D7F8AC3004225A701F
S214004150194B1B78022B01D1802200E00022D7F8F1
S214004160AC309A70D7F8AC309B7843F00103DAB2E3
S214004170D7F8AC309A70114B18780E4B5B79C3F3B6
S2140041800603DBB21946D7F8AC3003331A4600F004
S21400419017FB3A680A4B0A21D7F8AC00FDF7F0FB8C
S2140041A00346002B01D0002300E001231846B03759
S2140041B0BD4680BDB4090020B2090020B009002029
S2140041C0D941000080B582B000AF7860FFF7A0FF4D
S2140041D000BF0837BD4680BD90B583B000AF03462C
S2140041E0FB71114B1B78022B17D1104B1C78631CEC
S2140041F0DAB20E4B1A700E4B1B78184600F0C6FA51
S21400420003469C4209D20B4A00210B48FBF7E8FF05
S2140042100A2109480CF050F902E0034B00221A70FC
S2140042200C37BD4690BD00BFB2090020B009002083
S214004230B1090020C5410000BC09002080B5B2B01D
S21400424000AFF860B9601346FB7107F1140308333A
S214004250C7F8C430F868FDF761FC0346002B01D0B0
S2140042600223FCE0BB685B78032B49D0052B00F0EB
S2140042708B80012B40F0EF80A0220021D7F8C400ED
S21400428024F0F0FEFB79032B01D00223E7E0D7F8F9
S214004290C43059221A70D7F8C43002225A70BB684C
S2140042A09B7887F8C13097F8C120D7F8C4309A7049
S2140042B0D7F8C430181D97F8C110FB685B79C3F3B4
S2140042C00603DBB21A4600F009FA034687F8C23046
S2140042D0D7F8C43097F8C220DA7007F1BC03194645
S2140042E0F868FDF7C7FB97F8C2300433D9B2D7F8A1
S2140042F0BC200023D7F8C400FDF742FBFF23AEE046
S214004300594B1B78002B01D00223A8E0BB689B7892
S21400431003F04003002B0ED0534B02221A70534B6F
S21400432001221A70FB685B79C3F30603DBB21A46F8
S2140043304F4B1A700EE04C4B01221A70BB68DA78AD
S2140043404A4B1A70FB685B79C3F30603DBB21A4666
S214004350474B1A70444B1B78002B13D00622F96883
S214004360444824F074FEFFF7D3FE034683F00103AF
S214004370DBB2002B04D03C4B00221A7002236EE006
S214004380FF236CE002236AE0A0220021D7F8C400D5
S21400439024F068FEBB68DB7887F8C130FB685B7981
S2140043A0C3F30603DBB21A4607F1C10319461046EB
S2140043B000F078FC97F8C120FB685B79C3F306032E
S2140043C0DBB21946104600F093FA034687F8C3306E
S2140043D097F8C330002B01D1022340E007F1BC035D
S2140043E01946F868FDF746FBD7F8C43059221A700C
S2140043F0D7F8C43006225A7097F8C120D7F8C430D0
S2140044009A70D7F8C43097F8C320DA70D7F8C4305B
S214004410181D97F8C110FB685B79C3F30603DBB27F
S2140044201A4600F013FA034683F00103DBB2002BB2
S21400443001D0022313E097F8C3300433D9B2D7F87B
S214004440BC200023D7F8C400FDF79AFA0346002BD9
S21400445003D0022303E0002301E000BFFF23184639
S214004460C837BD4680BD00BFB2090020B009002095
S214004470B1090020B409002080B5B2B000AFF860E2
S214004480B9601346FB7107F118030833C7F8C43048
S214004490BB685B78013B042B00F2988001A252F8BF
S2140044A023F000BF13450000B9440000CD450000CE
S2140044B03745000069450000F868FDF72FFB034606
S2140044C0002B01D0022382E0A0220021D7F8C400EE
S2140044D024F0C8FDFB685B79C3F30603DBB218461D
S2140044E0B96807F11303D7F8C42001F029FC07F1D7
S2140044F014031946F868FDF7BDFAF97C7A690023BB
S214004500D7F8C400FDF73CFA034687F8C330FF230C
S2140045105DE0FB685B79C3F30603DBB21846FB7904
S2140045201A46B96801F0D2FA0346012B01D00223DD
S2140045304DE0FF234BE0FB79022B02D1BB68002243
S2140045409A70BB689878FB685B79C3F30603DBB2A6
S2140045501946FB79BA6800F0B7FD0346002B01D177
S214004560022334E0FF2332E0F868FDF7D7FA03466B
S214004570002B01D002232AE0A0220021D7F8C40095
S21400458024F070FD07F114031946F868FDF772FA77
S214004590D7F8C4308E221A70D7F8C43006225A7064
S2140045A0FB685B79C3F30603DBB2184600F095FCA4
S2140045B003461A46D7F8C4309A707A690023032156
S2140045C0D7F8C400FDF7DCF9FF2300E00023184607
S2140045D0C837BD4680BD00BF90B585B000AF00238C
S2140045E0FB73154A3B1D07CA03C31A70134B0122FF
S2140045F01A703C220021124824F034FD0023FB737D
S21400460012E0FB7B342202FB03F30D4A9C183B1D91
S214004610184624F063FD02463B1D1946204624F04A
S21400462016FDFB7B0133FB73FB7B002BE9D000BF41
S2140046301437BD4690BD00BF1097020054000020FE
S214004640F409002080B483B000AF78600B46FB709E
S2140046501346BB70BB78002B12D1BB780B4A3421B3
S21400466001FB03F313442C337A681A60BB78074ABD
S214004670342101FB03F313443033FA781A7000E058
S21400468000BF0C37BD465DF8047B7047F409002078
S21400469080B483B000AF78600B46FB701346BB70E7
S2140046A07B68002B01D10023FB70BB78002B0DD15B
S2140046B0BB78094A0633DB001344FA781A72BB78D3
S2140046C0054A0633DB0013447A685A6000BF0C378D
S2140046D0BD465DF8047B7047F409002090B589B0AC
S2140046E000AF78600B46FB701346BB700023FB766A
S2140046F0244B07F10C040FCB07C423807B68002BE8
S21400470002D0BB78002B01D0FB7E37E0FA78BB786E
S2140047101D490633DB000B441B7A01339A4202DC48
S214004720FB78002B03D107F10C03FB611AE0FB7842
S214004730012B07D1BB78342202FB03F3124A134441
S214004740FB610FE0BB78104A0633DB001344596860
S214004750FA781346DB009B1ADA00D31A623B0B4446
S2140047600733FB61F86924F0B9FC0346FB76FB7E51
S2140047701A46F969786824F06AFCFB7E18462437E6
S214004780BD4690BD1C970200F409002080B483B09B
S21400479000AF0346FB71FB79002B01D0002307E036
S2140047A0FB79064A0633DB0013441B7A0133DBB27F
S2140047B018460C37BD465DF8047B7047F4090020A8
S2140047C080B582B000AF03463A60FB710B46BB7102
S2140047D0FA1DBB791146184600F064FAFA793B6870
S2140047E01A70FB79012B06D13B6800229A703B6851
S2140047F00122DA7023E0BB79134A0633DB00134448
S2140048005A68FB7919460B46DB005B1AD900CB1AAF
S214004810623B13441A783B689A70BB790A4A06339F
S214004820DB0013445A68FB7919460B46DB005B1A1B
S214004830D900CB1A623B13445A783B68DA7000BF43
S2140048400837BD4680BD00BFF409002080B582B0A1
S21400485000AF78600B46FB701346BB70BB78002B2E
S21400486001D000233EE0FB78012B16D1BB781F4A0F
S214004870342101FB03F313442C331868BB781B4A1E
S214004880342101FB03F3134430331B785B001A46D4
S2140048900146786824F0DBFB23E0BB78134A063336
S2140048A0DB0013445968FA781346DB009B1ADA00DB
S2140048B0D31A623B0B44D81CBB780C4A0633DB0089
S2140048C013445968FA781346DB009B1ADA00D31AA9
S2140048D0623B0B449B785B001A460146786824F0DE
S2140048E0B6FB012318460837BD4680BDF4090020F4
S2140048F080B485B000AF03460A46FB711346BB7111
S2140049000023FB73BB79002B01D000231FE0FB794B
S214004910012B0AD1BB79114A342101FB03F313445E
S21400492030331B785B00FB7310E0BB790B4A063311
S214004930DB0013445968FA791346DB009B1ADA0049
S214004940D31A623B0B449B785B00FB73FB7B1846D9
S2140049501437BD465DF8047B704700BFF40900209D
S21400496080B400AF034B1B781846BD465DF8047B49
S214004970704700BF5400002080B483B000AF78605A
S2140049800B46FB700B4AFB7893700A4B25225A7035
S2140049907B685B68074A53607B681A7A054B1A7215
S2140049A0044B00221A70034B18460C37BD465DF8C0
S2140049B0047B70473C0A002080B485B000AFB88105
S2140049C0B9601346FB7102E0FB79013BFB713A7B51
S2140049D0FB7903F10043013B5B00B9680B441B788D
S2140049E09A4203D0FB79013B002BEDDC3A7BFB7946
S2140049F003F10043013B5B00B9680B441B789A4205
S214004A0001D1012300E0002318461437BD465DF8A7
S214004A10047B704780B586B000AFB88139817A6074
S214004A200023FB750023FB7546E0397B7B6818681E
S214004A30FA7D1346DB009B1ADA00D31A03441B7870
S214004A40994236D1797B7B681868FA7D1346DB007D
S214004A509B1ADA00D31A03445B78994229D10023C3
S214004A60BB7519E07B681968FA7D1346DB009B1A54
S214004A70DA00D31ACA18BB7D5B0013440333012245
S214004A801946B868FFF798FF0346002B01D0FB7D58
S214004A9018E0BB7D0133BB757B681968FA7D134649
S214004AA0DB009B1ADA00D31A0B449B78BA7D9A4235
S214004AB0D8D3FB7D0133FB757B681B79FA7D9A4260
S214004AC0B3D3FF2318461837BD4680BD80B588B0DF
S214004AD000AFF860B9601346FB710023FB77002334
S214004AE0FB750023BB61694B00225A60674B0022AE
S214004AF01A72664AFB791370FB79002B01D00023EB
S214004B00C0E0FB79624A342101FB03F313442C33E3
S214004B101868FB795E4A342101FB03F313443033F3
S214004B201978BB681A785B781B021A43002362F375
S214004B300F030A4601461846FFF73EFF0346002BC2
S214004B401BD0544B544A0021012000F023F90346A1
S214004B50BB75BB7D002B06D04C4B00225A604B4BDE
S214004B6000221A7209E04D4B01221A70474B1B783F
S214004B7019464648FFF700FFB861FB790633DB00AD
S214004B80434A1344181DBA68FB681178527812021B
S214004B900A43002162F30F011A785B781B021A435E
S214004BA0002362F30F0302461846FFF733FF03465F
S214004BB0FB75FB7DFF2B58D0344B5B68002B11D068
S214004BC0324B1B7AFB77314B5968304B1B7A9B0074
S214004BD01A46334824F03BFA2C4B00225A602B4BE3
S214004BE000221A72FB7D0233D8B2F979294B2A4A81
S214004BF000F0D0F80346BB75BB7D002B10D0FB7FC2
S214004C00002B06D0214B264A5A60204AFB7F13729F
S214004C102BE01E4B00225A601C4B00221A7224E026
S214004C20FB7F002B15D0FB7F9B001D4A9818174B67
S214004C305968164B1B7A9B001A4624F008FA134B49
S214004C40174A5A60114B1A7AFB7F1344DAB20F4B9D
S214004C501A72FB7D0233DAB2104B1A700B4B1B78BC
S214004C6019460A48FFF788FEB861BB69002B08D0D2
S214004C70FB791B01DAB2094B1B781344DAB2BB6925
S214004C801A70BB6918462037BD4680BD300A002022
S214004C90F4090020380A0020340A002054000020BE
S214004CA0480A002080B483B000AF03463960FB7129
S214004CB03B681B78002B0BD03B681B781946FB79AA
S214004CC0084A0633DB0013441B7A0133994202DD9F
S214004CD03B6801221A7000BF0C37BD465DF8047BA6
S214004CE0704700BFF409002090B585B000AF0346BA
S214004CF0FB710B46BB7113467B710523BB607B794A
S214004D00FB7326E0B979FB79F87B1A4692001A44C1
S214004D100B469B000B445B00134403449B001C4A59
S214004D209C18B979FB79FA7B501C1A4692001A44F3
S214004D300B469B000B445B00134403449B00144A41
S214004D40134404221946204624F081F9FB7B0133E4
S214004D50FB73FA7BBB68013B9A42D3D3B979FB79E4
S214004D60BA68501E1A4692001A440B469B000B4423
S214004D705B00134403449B00054A134404220021AD
S214004D80184624F06FF900BF1437BD4690BD00BF2B
S214004D90700A002090B587B000AFBA607B6003460B
S214004DA0FB730B46BB73BB7B012B01D906235BE071
S214004DB0BB68002B01D1032356E07B68002B01D192
S214004DC0032351E0FB7BBA7B1146184600F052F8ED
S214004DD0034683F00103DBB2002B01D0072343E038
S214004DE007F10F0207F10E031146184600F05EFFAA
S214004DF0BB7B1946FB7B013B1A4692001A44930084
S214004E001A460B469B000B44DB001344184A1A4410
S214004E10BB681A607B6805221A700023FB7519E0D0
S214004E20BB7B1C46FB7B013BF97D11481A46920072
S214004E301A4423469B0023445B0013440B4410F89B
S214004E402330002B03D17B68FA7D1A7005E0FB7DCA
S214004E500133FB75FB7D042BE2D97B681B78002BA6
S214004E6001D1022300E0002318461C37BD4690BD42
S214004E70700A002080B582B000AF03460A46FB7178
S214004E801346BB71FB79002B09D0BB791846FFF798
S214004E907DFC03461A46FB79013B9A4201DC00235F
S214004EA000E0012318460837BD4680BD80B483B0B5
S214004EB000AF03460A46FB711346BB71FB79012B14
S214004EC004D1BB79002B01D0002300E0052318464F
S214004ED00C37BD465DF8047B704780B582B000AFE6
S214004EE00346FB71FB791846FFF750FC034618464D
S214004EF00837BD4680BD0000F0B583B000AF3A600D
S214004F001A460346FB710B46BB7113467B71FA1DAE
S214004F10BB1D1146184600F0C9FE694B00221A70E8
S214004F20BBE0BB791846FB79013B654A127814460C
S214004F3064491A4692001A4403469B0003445B00E9
S214004F401344234411F823203B681B789A423BD134
S214004F50BB791846FB79013B594A127814465949E1
S214004F601A4692001A4403469B0003445B0013440F
S214004F7023449B000B445B78C3F30603DAB23B681A
S214004F805B78C3F30603DBB29A421DD1BB791846A1
S214004F90FB79013B4A4A127814464A491A4692005F
S214004FA01A4403469B0003445B00134423449B00BF
S214004FB00B445B78C3F3C013DAB23B685B78C3F389
S214004FC0C013DBB29A4214D0BB791846FB79013B7A
S214004FD03B4A127814463B491A4692001A44034646
S214004FE09B0003445B001344234411F82330002B3A
S214004FF04DD1BB791946FB79013B314A12781046F0
S2140050001A4692001A440B469B000B445B0013445E
S21400501003449B002B4A134402223968184624F0A6
S21400502016F8BB791846FB79013B254A12781546D7
S2140050307C7924491A4692001A4403469B0003448E
S2140050405B0013442B449B000B4422469A7009F0E5
S214005050CDFA03461A46BB791D46FB795C1E184BF3
S2140050601B781E461046FDF757F8034618461549A6
S2140050702246920022442B469B002B445B0013449E
S21400508033449B000B440246DA70012313E00C4BBA
S2140050901B780133DAB20A4B1A70FB79BA791146DB
S2140050A01846FFF703FF03461A46054B1B789A423D
S2140050B03FF637AF002318460C37BD46F0BD00BF9D
S2140050C015650020700A002090B58BB000AF3A60DE
S2140050D01A460346FB710B46BB7113467B713B6851
S2140050E03B62BB79012B05D8FB79012B04D1BB7938
S2140050F0002B01D00023A4E0BB791846FFF746FB3F
S2140051000346FB77FB79002B64D0FB79FA7F9A4243
S21400511060D3FA1DBB1D1146184600F0C7FD7B790B
S214005120032B07D07B79042B42D13B6A03331B78D1
S214005130002B3DD1002387F8273034E03B6A1B78EC
S214005140852B14D1BB791C46FB79013B97F82710B9
S2140051503E481A4692001A4423469B0023445B00AE
S21400516013440B449B0003449B78012B16D0BB7959
S2140051701846FB79013B97F827101A4692001A4406
S21400518003469B0003445B0013440B449B002F4ADA
S214005190134404220021184623F064FF97F82730B2
S2140051A0013387F8273097F82730042BC6D90EE04E
S2140051B07A7907F10C000023396800F014FD3B6A89
S2140051C01878B979FA7907F10C0300F041F800F085
S2140051D01BFC35E0FB79002B30D17A7907F10C0007
S2140051E00023396800F0FFFC0023BB7120E0BB7988
S2140051F01846FFF7CBFA0346FB77012387F82630DD
S2140052000DE03B6A1878B97907F10C0397F8262069
S21400521000F01EF897F82630013387F8263097F806
S2140052202620FB7F9A42ECD9BB790133DBB2BB71F7
S214005230BB79002BDBD000F0E7FB01E0002300E0A9
S214005240012318462C37BD4690BD00BF700A0020CB
S21400525090B585B000AF3B600346FB710B46BB7153
S21400526013467B713B681B79002B02D03B681B7989
S21400527000E00123BB730023FB736BE09D4B002211
S2140052801A7060E0B9797B79013B9A4A1278144625
S21400529099481A4692001A440B469B000B445B0042
S2140052A0134423449B0003449B78002B45D13B6862
S2140052B01B79002B03D13B681B7B002B18D0B979D8
S2140052C07B79013B8B4A127814468B481A4692002B
S2140052D01A440B469B000B445B001344234410F80F
S2140052E023203B681968FB7B0B441B789A4224D129
S2140052F0B9797B79013B7F4A127810461A469200AC
S2140053001A440B469B000B445B00134403449B006B
S214005310794A134404220021184623F0A3FE3B6872
S2140053201B79002B09D07B79013BD8B2714B1A78D8
S214005330BB791946FFF7D8FC09E06E4B1B780133A2
S214005340DAB26C4B1A706B4B1B78042B9AD9FB7B2A
S2140053500133FB73FA7BBB7B9A428FD3FB79852B99
S21400536000F0C3803B681B7B002B02D03B681B7B96
S21400537000E00123BB730023FB73B0E05D4B00220B
S2140053801A70A4E0B9797B79013B5A4A1278144620
S21400539059481A4692001A440B469B000B445B0081
S2140053A0134423449B0003449B78012B40F08980E0
S2140053B03B681B79002B03D13B681B7B002B5BD023
S2140053C0B9797B79013B4B4A127814464A481A460B
S2140053D092001A440B469B000B445B001344234484
S2140053E010F823203B689968FB7B5B000B441B7816
S2140053F09A4266D1B9797B79013B3E4A12781446C7
S2140054003D481A4692001A440B469B000B445B002C
S214005410134423449B0003445B78C3F30603DAB2C9
S2140054203B689968FB7B5B000B445B78C3F3060321
S214005430DBB29A4245D1B9797B79013B2D4A127885
S21400544014462D481A4692001A440B469B000B44FD
S2140054505B00134423449B0003445B78C3F3C013F0
S214005460DAB23B689968FB7B5B000B445B78C3F35E
S214005470C013DBB29A4224D1B9797B79013B1D4A2D
S214005480127810461A4692001A440B469B000B44AC
S2140054905B00134403449B00174A13440422002174
S2140054A0184623F0DFFD3B681B7B002B09D07B7979
S2140054B0013BD8B20F4B1A78BB791946FFF714FC9C
S2140054C00AE00C4B1B780133DAB20A4B1A70094B10
S2140054D01B78042B7FF656AFFB7B0133FB73FA7BFE
S2140054E0BB7B9A42FFF44AAF00E000BF1437BD46CC
S2140054F090BD00BF15650020700A0020F0B597B07B
S21400550000AF0346FB71A24B1B68002B14BF0123A0
S2140055100023DBB24FF4C2729E4918460DF0D0FE4F
S214005520FB79002B40F02781994B186807F12C0275
S2140055301E23994908F03CFB38653B6D002B0CBFD9
S21400554001230023DBB24FF4C572924918460DF0D2
S214005550B7FE07F12C03FB64002387F8573004E1FD
S214005560002387F85630F6E0002387F85530E8E049
S21400557097F8564097F8575097F8553097F85610C2
S21400558097F8570097F85560FA6C3A601A4652003A
S2140055901A442B461B015B1B1A4423461B011B1B8C
S2140055A05B0013443A6813441D787C4C0246920014
S2140055B002440B469B000B445B00134433442A46CC
S2140055C004F8232097F8564097F8575097F8553028
S2140055D097F8561097F8570097F85560FA6C3A60A7
S2140055E01A4652001A442B461B015B1B1A442346DC
S2140055F01B011B1B5B0013443A6813445B78C3F320
S2140056000603DCB2654D0246920002440B469B0040
S2140056100B445B00134433449B002B445A7864F3DA
S21400562006025A7097F8564097F8575097F8553034
S21400563097F8561097F8570097F85560FA6C3A6046
S2140056401A4652001A442B461B015B1B1A4423467B
S2140056501B011B1B5B0013443A6813445B78C3F3BF
S214005660C013DCB24D4D0246920002440B469B002E
S2140056700B445B00134433449B002B445A7864F37A
S214005680C7125A7097F8561097F8570097F8553083
S214005690FC6C1A4652001A4403461B011B1A1A4495
S2140056A00B461B015B1A5B00134423449B78C3F331
S2140056B04013DAB297F8561097F8573097F8550017
S2140056C01546364C1A4692001A440B469B000B446D
S2140056D05B00134403449B0023442A469A7097F8C1
S2140056E0561097F8570097F85530FC6C1A4652003B
S2140056F01A4403461B011B1A1A440B461B015B1A6D
S2140057005B00134423449B78C3F30303DAB297F891
S214005710561097F8573097F8550015461F4C1A46FE
S21400572092001A440B469B000B445B001344034450
S2140057309B0023442A46DA7097F85530013387F8E1
S214005740553097F85530042B7FF612AF97F8563041
S214005750013387F8563097F85630002B3FF404AFE5
S21400576097F85730013387F8573097F85730012BA2
S2140057707FF6F6AE3BE1002387F857301DE10023A5
S21400578087F856300FE1002387F8553001E100BF57
S214005790186500202C97020001100500700A0020F2
S2140057A097F8565097F8573097F8556097F8561070
S2140057B097F8570097F855408F4A3A601A46920075
S2140057C01A442B469B002B445B00134433443A6830
S2140057D012F8235022465200224403461B011B1A8D
S2140057E01A440B461B015B1A5B00134407F1580270
S2140057F013444C3B2A461A7097F8565097F8573081
S21400580097F8556097F8561097F8570097F8554050
S214005810794A3A601A4692001A442B469B002B445B
S2140058205B00134433449B003A6813445B78C3F32D
S2140058300603DDB222465200224403461B011B1A11
S2140058401A440B461B015B1A5B00134407F158020F
S2140058501344A3F14C02537865F30603537097F88C
S214005860565097F8573097F8556097F8561097F8AF
S214005870570097F85540604A3A601A4692001A4414
S2140058802B469B002B445B00134433449B003A6832
S21400589013445B78C3F3C013DDB2224652002244A1
S2140058A003461B011B1A1A440B461B015B1A5B00BE
S2140058B0134407F158021344A3F14C02537865F3DE
S2140058C0C713537097F8561097F8573097F8550047
